{
  "contractName": "ArbiterStorage",
  "abi": [
    {
      "constant": true,
      "inputs": [],
      "name": "owner",
      "outputs": [
        {
          "name": "",
          "type": "address"
        }
      ],
      "payable": false,
      "stateMutability": "view",
      "type": "function"
    },
    {
      "constant": false,
      "inputs": [
        {
          "name": "newOwner",
          "type": "address"
        }
      ],
      "name": "transferOwnership",
      "outputs": [],
      "payable": false,
      "stateMutability": "nonpayable",
      "type": "function"
    },
    {
      "anonymous": false,
      "inputs": [
        {
          "indexed": true,
          "name": "previousOwner",
          "type": "address"
        },
        {
          "indexed": true,
          "name": "newOwner",
          "type": "address"
        }
      ],
      "name": "OwnershipTransferred",
      "type": "event"
    },
    {
      "constant": true,
      "inputs": [
        {
          "name": "providerAddress",
          "type": "address"
        },
        {
          "name": "subscriberAddress",
          "type": "address"
        },
        {
          "name": "endpoint",
          "type": "bytes32"
        }
      ],
      "name": "getDots",
      "outputs": [
        {
          "name": "",
          "type": "uint64"
        }
      ],
      "payable": false,
      "stateMutability": "view",
      "type": "function"
    },
    {
      "constant": true,
      "inputs": [
        {
          "name": "providerAddress",
          "type": "address"
        },
        {
          "name": "subscriberAddress",
          "type": "address"
        },
        {
          "name": "endpoint",
          "type": "bytes32"
        }
      ],
      "name": "getBlockStart",
      "outputs": [
        {
          "name": "",
          "type": "uint96"
        }
      ],
      "payable": false,
      "stateMutability": "view",
      "type": "function"
    },
    {
      "constant": true,
      "inputs": [
        {
          "name": "providerAddress",
          "type": "address"
        },
        {
          "name": "subscriberAddress",
          "type": "address"
        },
        {
          "name": "endpoint",
          "type": "bytes32"
        }
      ],
      "name": "getPreBlockEnd",
      "outputs": [
        {
          "name": "",
          "type": "uint96"
        }
      ],
      "payable": false,
      "stateMutability": "view",
      "type": "function"
    },
    {
      "constant": false,
      "inputs": [
        {
          "name": "providerAddress",
          "type": "address"
        },
        {
          "name": "subscriberAddress",
          "type": "address"
        },
        {
          "name": "endpoint",
          "type": "bytes32"
        },
        {
          "name": "dots",
          "type": "uint64"
        },
        {
          "name": "blockStart",
          "type": "uint96"
        },
        {
          "name": "preBlockEnd",
          "type": "uint96"
        }
      ],
      "name": "setSubscription",
      "outputs": [],
      "payable": false,
      "stateMutability": "nonpayable",
      "type": "function"
    },
    {
      "constant": false,
      "inputs": [
        {
          "name": "providerAddress",
          "type": "address"
        },
        {
          "name": "subscriberAddress",
          "type": "address"
        },
        {
          "name": "endpoint",
          "type": "bytes32"
        }
      ],
      "name": "deleteSubscription",
      "outputs": [],
      "payable": false,
      "stateMutability": "nonpayable",
      "type": "function"
    }
  ],
  "bytecode": "0x6060604052336000806101000a81548173ffffffffffffffffffffffffffffffffffffffff021916908373ffffffffffffffffffffffffffffffffffffffff160217905550610a23806100536000396000f300606060405260043610610083576000357c0100000000000000000000000000000000000000000000000000000000900463ffffffff1680633e24a696146100885780638da5cb5b1461011d578063dbe7436414610172578063e87e69fe146101ff578063eb609e9614610294578063f2fde38b146102f9578063fc633fd714610332575b600080fd5b341561009357600080fd5b6100eb600480803573ffffffffffffffffffffffffffffffffffffffff1690602001909190803573ffffffffffffffffffffffffffffffffffffffff16906020019091908035600019169060200190919050506103d8565b60405180826bffffffffffffffffffffffff166bffffffffffffffffffffffff16815260200191505060405180910390f35b341561012857600080fd5b610130610494565b604051808273ffffffffffffffffffffffffffffffffffffffff1673ffffffffffffffffffffffffffffffffffffffff16815260200191505060405180910390f35b341561017d57600080fd5b6101d5600480803573ffffffffffffffffffffffffffffffffffffffff1690602001909190803573ffffffffffffffffffffffffffffffffffffffff16906020019091908035600019169060200190919050506104b9565b604051808267ffffffffffffffff1667ffffffffffffffff16815260200191505060405180910390f35b341561020a57600080fd5b610262600480803573ffffffffffffffffffffffffffffffffffffffff1690602001909190803573ffffffffffffffffffffffffffffffffffffffff1690602001909190803560001916906020019091905050610571565b60405180826bffffffffffffffffffffffff166bffffffffffffffffffffffff16815260200191505060405180910390f35b341561029f57600080fd5b6102f7600480803573ffffffffffffffffffffffffffffffffffffffff1690602001909190803573ffffffffffffffffffffffffffffffffffffffff169060200190919080356000191690602001909190505061062d565b005b341561030457600080fd5b610330600480803573ffffffffffffffffffffffffffffffffffffffff16906020019091905050610723565b005b341561033d57600080fd5b6103d6600480803573ffffffffffffffffffffffffffffffffffffffff1690602001909190803573ffffffffffffffffffffffffffffffffffffffff169060200190919080356000191690602001909190803567ffffffffffffffff169060200190919080356bffffffffffffffffffffffff169060200190919080356bffffffffffffffffffffffff16906020019091905050610878565b005b6000600160008573ffffffffffffffffffffffffffffffffffffffff1673ffffffffffffffffffffffffffffffffffffffff16815260200190815260200160002060008473ffffffffffffffffffffffffffffffffffffffff1673ffffffffffffffffffffffffffffffffffffffff1681526020019081526020016000206000836000191660001916815260200190815260200160002060000160089054906101000a90046bffffffffffffffffffffffff1690509392505050565b6000809054906101000a900473ffffffffffffffffffffffffffffffffffffffff1681565b6000600160008573ffffffffffffffffffffffffffffffffffffffff1673ffffffffffffffffffffffffffffffffffffffff16815260200190815260200160002060008473ffffffffffffffffffffffffffffffffffffffff1673ffffffffffffffffffffffffffffffffffffffff1681526020019081526020016000206000836000191660001916815260200190815260200160002060000160009054906101000a900467ffffffffffffffff1690509392505050565b6000600160008573ffffffffffffffffffffffffffffffffffffffff1673ffffffffffffffffffffffffffffffffffffffff16815260200190815260200160002060008473ffffffffffffffffffffffffffffffffffffffff1673ffffffffffffffffffffffffffffffffffffffff1681526020019081526020016000206000836000191660001916815260200190815260200160002060000160149054906101000a90046bffffffffffffffffffffffff1690509392505050565b600160008473ffffffffffffffffffffffffffffffffffffffff1673ffffffffffffffffffffffffffffffffffffffff16815260200190815260200160002060008373ffffffffffffffffffffffffffffffffffffffff1673ffffffffffffffffffffffffffffffffffffffff16815260200190815260200160002060008260001916600019168152602001908152602001600020600080820160006101000a81549067ffffffffffffffff02191690556000820160086101000a8154906bffffffffffffffffffffffff02191690556000820160146101000a8154906bffffffffffffffffffffffff02191690555050505050565b6000809054906101000a900473ffffffffffffffffffffffffffffffffffffffff1673ffffffffffffffffffffffffffffffffffffffff163373ffffffffffffffffffffffffffffffffffffffff1614151561077e57600080fd5b600073ffffffffffffffffffffffffffffffffffffffff168173ffffffffffffffffffffffffffffffffffffffff16141515156107ba57600080fd5b8073ffffffffffffffffffffffffffffffffffffffff166000809054906101000a900473ffffffffffffffffffffffffffffffffffffffff1673ffffffffffffffffffffffffffffffffffffffff167f8be0079c531659141344cd1fd0a4f28419497f9722a3daafe3b4186f6b6457e060405160405180910390a3806000806101000a81548173ffffffffffffffffffffffffffffffffffffffff021916908373ffffffffffffffffffffffffffffffffffffffff16021790555050565b6060604051908101604052808467ffffffffffffffff168152602001836bffffffffffffffffffffffff168152602001826bffffffffffffffffffffffff16815250600160008873ffffffffffffffffffffffffffffffffffffffff1673ffffffffffffffffffffffffffffffffffffffff16815260200190815260200160002060008773ffffffffffffffffffffffffffffffffffffffff1673ffffffffffffffffffffffffffffffffffffffff1681526020019081526020016000206000866000191660001916815260200190815260200160002060008201518160000160006101000a81548167ffffffffffffffff021916908367ffffffffffffffff16021790555060208201518160000160086101000a8154816bffffffffffffffffffffffff02191690836bffffffffffffffffffffffff16021790555060408201518160000160146101000a8154816bffffffffffffffffffffffff02191690836bffffffffffffffffffffffff1602179055509050505050505050505600a165627a7a723058204daeee6bf2e7b935d7826da9aaefedd4517d27d8d1bd3c36124d5f0c735d6ffe0029",
  "source": "pragma solidity ^0.4.19;\n\nimport \"../lib/Ownable.sol\";\n\ncontract ArbiterStorage is Ownable {\n\n    // Each subscription is represented as the following\n    struct Subscription {\n        uint64 dots;          // Cost in dots\n        uint96 blockStart;    // Block number subscription was initiated\n        uint96 preBlockEnd;   // Precalculated block end\n    }\n    \n    // providerAddress => subscriberAddress => endpoint => Subscription\n    mapping(address => mapping(address => mapping(bytes32 => Subscription))) private subscriptions;\n\n    /**** Get Methods ****/\n\n    function getDots(\n        address providerAddress,\n        address subscriberAddress,\n        bytes32 endpoint\n    )\n        external\n        view\n        returns (uint64)\n    {\n        return subscriptions[providerAddress][subscriberAddress][endpoint].dots;\n    }\n\n    function getBlockStart(\n        address providerAddress,\n        address subscriberAddress,\n        bytes32 endpoint\n    )\n        external\n        view\n        returns (uint96)\n    {\n        return subscriptions[providerAddress][subscriberAddress][endpoint].blockStart;\n    }\n\n    function getPreBlockEnd(\n        address providerAddress,\n        address subscriberAddress,\n        bytes32 endpoint\n    )\n        external\n        view\n        returns (uint96)\n    {\n        return subscriptions[providerAddress][subscriberAddress][endpoint].preBlockEnd;\n    }\n\n\t/**** Set Methods ****/\n\n    function setSubscription(\n        address providerAddress,\n        address subscriberAddress,\n        bytes32 endpoint,\n        uint64 dots,\n        uint96 blockStart,\n        uint96 preBlockEnd\n    )\n        external\n    {\n        subscriptions[providerAddress][subscriberAddress][endpoint] = Subscription(\n            dots,\n            blockStart,\n            preBlockEnd\n        );\n    }\n\n    /**** Delete Methods ****/\n\n    function deleteSubscription(\n        address providerAddress,\n        address subscriberAddress,\n        bytes32 endpoint\n    )\n        external\n    {\n        delete subscriptions[providerAddress][subscriberAddress][endpoint];\n    }\n}\n",
  "sourcePath": "/Users/derain/Projects/ZapContracts/contracts/arbiter/ArbiterStorage.sol",
  "compiler": {
    "name": "solc",
    "version": "0.4.19+commit.c4cbbb05.Emscripten.clang"
  },
  "schemaVersion": "2.0.0",
  "updatedAt": "2018-05-15T10:07:26.312Z"
}