{
  "contractName": "Bondage",
  "abi": [
    {
      "constant": true,
      "inputs": [],
      "name": "arbiterAddress",
      "outputs": [
        {
          "name": "",
          "type": "address"
        }
      ],
      "payable": false,
      "stateMutability": "view",
      "type": "function"
    },
    {
      "constant": true,
      "inputs": [],
      "name": "storageAddress",
      "outputs": [
        {
          "name": "",
          "type": "address"
        }
      ],
      "payable": false,
      "stateMutability": "view",
      "type": "function"
    },
    {
      "constant": true,
      "inputs": [],
      "name": "owner",
      "outputs": [
        {
          "name": "",
          "type": "address"
        }
      ],
      "payable": false,
      "stateMutability": "view",
      "type": "function"
    },
    {
      "constant": false,
      "inputs": [],
      "name": "selfDestruct",
      "outputs": [],
      "payable": false,
      "stateMutability": "nonpayable",
      "type": "function"
    },
    {
      "constant": false,
      "inputs": [
        {
          "name": "newOwner",
          "type": "address"
        }
      ],
      "name": "transferOwnership",
      "outputs": [],
      "payable": false,
      "stateMutability": "nonpayable",
      "type": "function"
    },
    {
      "constant": true,
      "inputs": [],
      "name": "dispatchAddress",
      "outputs": [
        {
          "name": "",
          "type": "address"
        }
      ],
      "payable": false,
      "stateMutability": "view",
      "type": "function"
    },
    {
      "inputs": [
        {
          "name": "storageAddress",
          "type": "address"
        },
        {
          "name": "tokenAddress",
          "type": "address"
        },
        {
          "name": "currentCostAddress",
          "type": "address"
        }
      ],
      "payable": false,
      "stateMutability": "nonpayable",
      "type": "constructor"
    },
    {
      "anonymous": false,
      "inputs": [
        {
          "indexed": true,
          "name": "holder",
          "type": "address"
        },
        {
          "indexed": true,
          "name": "oracle",
          "type": "address"
        },
        {
          "indexed": true,
          "name": "endpoint",
          "type": "bytes32"
        },
        {
          "indexed": false,
          "name": "numZap",
          "type": "uint256"
        }
      ],
      "name": "Bound",
      "type": "event"
    },
    {
      "anonymous": false,
      "inputs": [
        {
          "indexed": true,
          "name": "holder",
          "type": "address"
        },
        {
          "indexed": true,
          "name": "oracle",
          "type": "address"
        },
        {
          "indexed": true,
          "name": "endpoint",
          "type": "bytes32"
        },
        {
          "indexed": false,
          "name": "numDots",
          "type": "uint256"
        }
      ],
      "name": "Unbound",
      "type": "event"
    },
    {
      "anonymous": false,
      "inputs": [
        {
          "indexed": true,
          "name": "holder",
          "type": "address"
        },
        {
          "indexed": true,
          "name": "oracle",
          "type": "address"
        },
        {
          "indexed": true,
          "name": "endpoint",
          "type": "bytes32"
        },
        {
          "indexed": false,
          "name": "numDots",
          "type": "uint256"
        }
      ],
      "name": "Escrowed",
      "type": "event"
    },
    {
      "anonymous": false,
      "inputs": [
        {
          "indexed": true,
          "name": "holder",
          "type": "address"
        },
        {
          "indexed": true,
          "name": "oracle",
          "type": "address"
        },
        {
          "indexed": true,
          "name": "endpoint",
          "type": "bytes32"
        },
        {
          "indexed": false,
          "name": "numDots",
          "type": "uint256"
        }
      ],
      "name": "Released",
      "type": "event"
    },
    {
      "anonymous": false,
      "inputs": [
        {
          "indexed": true,
          "name": "previousOwner",
          "type": "address"
        },
        {
          "indexed": true,
          "name": "newOwner",
          "type": "address"
        }
      ],
      "name": "OwnershipTransferred",
      "type": "event"
    },
    {
      "constant": false,
      "inputs": [
        {
          "name": "_arbiterAddress",
          "type": "address"
        }
      ],
      "name": "setArbiterAddress",
      "outputs": [],
      "payable": false,
      "stateMutability": "nonpayable",
      "type": "function"
    },
    {
      "constant": false,
      "inputs": [
        {
          "name": "_dispatchAddress",
          "type": "address"
        }
      ],
      "name": "setDispatchAddress",
      "outputs": [],
      "payable": false,
      "stateMutability": "nonpayable",
      "type": "function"
    },
    {
      "constant": false,
      "inputs": [
        {
          "name": "currentCostAddress",
          "type": "address"
        }
      ],
      "name": "setCurrentCostAddress",
      "outputs": [],
      "payable": false,
      "stateMutability": "nonpayable",
      "type": "function"
    },
    {
      "constant": false,
      "inputs": [
        {
          "name": "oracleAddress",
          "type": "address"
        },
        {
          "name": "endpoint",
          "type": "bytes32"
        },
        {
          "name": "numZap",
          "type": "uint256"
        }
      ],
      "name": "bond",
      "outputs": [
        {
          "name": "bound",
          "type": "uint256"
        }
      ],
      "payable": false,
      "stateMutability": "nonpayable",
      "type": "function"
    },
    {
      "constant": false,
      "inputs": [
        {
          "name": "oracleAddress",
          "type": "address"
        },
        {
          "name": "endpoint",
          "type": "bytes32"
        },
        {
          "name": "numDots",
          "type": "uint256"
        }
      ],
      "name": "unbond",
      "outputs": [
        {
          "name": "unbound",
          "type": "uint256"
        }
      ],
      "payable": false,
      "stateMutability": "nonpayable",
      "type": "function"
    },
    {
      "constant": false,
      "inputs": [
        {
          "name": "holderAddress",
          "type": "address"
        },
        {
          "name": "oracleAddress",
          "type": "address"
        },
        {
          "name": "endpoint",
          "type": "bytes32"
        },
        {
          "name": "numZap",
          "type": "uint256"
        }
      ],
      "name": "delegateBond",
      "outputs": [
        {
          "name": "bound",
          "type": "uint256"
        }
      ],
      "payable": false,
      "stateMutability": "nonpayable",
      "type": "function"
    },
    {
      "constant": false,
      "inputs": [
        {
          "name": "holderAddress",
          "type": "address"
        },
        {
          "name": "oracleAddress",
          "type": "address"
        },
        {
          "name": "endpoint",
          "type": "bytes32"
        },
        {
          "name": "numDots",
          "type": "uint256"
        }
      ],
      "name": "delegateUnbond",
      "outputs": [
        {
          "name": "unbound",
          "type": "uint256"
        }
      ],
      "payable": false,
      "stateMutability": "nonpayable",
      "type": "function"
    },
    {
      "constant": false,
      "inputs": [
        {
          "name": "oracleAddress",
          "type": "address"
        }
      ],
      "name": "resetDelegate",
      "outputs": [],
      "payable": false,
      "stateMutability": "nonpayable",
      "type": "function"
    },
    {
      "constant": false,
      "inputs": [
        {
          "name": "holderAddress",
          "type": "address"
        },
        {
          "name": "oracleAddress",
          "type": "address"
        },
        {
          "name": "endpoint",
          "type": "bytes32"
        },
        {
          "name": "numDots",
          "type": "uint256"
        }
      ],
      "name": "escrowDots",
      "outputs": [
        {
          "name": "success",
          "type": "bool"
        }
      ],
      "payable": false,
      "stateMutability": "nonpayable",
      "type": "function"
    },
    {
      "constant": false,
      "inputs": [
        {
          "name": "holderAddress",
          "type": "address"
        },
        {
          "name": "oracleAddress",
          "type": "address"
        },
        {
          "name": "endpoint",
          "type": "bytes32"
        },
        {
          "name": "numDots",
          "type": "uint256"
        }
      ],
      "name": "releaseDots",
      "outputs": [
        {
          "name": "success",
          "type": "bool"
        }
      ],
      "payable": false,
      "stateMutability": "nonpayable",
      "type": "function"
    },
    {
      "constant": true,
      "inputs": [
        {
          "name": "oracleAddress",
          "type": "address"
        },
        {
          "name": "endpoint",
          "type": "bytes32"
        },
        {
          "name": "numDots",
          "type": "uint256"
        }
      ],
      "name": "calcZapForDots",
      "outputs": [
        {
          "name": "numZap",
          "type": "uint256"
        }
      ],
      "payable": false,
      "stateMutability": "view",
      "type": "function"
    },
    {
      "constant": true,
      "inputs": [
        {
          "name": "oracleAddress",
          "type": "address"
        },
        {
          "name": "endpoint",
          "type": "bytes32"
        },
        {
          "name": "numZap",
          "type": "uint256"
        }
      ],
      "name": "calcBondRate",
      "outputs": [
        {
          "name": "maxNumZap",
          "type": "uint256"
        },
        {
          "name": "numDots",
          "type": "uint256"
        }
      ],
      "payable": false,
      "stateMutability": "view",
      "type": "function"
    },
    {
      "constant": true,
      "inputs": [
        {
          "name": "oracleAddress",
          "type": "address"
        },
        {
          "name": "endpoint",
          "type": "bytes32"
        },
        {
          "name": "totalBound",
          "type": "uint256"
        }
      ],
      "name": "currentCostOfDot",
      "outputs": [
        {
          "name": "cost",
          "type": "uint256"
        }
      ],
      "payable": false,
      "stateMutability": "view",
      "type": "function"
    },
    {
      "constant": true,
      "inputs": [
        {
          "name": "oracleAddress",
          "type": "address"
        },
        {
          "name": "endpoint",
          "type": "bytes32"
        }
      ],
      "name": "getDotsIssued",
      "outputs": [
        {
          "name": "dots",
          "type": "uint256"
        }
      ],
      "payable": false,
      "stateMutability": "view",
      "type": "function"
    },
    {
      "constant": true,
      "inputs": [
        {
          "name": "holderAddress",
          "type": "address"
        },
        {
          "name": "oracleAddress",
          "type": "address"
        },
        {
          "name": "endpoint",
          "type": "bytes32"
        }
      ],
      "name": "getBoundDots",
      "outputs": [
        {
          "name": "dots",
          "type": "uint256"
        }
      ],
      "payable": false,
      "stateMutability": "view",
      "type": "function"
    },
    {
      "constant": true,
      "inputs": [
        {
          "name": "oracleAddress",
          "type": "address"
        },
        {
          "name": "endpoint",
          "type": "bytes32"
        }
      ],
      "name": "getZapBound",
      "outputs": [
        {
          "name": "",
          "type": "uint256"
        }
      ],
      "payable": false,
      "stateMutability": "view",
      "type": "function"
    }
  ],
  "bytecode": "0x6060604052670de0b6b3a7640000600455341561001b57600080fd5b6040516060806130e683398101604052808051906020019091908051906020019091908051906020019091905050336000806101000a81548173ffffffffffffffffffffffffffffffffffffffff021916908373ffffffffffffffffffffffffffffffffffffffff16021790555082600160006101000a81548173ffffffffffffffffffffffffffffffffffffffff021916908373ffffffffffffffffffffffffffffffffffffffff16021790555081600360006101000a81548173ffffffffffffffffffffffffffffffffffffffff021916908373ffffffffffffffffffffffffffffffffffffffff16021790555080600260006101000a81548173ffffffffffffffffffffffffffffffffffffffff021916908373ffffffffffffffffffffffffffffffffffffffff160217905550505050612f888061015e6000396000f300606060405260043610610128576000357c0100000000000000000000000000000000000000000000000000000000900463ffffffff16806301139b791461012d57806302d93162146101665780630cf13010146101e857806316614c981461022157806319ec825c146102a75780631d7b5e22146103015780633b058aa71461035b578063456e2d7a146103e15780635d7993061461041a57806385aa92a71461046f5780638da5cb5b146104c457806399275cc7146105195780639cb8a26a1461057c578063a06fe77514610591578063b44efd8f146105f4578063b6105f151461062d578063bbee369414610690578063ca01fed514610709578063cbdaf0c81461078b578063ec8e2dd7146107ee578063f2fde38b14610858578063f528c94914610891575b600080fd5b341561013857600080fd5b610164600480803573ffffffffffffffffffffffffffffffffffffffff169060200190919050506108e6565b005b341561017157600080fd5b6101d2600480803573ffffffffffffffffffffffffffffffffffffffff1690602001909190803573ffffffffffffffffffffffffffffffffffffffff16906020019091908035600019169060200190919080359060200190919050506109ed565b6040518082815260200191505060405180910390f35b34156101f357600080fd5b61021f600480803573ffffffffffffffffffffffffffffffffffffffff16906020019091905050610bbc565b005b341561022c57600080fd5b61028d600480803573ffffffffffffffffffffffffffffffffffffffff1690602001909190803573ffffffffffffffffffffffffffffffffffffffff1690602001909190803560001916906020019091908035906020019091905050610c5b565b604051808215151515815260200191505060405180910390f35b34156102b257600080fd5b6102eb600480803573ffffffffffffffffffffffffffffffffffffffff169060200190919080356000191690602001909190505061102b565b6040518082815260200191505060405180910390f35b341561030c57600080fd5b610345600480803573ffffffffffffffffffffffffffffffffffffffff1690602001909190803560001916906020019091905050611125565b6040518082815260200191505060405180910390f35b341561036657600080fd5b6103c7600480803573ffffffffffffffffffffffffffffffffffffffff1690602001909190803573ffffffffffffffffffffffffffffffffffffffff169060200190919080356000191690602001909190803590602001909190505061121f565b604051808215151515815260200191505060405180910390f35b34156103ec57600080fd5b610418600480803573ffffffffffffffffffffffffffffffffffffffff16906020019091905050611708565b005b341561042557600080fd5b61042d6117a7565b604051808273ffffffffffffffffffffffffffffffffffffffff1673ffffffffffffffffffffffffffffffffffffffff16815260200191505060405180910390f35b341561047a57600080fd5b6104826117cd565b604051808273ffffffffffffffffffffffffffffffffffffffff1673ffffffffffffffffffffffffffffffffffffffff16815260200191505060405180910390f35b34156104cf57600080fd5b6104d76117f3565b604051808273ffffffffffffffffffffffffffffffffffffffff1673ffffffffffffffffffffffffffffffffffffffff16815260200191505060405180910390f35b341561052457600080fd5b610566600480803573ffffffffffffffffffffffffffffffffffffffff1690602001909190803560001916906020019091908035906020019091905050611818565b6040518082815260200191505060405180910390f35b341561058757600080fd5b61058f611899565b005b341561059c57600080fd5b6105de600480803573ffffffffffffffffffffffffffffffffffffffff169060200190919080356000191690602001909190803590602001909190505061192e565b6040518082815260200191505060405180910390f35b34156105ff57600080fd5b61062b600480803573ffffffffffffffffffffffffffffffffffffffff169060200190919050506119af565b005b341561063857600080fd5b61067a600480803573ffffffffffffffffffffffffffffffffffffffff1690602001909190803560001916906020019091908035906020019091905050611a4e565b6040518082815260200191505060405180910390f35b341561069b57600080fd5b6106f3600480803573ffffffffffffffffffffffffffffffffffffffff1690602001909190803573ffffffffffffffffffffffffffffffffffffffff1690602001909190803560001916906020019091905050611a90565b6040518082815260200191505060405180910390f35b341561071457600080fd5b610775600480803573ffffffffffffffffffffffffffffffffffffffff1690602001909190803573ffffffffffffffffffffffffffffffffffffffff1690602001909190803560001916906020019091908035906020019091905050611bbf565b6040518082815260200191505060405180910390f35b341561079657600080fd5b6107d8600480803573ffffffffffffffffffffffffffffffffffffffff1690602001909190803560001916906020019091908035906020019091905050611eb0565b6040518082815260200191505060405180910390f35b34156107f957600080fd5b61083b600480803573ffffffffffffffffffffffffffffffffffffffff1690602001909190803560001916906020019091908035906020019091905050611fb3565b604051808381526020018281526020019250505060405180910390f35b341561086357600080fd5b61088f600480803573ffffffffffffffffffffffffffffffffffffffff16906020019091905050612029565b005b341561089c57600080fd5b6108a461217e565b604051808273ffffffffffffffffffffffffffffffffffffffff1673ffffffffffffffffffffffffffffffffffffffff16815260200191505060405180910390f35b600160009054906101000a900473ffffffffffffffffffffffffffffffffffffffff1673ffffffffffffffffffffffffffffffffffffffff16634101f89b33836040518363ffffffff167c0100000000000000000000000000000000000000000000000000000000028152600401808373ffffffffffffffffffffffffffffffffffffffff1673ffffffffffffffffffffffffffffffffffffffff1681526020018273ffffffffffffffffffffffffffffffffffffffff1673ffffffffffffffffffffffffffffffffffffffff16815260200192505050600060405180830381600087803b15156109d657600080fd5b6102c65a03f115156109e757600080fd5b50505050565b60003373ffffffffffffffffffffffffffffffffffffffff16600160009054906101000a900473ffffffffffffffffffffffffffffffffffffffff1673ffffffffffffffffffffffffffffffffffffffff166327bb01b187876000604051602001526040518363ffffffff167c0100000000000000000000000000000000000000000000000000000000028152600401808373ffffffffffffffffffffffffffffffffffffffff1673ffffffffffffffffffffffffffffffffffffffff1681526020018273ffffffffffffffffffffffffffffffffffffffff1673ffffffffffffffffffffffffffffffffffffffff16815260200192505050602060405180830381600087803b1515610aff57600080fd5b6102c65a03f11515610b1057600080fd5b5050506040518051905073ffffffffffffffffffffffffffffffffffffffff16141515610b3c57600080fd5b610b48858585856121a4565b905082600019168473ffffffffffffffffffffffffffffffffffffffff168673ffffffffffffffffffffffffffffffffffffffff167f60b9c649cd4eb0d02bcdc2d69fd86d12022c0bf7ff8aa61e5ac0bc121fc3cac0856040518082815260200191505060405180910390a4949350505050565b6000809054906101000a900473ffffffffffffffffffffffffffffffffffffffff1673ffffffffffffffffffffffffffffffffffffffff163373ffffffffffffffffffffffffffffffffffffffff16141515610c1757600080fd5b80600660006101000a81548173ffffffffffffffffffffffffffffffffffffffff021916908373ffffffffffffffffffffffffffffffffffffffff16021790555050565b6000806000600660009054906101000a900473ffffffffffffffffffffffffffffffffffffffff1673ffffffffffffffffffffffffffffffffffffffff163373ffffffffffffffffffffffffffffffffffffffff161480610d095750600760009054906101000a900473ffffffffffffffffffffffffffffffffffffffff1673ffffffffffffffffffffffffffffffffffffffff163373ffffffffffffffffffffffffffffffffffffffff16145b1561102157610d19878787611a90565b915083905081841115610d2a578190505b600160009054906101000a900473ffffffffffffffffffffffffffffffffffffffff1673ffffffffffffffffffffffffffffffffffffffff1663eef0e6b9888888856040518563ffffffff167c0100000000000000000000000000000000000000000000000000000000028152600401808573ffffffffffffffffffffffffffffffffffffffff1673ffffffffffffffffffffffffffffffffffffffff1681526020018473ffffffffffffffffffffffffffffffffffffffff1673ffffffffffffffffffffffffffffffffffffffff1681526020018360001916600019168152602001828152602001807f7375620000000000000000000000000000000000000000000000000000000000815250602001945050505050600060405180830381600087803b1515610e5a57600080fd5b6102c65a03f11515610e6b57600080fd5b505050600160009054906101000a900473ffffffffffffffffffffffffffffffffffffffff1673ffffffffffffffffffffffffffffffffffffffff1663875681cb888888856040518563ffffffff167c0100000000000000000000000000000000000000000000000000000000028152600401808573ffffffffffffffffffffffffffffffffffffffff1673ffffffffffffffffffffffffffffffffffffffff1681526020018473ffffffffffffffffffffffffffffffffffffffff1673ffffffffffffffffffffffffffffffffffffffff1681526020018360001916600019168152602001828152602001807f6164640000000000000000000000000000000000000000000000000000000000815250602001945050505050600060405180830381600087803b1515610f9e57600080fd5b6102c65a03f11515610faf57600080fd5b50505084600019168673ffffffffffffffffffffffffffffffffffffffff168873ffffffffffffffffffffffffffffffffffffffff167f2738c9bd1693cadc7b4fabefd6467b42f901650c7401bad1076dbc984f4b15d0846040518082815260200191505060405180910390a4600192505b5050949350505050565b6000600160009054906101000a900473ffffffffffffffffffffffffffffffffffffffff1673ffffffffffffffffffffffffffffffffffffffff16633fe7968584846000604051602001526040518363ffffffff167c0100000000000000000000000000000000000000000000000000000000028152600401808373ffffffffffffffffffffffffffffffffffffffff1673ffffffffffffffffffffffffffffffffffffffff168152602001826000191660001916815260200192505050602060405180830381600087803b151561110257600080fd5b6102c65a03f1151561111357600080fd5b50505060405180519050905092915050565b6000600160009054906101000a900473ffffffffffffffffffffffffffffffffffffffff1673ffffffffffffffffffffffffffffffffffffffff16631d7b5e2284846000604051602001526040518363ffffffff167c0100000000000000000000000000000000000000000000000000000000028152600401808373ffffffffffffffffffffffffffffffffffffffff1673ffffffffffffffffffffffffffffffffffffffff168152602001826000191660001916815260200192505050602060405180830381600087803b15156111fc57600080fd5b6102c65a03f1151561120d57600080fd5b50505060405180519050905092915050565b6000806000600660009054906101000a900473ffffffffffffffffffffffffffffffffffffffff1673ffffffffffffffffffffffffffffffffffffffff163373ffffffffffffffffffffffffffffffffffffffff1614806112cd5750600760009054906101000a900473ffffffffffffffffffffffffffffffffffffffff1673ffffffffffffffffffffffffffffffffffffffff163373ffffffffffffffffffffffffffffffffffffffff16145b156116fe57600160009054906101000a900473ffffffffffffffffffffffffffffffffffffffff1673ffffffffffffffffffffffffffffffffffffffff16637a68c23a8888886000604051602001526040518463ffffffff167c0100000000000000000000000000000000000000000000000000000000028152600401808473ffffffffffffffffffffffffffffffffffffffff1673ffffffffffffffffffffffffffffffffffffffff1681526020018373ffffffffffffffffffffffffffffffffffffffff1673ffffffffffffffffffffffffffffffffffffffff16815260200182600019166000191681526020019350505050602060405180830381600087803b15156113db57600080fd5b6102c65a03f115156113ec57600080fd5b50505060405180519050915083905081841115611407578190505b600160009054906101000a900473ffffffffffffffffffffffffffffffffffffffff1673ffffffffffffffffffffffffffffffffffffffff1663875681cb888888856040518563ffffffff167c0100000000000000000000000000000000000000000000000000000000028152600401808573ffffffffffffffffffffffffffffffffffffffff1673ffffffffffffffffffffffffffffffffffffffff1681526020018473ffffffffffffffffffffffffffffffffffffffff1673ffffffffffffffffffffffffffffffffffffffff1681526020018360001916600019168152602001828152602001807f7375620000000000000000000000000000000000000000000000000000000000815250602001945050505050600060405180830381600087803b151561153757600080fd5b6102c65a03f1151561154857600080fd5b505050600160009054906101000a900473ffffffffffffffffffffffffffffffffffffffff1673ffffffffffffffffffffffffffffffffffffffff1663eef0e6b9878888856040518563ffffffff167c0100000000000000000000000000000000000000000000000000000000028152600401808573ffffffffffffffffffffffffffffffffffffffff1673ffffffffffffffffffffffffffffffffffffffff1681526020018473ffffffffffffffffffffffffffffffffffffffff1673ffffffffffffffffffffffffffffffffffffffff1681526020018360001916600019168152602001828152602001807f6164640000000000000000000000000000000000000000000000000000000000815250602001945050505050600060405180830381600087803b151561167b57600080fd5b6102c65a03f1151561168c57600080fd5b50505084600019168673ffffffffffffffffffffffffffffffffffffffff168873ffffffffffffffffffffffffffffffffffffffff167f2afa253d0464d87b039f71a6964ed5c028a3a3c68048d909fbee4b1610756e79846040518082815260200191505060405180910390a4600192505b5050949350505050565b6000809054906101000a900473ffffffffffffffffffffffffffffffffffffffff1673ffffffffffffffffffffffffffffffffffffffff163373ffffffffffffffffffffffffffffffffffffffff1614151561176357600080fd5b80600260006101000a81548173ffffffffffffffffffffffffffffffffffffffff021916908373ffffffffffffffffffffffffffffffffffffffff16021790555050565b600660009054906101000a900473ffffffffffffffffffffffffffffffffffffffff1681565b600560009054906101000a900473ffffffffffffffffffffffffffffffffffffffff1681565b6000809054906101000a900473ffffffffffffffffffffffffffffffffffffffff1681565b60006118263385858561278a565b905082600019168473ffffffffffffffffffffffffffffffffffffffff163373ffffffffffffffffffffffffffffffffffffffff167fef114d122b9a683eb6f1ebcad0621a0dfbad49e98f1b38df9fd59dfda29e9ebb856040518082815260200191505060405180910390a49392505050565b6000809054906101000a900473ffffffffffffffffffffffffffffffffffffffff1673ffffffffffffffffffffffffffffffffffffffff163373ffffffffffffffffffffffffffffffffffffffff161415156118f457600080fd5b6000809054906101000a900473ffffffffffffffffffffffffffffffffffffffff1673ffffffffffffffffffffffffffffffffffffffff16ff5b600061193c338585856121a4565b905082600019168473ffffffffffffffffffffffffffffffffffffffff163373ffffffffffffffffffffffffffffffffffffffff167f60b9c649cd4eb0d02bcdc2d69fd86d12022c0bf7ff8aa61e5ac0bc121fc3cac0856040518082815260200191505060405180910390a49392505050565b6000809054906101000a900473ffffffffffffffffffffffffffffffffffffffff1673ffffffffffffffffffffffffffffffffffffffff163373ffffffffffffffffffffffffffffffffffffffff16141515611a0a57600080fd5b80600760006101000a81548173ffffffffffffffffffffffffffffffffffffffff021916908373ffffffffffffffffffffffffffffffffffffffff16021790555050565b600080600090505b82811015611a8557611a74858583611a6e8989611125565b01611eb0565b820191508080600101915050611a56565b819150509392505050565b6000600160009054906101000a900473ffffffffffffffffffffffffffffffffffffffff1673ffffffffffffffffffffffffffffffffffffffff1663bbee36948585856000604051602001526040518463ffffffff167c0100000000000000000000000000000000000000000000000000000000028152600401808473ffffffffffffffffffffffffffffffffffffffff1673ffffffffffffffffffffffffffffffffffffffff1681526020018373ffffffffffffffffffffffffffffffffffffffff1673ffffffffffffffffffffffffffffffffffffffff16815260200182600019166000191681526020019350505050602060405180830381600087803b1515611b9b57600080fd5b6102c65a03f11515611bac57600080fd5b5050506040518051905090509392505050565b600080600160009054906101000a900473ffffffffffffffffffffffffffffffffffffffff1673ffffffffffffffffffffffffffffffffffffffff166327bb01b187876000604051602001526040518363ffffffff167c0100000000000000000000000000000000000000000000000000000000028152600401808373ffffffffffffffffffffffffffffffffffffffff1673ffffffffffffffffffffffffffffffffffffffff1681526020018273ffffffffffffffffffffffffffffffffffffffff1673ffffffffffffffffffffffffffffffffffffffff16815260200192505050602060405180830381600087803b1515611cbb57600080fd5b6102c65a03f11515611ccc57600080fd5b5050506040518051905073ffffffffffffffffffffffffffffffffffffffff16141515611cf857600080fd5b600160009054906101000a900473ffffffffffffffffffffffffffffffffffffffff1673ffffffffffffffffffffffffffffffffffffffff1663d63b5cde8686336040518463ffffffff167c0100000000000000000000000000000000000000000000000000000000028152600401808473ffffffffffffffffffffffffffffffffffffffff1673ffffffffffffffffffffffffffffffffffffffff1681526020018373ffffffffffffffffffffffffffffffffffffffff1673ffffffffffffffffffffffffffffffffffffffff1681526020018273ffffffffffffffffffffffffffffffffffffffff1673ffffffffffffffffffffffffffffffffffffffff1681526020019350505050600060405180830381600087803b1515611e1c57600080fd5b6102c65a03f11515611e2d57600080fd5b505050611e3c8585858561278a565b905082600019168473ffffffffffffffffffffffffffffffffffffffff168673ffffffffffffffffffffffffffffffffffffffff167fef114d122b9a683eb6f1ebcad0621a0dfbad49e98f1b38df9fd59dfda29e9ebb856040518082815260200191505060405180910390a4949350505050565b6000600260009054906101000a900473ffffffffffffffffffffffffffffffffffffffff1673ffffffffffffffffffffffffffffffffffffffff1663ecca1fad8585856000604051602001526040518463ffffffff167c0100000000000000000000000000000000000000000000000000000000028152600401808473ffffffffffffffffffffffffffffffffffffffff1673ffffffffffffffffffffffffffffffffffffffff16815260200183600019166000191681526020018281526020019350505050602060405180830381600087803b1515611f8f57600080fd5b6102c65a03f11515611fa057600080fd5b5050506040518051905090509392505050565b60008060008060045491506103e8851115611fce576103e894505b5b8183101561201957611fed878785611fe78b8b611125565b01611eb0565b90508085101515612007578085039450808401935061200c565b612019565b8280600101935050611fcf565b8383935093505050935093915050565b6000809054906101000a900473ffffffffffffffffffffffffffffffffffffffff1673ffffffffffffffffffffffffffffffffffffffff163373ffffffffffffffffffffffffffffffffffffffff1614151561208457600080fd5b600073ffffffffffffffffffffffffffffffffffffffff168173ffffffffffffffffffffffffffffffffffffffff16141515156120c057600080fd5b8073ffffffffffffffffffffffffffffffffffffffff166000809054906101000a900473ffffffffffffffffffffffffffffffffffffffff1673ffffffffffffffffffffffffffffffffffffffff167f8be0079c531659141344cd1fd0a4f28419497f9722a3daafe3b4186f6b6457e060405160405180910390a3806000806101000a81548173ffffffffffffffffffffffffffffffffffffffff021916908373ffffffffffffffffffffffffffffffffffffffff16021790555050565b600760009054906101000a900473ffffffffffffffffffffffffffffffffffffffff1681565b600080600080600160009054906101000a900473ffffffffffffffffffffffffffffffffffffffff1673ffffffffffffffffffffffffffffffffffffffff166341f1c2ac8989896000604051602001526040518463ffffffff167c0100000000000000000000000000000000000000000000000000000000028152600401808473ffffffffffffffffffffffffffffffffffffffff1673ffffffffffffffffffffffffffffffffffffffff1681526020018373ffffffffffffffffffffffffffffffffffffffff1673ffffffffffffffffffffffffffffffffffffffff16815260200182600019166000191681526020019350505050602060405180830381600087803b15156122b357600080fd5b6102c65a03f115156122c457600080fd5b5050506040518051905092508483101580156122e05750600085115b1561277a57600191505b8482101561231c57816122fd8888611125565b03905061230b878783611eb0565b8401935081806001019250506122ea565b600160009054906101000a900473ffffffffffffffffffffffffffffffffffffffff1673ffffffffffffffffffffffffffffffffffffffff166318d4d8a88888876040518463ffffffff167c0100000000000000000000000000000000000000000000000000000000028152600401808473ffffffffffffffffffffffffffffffffffffffff1673ffffffffffffffffffffffffffffffffffffffff1681526020018360001916600019168152602001828152602001807f73756200000000000000000000000000000000000000000000000000000000008152506020019350505050600060405180830381600087803b151561241857600080fd5b6102c65a03f1151561242957600080fd5b505050600160009054906101000a900473ffffffffffffffffffffffffffffffffffffffff1673ffffffffffffffffffffffffffffffffffffffff166350ddd9a28888886040518463ffffffff167c0100000000000000000000000000000000000000000000000000000000028152600401808473ffffffffffffffffffffffffffffffffffffffff1673ffffffffffffffffffffffffffffffffffffffff1681526020018360001916600019168152602001828152602001807f73756200000000000000000000000000000000000000000000000000000000008152506020019350505050600060405180830381600087803b151561252857600080fd5b6102c65a03f1151561253957600080fd5b505050600160009054906101000a900473ffffffffffffffffffffffffffffffffffffffff1673ffffffffffffffffffffffffffffffffffffffff1663eef0e6b9898989866040518563ffffffff167c0100000000000000000000000000000000000000000000000000000000028152600401808573ffffffffffffffffffffffffffffffffffffffff1673ffffffffffffffffffffffffffffffffffffffff1681526020018473ffffffffffffffffffffffffffffffffffffffff1673ffffffffffffffffffffffffffffffffffffffff1681526020018360001916600019168152602001828152602001807f7375620000000000000000000000000000000000000000000000000000000000815250602001945050505050600060405180830381600087803b151561266c57600080fd5b6102c65a03f1151561267d57600080fd5b505050600360009054906101000a900473ffffffffffffffffffffffffffffffffffffffff1673ffffffffffffffffffffffffffffffffffffffff1663a9059cbb8960045487026000604051602001526040518363ffffffff167c0100000000000000000000000000000000000000000000000000000000028152600401808373ffffffffffffffffffffffffffffffffffffffff1673ffffffffffffffffffffffffffffffffffffffff16815260200182815260200192505050602060405180830381600087803b151561275157600080fd5b6102c65a03f1151561276257600080fd5b50505060405180519050156127795783935061277f565b5b600093505b505050949350505050565b6000612797848484611fb3565b8092508193505050600160009054906101000a900473ffffffffffffffffffffffffffffffffffffffff1673ffffffffffffffffffffffffffffffffffffffff1663036459c086866000604051602001526040518363ffffffff167c0100000000000000000000000000000000000000000000000000000000028152600401808373ffffffffffffffffffffffffffffffffffffffff1673ffffffffffffffffffffffffffffffffffffffff1681526020018273ffffffffffffffffffffffffffffffffffffffff1673ffffffffffffffffffffffffffffffffffffffff16815260200192505050602060405180830381600087803b151561289857600080fd5b6102c65a03f115156128a957600080fd5b505050604051805190501515612ac257600160009054906101000a900473ffffffffffffffffffffffffffffffffffffffff1673ffffffffffffffffffffffffffffffffffffffff166372fc186786866040518363ffffffff167c0100000000000000000000000000000000000000000000000000000000028152600401808373ffffffffffffffffffffffffffffffffffffffff1673ffffffffffffffffffffffffffffffffffffffff1681526020018273ffffffffffffffffffffffffffffffffffffffff1673ffffffffffffffffffffffffffffffffffffffff16815260200192505050600060405180830381600087803b15156129a957600080fd5b6102c65a03f115156129ba57600080fd5b505050600160009054906101000a900473ffffffffffffffffffffffffffffffffffffffff1673ffffffffffffffffffffffffffffffffffffffff16636360e25186866040518363ffffffff167c0100000000000000000000000000000000000000000000000000000000028152600401808373ffffffffffffffffffffffffffffffffffffffff1673ffffffffffffffffffffffffffffffffffffffff1681526020018273ffffffffffffffffffffffffffffffffffffffff1673ffffffffffffffffffffffffffffffffffffffff16815260200192505050600060405180830381600087803b1515612aad57600080fd5b6102c65a03f11515612abe57600080fd5b5050505b600360009054906101000a900473ffffffffffffffffffffffffffffffffffffffff1673ffffffffffffffffffffffffffffffffffffffff166323b872dd333060045486026000604051602001526040518463ffffffff167c0100000000000000000000000000000000000000000000000000000000028152600401808473ffffffffffffffffffffffffffffffffffffffff1673ffffffffffffffffffffffffffffffffffffffff1681526020018373ffffffffffffffffffffffffffffffffffffffff1673ffffffffffffffffffffffffffffffffffffffff1681526020018281526020019350505050602060405180830381600087803b1515612bc757600080fd5b6102c65a03f11515612bd857600080fd5b505050604051805190501515612bed57600080fd5b600160009054906101000a900473ffffffffffffffffffffffffffffffffffffffff1673ffffffffffffffffffffffffffffffffffffffff1663eef0e6b9868686856040518563ffffffff167c0100000000000000000000000000000000000000000000000000000000028152600401808573ffffffffffffffffffffffffffffffffffffffff1673ffffffffffffffffffffffffffffffffffffffff1681526020018473ffffffffffffffffffffffffffffffffffffffff1673ffffffffffffffffffffffffffffffffffffffff1681526020018360001916600019168152602001828152602001807f6164640000000000000000000000000000000000000000000000000000000000815250602001945050505050600060405180830381600087803b1515612d1d57600080fd5b6102c65a03f11515612d2e57600080fd5b505050600160009054906101000a900473ffffffffffffffffffffffffffffffffffffffff1673ffffffffffffffffffffffffffffffffffffffff166350ddd9a28585846040518463ffffffff167c0100000000000000000000000000000000000000000000000000000000028152600401808473ffffffffffffffffffffffffffffffffffffffff1673ffffffffffffffffffffffffffffffffffffffff1681526020018360001916600019168152602001828152602001807f61646400000000000000000000000000000000000000000000000000000000008152506020019350505050600060405180830381600087803b1515612e2d57600080fd5b6102c65a03f11515612e3e57600080fd5b505050600160009054906101000a900473ffffffffffffffffffffffffffffffffffffffff1673ffffffffffffffffffffffffffffffffffffffff166318d4d8a88585856040518463ffffffff167c0100000000000000000000000000000000000000000000000000000000028152600401808473ffffffffffffffffffffffffffffffffffffffff1673ffffffffffffffffffffffffffffffffffffffff1681526020018360001916600019168152602001828152602001807f61646400000000000000000000000000000000000000000000000000000000008152506020019350505050600060405180830381600087803b1515612f3d57600080fd5b6102c65a03f11515612f4e57600080fd5b5050508090509493505050505600a165627a7a72305820873f1e94f682fdddd9e8afcb12fa2ef538c05c54dea16b3e2982f95abe0081670029",
  "source": "pragma solidity ^0.4.19;\n// v1.0\n\nimport \"../lib/Destructible.sol\";\nimport \"../lib/ERC20.sol\";\nimport \"./currentCost/CurrentCostInterface.sol\";\nimport \"./BondageStorage.sol\";\n\ncontract Bondage is Destructible {\n\n    event Bound(address indexed holder, address indexed oracle, bytes32 indexed endpoint, uint256 numZap);\n    event Unbound(address indexed holder, address indexed oracle, bytes32 indexed endpoint, uint256 numDots);\n    event Escrowed(address indexed holder, address indexed oracle, bytes32 indexed endpoint, uint256 numDots);\n    event Released(address indexed holder, address indexed oracle, bytes32 indexed endpoint, uint256 numDots);\n\n    BondageStorage stor;\n    CurrentCostInterface currentCost;\n    ERC20 token;\n    uint256 decimals = 10 ** 18;\n\n    address public storageAddress;\n    address public arbiterAddress;\n    address public dispatchAddress;\n\n    // For restricting dot escrow/transfer method calls to Dispatch and Arbiter\n    modifier operatorOnly {\n        if (msg.sender == arbiterAddress || msg.sender == dispatchAddress)\n            _;\n    }\n\n    /// @dev Initialize Storage, Token, anc CurrentCost Contracts\n    function Bondage(address storageAddress, address tokenAddress, address currentCostAddress) public {\n        stor = BondageStorage(storageAddress);\n        token = ERC20(tokenAddress); \n        currentCost = CurrentCostInterface(currentCostAddress);\n    }\n\n    /// @dev Set Arbiter address\n    /// @notice This needs to be called upon deployment and after Arbiter update\n    function setArbiterAddress(address _arbiterAddress) external onlyOwner {\n        arbiterAddress = _arbiterAddress;\n    }\n    \n    /// @dev Set Dispatch address\n    /// @notice This needs to be called upon deployment and after Dispatch update\n    function setDispatchAddress(address _dispatchAddress) external onlyOwner {\n        dispatchAddress = _dispatchAddress;\n    }\n\n    /// @notice Upgdate currentCostOfDot function (barring no interface change)\n    function setCurrentCostAddress(address currentCostAddress) public onlyOwner {\n        currentCost = CurrentCostInterface(currentCostAddress);\n    }\n\n    /// @dev will bond to an oracle\n    /// @return total ZAP bound to oracle\n    function bond(address oracleAddress, bytes32 endpoint, uint256 numZap) external returns (uint256 bound) {\n        bound = _bond(msg.sender, oracleAddress, endpoint, numZap);\n        Bound(msg.sender, oracleAddress, endpoint, numZap);\n    }\n\n    /// @return total ZAP unbound from oracle\n    function unbond(address oracleAddress, bytes32 endpoint, uint256 numDots) external returns (uint256 unbound) {\n        unbound = _unbond(msg.sender, oracleAddress, endpoint, numDots);\n        Unbound(msg.sender, oracleAddress, endpoint, numDots);\n    }        \n\n    /// @dev will bond to an oracle on behalf of some holder\n    /// @return total ZAP bound to oracle\n    function delegateBond(address holderAddress, address oracleAddress, bytes32 endpoint, uint256 numZap) external returns (uint256 bound) {\n        require(stor.getDelegate(holderAddress, oracleAddress) == 0x0);\n        stor.setDelegate(holderAddress, oracleAddress, msg.sender);\n        bound = _bond(holderAddress, oracleAddress, endpoint, numZap);\n        Bound(holderAddress, oracleAddress, endpoint, numZap);\n    }\n\n    /// @return total ZAP unbound from oracle\n    function delegateUnbond(address holderAddress, address oracleAddress, bytes32 endpoint, uint256 numDots) external returns (uint256 unbound) {\n        require(stor.getDelegate(holderAddress, oracleAddress) == msg.sender);\n        unbound = _unbond(holderAddress, oracleAddress, endpoint, numDots);\n        Unbound(holderAddress, oracleAddress, endpoint, numDots);\n    }\n\n    /// @dev will reset delegate \n    function resetDelegate(address oracleAddress) external {\n        stor.deleteDelegate(msg.sender, oracleAddress);\n    }\n\n    /// @dev Move numDots dots from provider-requester to bondage according to \n    /// data-provider address, holder address, and endpoint specifier (ala 'smart_contract')\n    /// Called only by Disptach or Arbiter Contracts\n    function escrowDots(        \n        address holderAddress,\n        address oracleAddress,\n        bytes32 endpoint,\n        uint256 numDots\n    )\n        external\n        operatorOnly        \n        returns (bool success)\n    {\n        uint256 currentDots = getBoundDots(holderAddress, oracleAddress, endpoint);\n        uint256 dotsToEscrow = numDots;\n        if (numDots > currentDots) dotsToEscrow = currentDots; \n        stor.updateBondValue(holderAddress, oracleAddress, endpoint, dotsToEscrow, \"sub\");\n        stor.updateEscrow(holderAddress, oracleAddress, endpoint, dotsToEscrow, \"add\");\n        Escrowed(holderAddress, oracleAddress, endpoint, dotsToEscrow);\n        return true;\n    }\n\n    /// @dev Transfer N dots from fromAddress to destAddress. \n    /// Called only by Disptach or Arbiter Contracts\n    /// In smart contract endpoint, occurs per satisfied request. \n    /// In socket endpoint called on termination of subscription.\n    function releaseDots(\n        address holderAddress,\n        address oracleAddress,\n        bytes32 endpoint,\n        uint256 numDots\n    )\n        external\n        operatorOnly \n        returns (bool success)\n    {\n        uint256 numEscrowed = stor.getNumEscrow(holderAddress, oracleAddress, endpoint);\n        uint256 dotsToEscrow = numDots;\n        if (numDots > numEscrowed) dotsToEscrow = numEscrowed;\n        stor.updateEscrow(holderAddress, oracleAddress, endpoint, dotsToEscrow, \"sub\");\n        stor.updateBondValue(oracleAddress, oracleAddress, endpoint, dotsToEscrow, \"add\");\n        Released(holderAddress, oracleAddress, endpoint, dotsToEscrow);\n        return true;\n    }\n\n    /// @dev Calculate quantity of tokens required for specified amount of dots\n    /// for endpoint defined by endpoint and data provider defined by oracleAddress\n    function calcZapForDots(\n        address oracleAddress,\n        bytes32 endpoint,\n        uint256 numDots       \n    ) \n        external\n        view\n        returns (uint256 numZap)\n    {\n        for (uint256 i = 0; i < numDots; i++) {\n            numZap += currentCostOfDot(                \n                oracleAddress,\n                endpoint,\n                getDotsIssued(oracleAddress, endpoint) + i\n            );\n        }\n        return numZap;\n    }\n\n    /// @dev Calculate amount of dots which could be purchased with given (numZap) ZAP tokens (max is 1000)\n    /// for endpoint specified by endpoint and data-provider address specified by oracleAddress\n    function calcBondRate(\n        address oracleAddress,\n        bytes32 endpoint,\n        uint256 numZap\n    )\n        public\n        view\n        returns (uint256 maxNumZap, uint256 numDots) \n    {\n        uint256 infinity = decimals;\n        uint256 dotCost;\n        if (numZap > 1000) numZap = 1000;\n\n        for (numDots; numDots < infinity; numDots++) {\n            dotCost = currentCostOfDot(\n                oracleAddress,\n                endpoint,\n                getDotsIssued(oracleAddress, endpoint) + numDots\n            );\n\n            if (numZap >= dotCost) {\n                numZap -= dotCost;\n                maxNumZap += dotCost;\n            } else {\n                break;\n            }\n        }\n        return (maxNumZap, numDots);\n    }\n\n    /// @dev Get the current cost of a dot.\n    /// @param endpoint specifier\n    /// @param oracleAddress data-provider\n    function currentCostOfDot(\n        address oracleAddress,\n        bytes32 endpoint,\n        uint256 totalBound\n    )\n        public\n        view\n        returns (uint256 cost)\n    {\n        return currentCost._currentCostOfDot(oracleAddress, endpoint, totalBound);\n    }\n\n    function getDotsIssued(\n        address oracleAddress,\n        bytes32 endpoint        \n    )        \n        public\n        view\n        returns (uint256 dots)\n    {\n        return stor.getDotsIssued(oracleAddress, endpoint);\n    }\n\n    function getBoundDots(        \n        address holderAddress,\n        address oracleAddress,\n        bytes32 endpoint\n    )\n        public\n        view        \n        returns (uint256 dots)\n    {\n        return stor.getBoundDots(holderAddress, oracleAddress, endpoint);\n    }\n\n    /// @return total ZAP held by contract\n    function getZapBound(address oracleAddress, bytes32 endpoint) public view returns (uint256) {\n        return stor.getNumZap(oracleAddress, endpoint);\n    }\n\n    function _bond(\n        address holderAddress,\n        address oracleAddress,\n        bytes32 endpoint,\n        uint256 numZap        \n    )\n        private\n        returns (uint256 numDots) \n    {   \n        // This also checks if oracle is registered w/an initialized curve\n        (numZap, numDots) = calcBondRate(oracleAddress, endpoint, numZap);\n\n        if (!stor.isProviderInitialized(holderAddress, oracleAddress)) {            \n            stor.setProviderInitialized(holderAddress, oracleAddress);\n            stor.addHolderOracle(holderAddress, oracleAddress);\n        }\n\n        // User must have approved contract to transfer working ZAP\n        require(token.transferFrom(msg.sender, this, numZap * decimals));\n\n        stor.updateBondValue(holderAddress, oracleAddress, endpoint, numDots, \"add\");        \n        stor.updateTotalIssued(oracleAddress, endpoint, numDots, \"add\");\n        stor.updateTotalBound(oracleAddress, endpoint, numZap, \"add\");\n\n        return numDots;\n    }\n\n    function _unbond(        \n        address holderAddress,\n        address oracleAddress,\n        bytes32 endpoint,\n        uint256 numDots\n    )\n        private\n        returns (uint256 numZap)\n    {\n        //currentDots\n        uint256 bondValue = stor.getBondValue(holderAddress, oracleAddress, endpoint);\n        if (bondValue >= numDots && numDots > 0) {\n\n            uint256 subTotal = 1;\n            uint256 dotsIssued;\n\n            for (subTotal; subTotal < numDots; subTotal++) {\n\n                dotsIssued = getDotsIssued(oracleAddress, endpoint) - subTotal;\n\n                numZap += currentCostOfDot(\n                    oracleAddress,\n                    endpoint,\n                    dotsIssued\n                ); \n            }    \n            stor.updateTotalBound(oracleAddress, endpoint, numZap, \"sub\");\n            stor.updateTotalIssued(oracleAddress, endpoint, numDots, \"sub\");\n            stor.updateBondValue(holderAddress, oracleAddress, endpoint, subTotal, \"sub\");\n\n            if(token.transfer(holderAddress, numZap * decimals))\n                return numZap;\n        }\n        return 0;\n    }\n\n}\n",
  "sourcePath": "/Users/derain/Projects/ZapContracts/contracts/bondage/Bondage.sol",
  "compiler": {
    "name": "solc",
    "version": "0.4.19+commit.c4cbbb05.Emscripten.clang"
  },
  "schemaVersion": "2.0.0",
  "updatedAt": "2018-05-15T10:07:26.333Z"
}