{
  "contractName": "Bondage",
  "abi": [
    {
      "constant": true,
      "inputs": [],
      "name": "storageAddress",
      "outputs": [
        {
          "name": "",
          "type": "address"
        }
      ],
      "payable": false,
      "stateMutability": "view",
      "type": "function"
    },
    {
      "constant": true,
      "inputs": [],
      "name": "owner",
      "outputs": [
        {
          "name": "",
          "type": "address"
        }
      ],
      "payable": false,
      "stateMutability": "view",
      "type": "function"
    },
    {
      "constant": false,
      "inputs": [],
      "name": "selfDestruct",
      "outputs": [],
      "payable": false,
      "stateMutability": "nonpayable",
      "type": "function"
    },
    {
      "constant": false,
      "inputs": [
        {
          "name": "newOwner",
          "type": "address"
        }
      ],
      "name": "transferOwnership",
      "outputs": [],
      "payable": false,
      "stateMutability": "nonpayable",
      "type": "function"
    },
    {
      "inputs": [
        {
          "name": "storageAddress",
          "type": "address"
        },
        {
          "name": "tokenAddress",
          "type": "address"
        },
        {
          "name": "currentCostAddress",
          "type": "address"
        }
      ],
      "payable": false,
      "stateMutability": "nonpayable",
      "type": "constructor"
    },
    {
      "anonymous": false,
      "inputs": [
        {
          "indexed": true,
          "name": "holder",
          "type": "address"
        },
        {
          "indexed": true,
          "name": "oracle",
          "type": "address"
        },
        {
          "indexed": true,
          "name": "endpoint",
          "type": "bytes32"
        },
        {
          "indexed": false,
          "name": "numZap",
          "type": "uint256"
        }
      ],
      "name": "Bound",
      "type": "event"
    },
    {
      "anonymous": false,
      "inputs": [
        {
          "indexed": true,
          "name": "holder",
          "type": "address"
        },
        {
          "indexed": true,
          "name": "oracle",
          "type": "address"
        },
        {
          "indexed": true,
          "name": "endpoint",
          "type": "bytes32"
        },
        {
          "indexed": false,
          "name": "numDots",
          "type": "uint256"
        }
      ],
      "name": "Unbound",
      "type": "event"
    },
    {
      "anonymous": false,
      "inputs": [
        {
          "indexed": true,
          "name": "holder",
          "type": "address"
        },
        {
          "indexed": true,
          "name": "oracle",
          "type": "address"
        },
        {
          "indexed": true,
          "name": "endpoint",
          "type": "bytes32"
        },
        {
          "indexed": false,
          "name": "numDots",
          "type": "uint256"
        }
      ],
      "name": "Escrowed",
      "type": "event"
    },
    {
      "anonymous": false,
      "inputs": [
        {
          "indexed": true,
          "name": "holder",
          "type": "address"
        },
        {
          "indexed": true,
          "name": "oracle",
          "type": "address"
        },
        {
          "indexed": true,
          "name": "endpoint",
          "type": "bytes32"
        },
        {
          "indexed": false,
          "name": "numDots",
          "type": "uint256"
        }
      ],
      "name": "Released",
      "type": "event"
    },
    {
      "anonymous": false,
      "inputs": [
        {
          "indexed": true,
          "name": "previousOwner",
          "type": "address"
        },
        {
          "indexed": true,
          "name": "newOwner",
          "type": "address"
        }
      ],
      "name": "OwnershipTransferred",
      "type": "event"
    },
    {
      "constant": false,
      "inputs": [
        {
          "name": "_arbiterAddress",
          "type": "address"
        }
      ],
      "name": "setArbiterAddress",
      "outputs": [],
      "payable": false,
      "stateMutability": "nonpayable",
      "type": "function"
    },
    {
      "constant": false,
      "inputs": [
        {
          "name": "_dispatchAddress",
          "type": "address"
        }
      ],
      "name": "setDispatchAddress",
      "outputs": [],
      "payable": false,
      "stateMutability": "nonpayable",
      "type": "function"
    },
    {
      "constant": false,
      "inputs": [
        {
          "name": "currentCostAddress",
          "type": "address"
        }
      ],
      "name": "setCurrentCostAddress",
      "outputs": [],
      "payable": false,
      "stateMutability": "nonpayable",
      "type": "function"
    },
    {
      "constant": false,
      "inputs": [
        {
          "name": "oracleAddress",
          "type": "address"
        },
        {
          "name": "endpoint",
          "type": "bytes32"
        },
        {
          "name": "numZap",
          "type": "uint256"
        }
      ],
      "name": "bond",
      "outputs": [
        {
          "name": "bound",
          "type": "uint256"
        }
      ],
      "payable": false,
      "stateMutability": "nonpayable",
      "type": "function"
    },
    {
      "constant": false,
      "inputs": [
        {
          "name": "oracleAddress",
          "type": "address"
        },
        {
          "name": "endpoint",
          "type": "bytes32"
        },
        {
          "name": "numDots",
          "type": "uint256"
        }
      ],
      "name": "unbond",
      "outputs": [
        {
          "name": "unbound",
          "type": "uint256"
        }
      ],
      "payable": false,
      "stateMutability": "nonpayable",
      "type": "function"
    },
    {
      "constant": false,
      "inputs": [
        {
          "name": "holderAddress",
          "type": "address"
        },
        {
          "name": "oracleAddress",
          "type": "address"
        },
        {
          "name": "endpoint",
          "type": "bytes32"
        },
        {
          "name": "numZap",
          "type": "uint256"
        }
      ],
      "name": "delegateBond",
      "outputs": [
        {
          "name": "bound",
          "type": "uint256"
        }
      ],
      "payable": false,
      "stateMutability": "nonpayable",
      "type": "function"
    },
    {
      "constant": false,
      "inputs": [
        {
          "name": "holderAddress",
          "type": "address"
        },
        {
          "name": "oracleAddress",
          "type": "address"
        },
        {
          "name": "endpoint",
          "type": "bytes32"
        },
        {
          "name": "numDots",
          "type": "uint256"
        }
      ],
      "name": "delegateUnbond",
      "outputs": [
        {
          "name": "unbound",
          "type": "uint256"
        }
      ],
      "payable": false,
      "stateMutability": "nonpayable",
      "type": "function"
    },
    {
      "constant": false,
      "inputs": [
        {
          "name": "oracleAddress",
          "type": "address"
        }
      ],
      "name": "resetDelegate",
      "outputs": [],
      "payable": false,
      "stateMutability": "nonpayable",
      "type": "function"
    },
    {
      "constant": false,
      "inputs": [
        {
          "name": "holderAddress",
          "type": "address"
        },
        {
          "name": "oracleAddress",
          "type": "address"
        },
        {
          "name": "endpoint",
          "type": "bytes32"
        },
        {
          "name": "numDots",
          "type": "uint256"
        }
      ],
      "name": "escrowDots",
      "outputs": [
        {
          "name": "success",
          "type": "bool"
        }
      ],
      "payable": false,
      "stateMutability": "nonpayable",
      "type": "function"
    },
    {
      "constant": false,
      "inputs": [
        {
          "name": "holderAddress",
          "type": "address"
        },
        {
          "name": "oracleAddress",
          "type": "address"
        },
        {
          "name": "endpoint",
          "type": "bytes32"
        },
        {
          "name": "numDots",
          "type": "uint256"
        }
      ],
      "name": "releaseDots",
      "outputs": [
        {
          "name": "success",
          "type": "bool"
        }
      ],
      "payable": false,
      "stateMutability": "nonpayable",
      "type": "function"
    },
    {
      "constant": true,
      "inputs": [
        {
          "name": "oracleAddress",
          "type": "address"
        },
        {
          "name": "endpoint",
          "type": "bytes32"
        },
        {
          "name": "numDots",
          "type": "uint256"
        }
      ],
      "name": "calcZapForDots",
      "outputs": [
        {
          "name": "numZap",
          "type": "uint256"
        }
      ],
      "payable": false,
      "stateMutability": "view",
      "type": "function"
    },
    {
      "constant": true,
      "inputs": [
        {
          "name": "oracleAddress",
          "type": "address"
        },
        {
          "name": "endpoint",
          "type": "bytes32"
        },
        {
          "name": "numZap",
          "type": "uint256"
        }
      ],
      "name": "calcBondRate",
      "outputs": [
        {
          "name": "maxNumZap",
          "type": "uint256"
        },
        {
          "name": "numDots",
          "type": "uint256"
        }
      ],
      "payable": false,
      "stateMutability": "view",
      "type": "function"
    },
    {
      "constant": true,
      "inputs": [
        {
          "name": "oracleAddress",
          "type": "address"
        },
        {
          "name": "endpoint",
          "type": "bytes32"
        },
        {
          "name": "totalBound",
          "type": "uint256"
        }
      ],
      "name": "currentCostOfDot",
      "outputs": [
        {
          "name": "cost",
          "type": "uint256"
        }
      ],
      "payable": false,
      "stateMutability": "view",
      "type": "function"
    },
    {
      "constant": true,
      "inputs": [
        {
          "name": "oracleAddress",
          "type": "address"
        },
        {
          "name": "endpoint",
          "type": "bytes32"
        }
      ],
      "name": "getDotsIssued",
      "outputs": [
        {
          "name": "dots",
          "type": "uint256"
        }
      ],
      "payable": false,
      "stateMutability": "view",
      "type": "function"
    },
    {
      "constant": true,
      "inputs": [
        {
          "name": "holderAddress",
          "type": "address"
        },
        {
          "name": "oracleAddress",
          "type": "address"
        },
        {
          "name": "endpoint",
          "type": "bytes32"
        }
      ],
      "name": "getBoundDots",
      "outputs": [
        {
          "name": "dots",
          "type": "uint256"
        }
      ],
      "payable": false,
      "stateMutability": "view",
      "type": "function"
    },
    {
      "constant": true,
      "inputs": [
        {
          "name": "oracleAddress",
          "type": "address"
        },
        {
          "name": "endpoint",
          "type": "bytes32"
        }
      ],
      "name": "getZapBound",
      "outputs": [
        {
          "name": "",
          "type": "uint256"
        }
      ],
      "payable": false,
      "stateMutability": "view",
      "type": "function"
    }
  ],
  "bytecode": "0x6060604052670de0b6b3a7640000600455341561001b57600080fd5b604051606080612f1383398101604052808051906020019091908051906020019091908051906020019091905050336000806101000a81548173ffffffffffffffffffffffffffffffffffffffff021916908373ffffffffffffffffffffffffffffffffffffffff16021790555082600160006101000a81548173ffffffffffffffffffffffffffffffffffffffff021916908373ffffffffffffffffffffffffffffffffffffffff16021790555081600360006101000a81548173ffffffffffffffffffffffffffffffffffffffff021916908373ffffffffffffffffffffffffffffffffffffffff16021790555080600260006101000a81548173ffffffffffffffffffffffffffffffffffffffff021916908373ffffffffffffffffffffffffffffffffffffffff160217905550505050612db58061015e6000396000f300606060405260043610610112576000357c0100000000000000000000000000000000000000000000000000000000900463ffffffff16806301139b791461011757806302d93162146101505780630cf13010146101d257806316614c981461020b57806319ec825c146102915780631d7b5e22146102eb5780633b058aa714610345578063456e2d7a146103cb57806385aa92a7146104045780638da5cb5b1461045957806399275cc7146104ae5780639cb8a26a14610511578063a06fe77514610526578063b44efd8f14610589578063b6105f15146105c2578063bbee369414610625578063ca01fed51461069e578063cbdaf0c814610720578063ec8e2dd714610783578063f2fde38b146107ed575b600080fd5b341561012257600080fd5b61014e600480803573ffffffffffffffffffffffffffffffffffffffff16906020019091905050610826565b005b341561015b57600080fd5b6101bc600480803573ffffffffffffffffffffffffffffffffffffffff1690602001909190803573ffffffffffffffffffffffffffffffffffffffff1690602001909190803560001916906020019091908035906020019091905050610929565b6040518082815260200191505060405180910390f35b34156101dd57600080fd5b610209600480803573ffffffffffffffffffffffffffffffffffffffff16906020019091905050610aeb565b005b341561021657600080fd5b610277600480803573ffffffffffffffffffffffffffffffffffffffff1690602001909190803573ffffffffffffffffffffffffffffffffffffffff1690602001909190803560001916906020019091908035906020019091905050610b8a565b604051808215151515815260200191505060405180910390f35b341561029c57600080fd5b6102d5600480803573ffffffffffffffffffffffffffffffffffffffff1690602001909190803560001916906020019091905050610f52565b6040518082815260200191505060405180910390f35b34156102f657600080fd5b61032f600480803573ffffffffffffffffffffffffffffffffffffffff169060200190919080356000191690602001909190505061103f565b6040518082815260200191505060405180910390f35b341561035057600080fd5b6103b1600480803573ffffffffffffffffffffffffffffffffffffffff1690602001909190803573ffffffffffffffffffffffffffffffffffffffff169060200190919080356000191690602001909190803590602001909190505061112c565b604051808215151515815260200191505060405180910390f35b34156103d657600080fd5b610402600480803573ffffffffffffffffffffffffffffffffffffffff16906020019091905050611600565b005b341561040f57600080fd5b61041761169f565b604051808273ffffffffffffffffffffffffffffffffffffffff1673ffffffffffffffffffffffffffffffffffffffff16815260200191505060405180910390f35b341561046457600080fd5b61046c6116c5565b604051808273ffffffffffffffffffffffffffffffffffffffff1673ffffffffffffffffffffffffffffffffffffffff16815260200191505060405180910390f35b34156104b957600080fd5b6104fb600480803573ffffffffffffffffffffffffffffffffffffffff16906020019091908035600019169060200190919080359060200190919050506116ea565b6040518082815260200191505060405180910390f35b341561051c57600080fd5b61052461176b565b005b341561053157600080fd5b610573600480803573ffffffffffffffffffffffffffffffffffffffff1690602001909190803560001916906020019091908035906020019091905050611800565b6040518082815260200191505060405180910390f35b341561059457600080fd5b6105c0600480803573ffffffffffffffffffffffffffffffffffffffff16906020019091905050611881565b005b34156105cd57600080fd5b61060f600480803573ffffffffffffffffffffffffffffffffffffffff1690602001909190803560001916906020019091908035906020019091905050611920565b6040518082815260200191505060405180910390f35b341561063057600080fd5b610688600480803573ffffffffffffffffffffffffffffffffffffffff1690602001909190803573ffffffffffffffffffffffffffffffffffffffff1690602001909190803560001916906020019091905050611962565b6040518082815260200191505060405180910390f35b34156106a957600080fd5b61070a600480803573ffffffffffffffffffffffffffffffffffffffff1690602001909190803573ffffffffffffffffffffffffffffffffffffffff1690602001909190803560001916906020019091908035906020019091905050611a84565b6040518082815260200191505060405180910390f35b341561072b57600080fd5b61076d600480803573ffffffffffffffffffffffffffffffffffffffff1690602001909190803560001916906020019091908035906020019091905050611d64565b6040518082815260200191505060405180910390f35b341561078e57600080fd5b6107d0600480803573ffffffffffffffffffffffffffffffffffffffff1690602001909190803560001916906020019091908035906020019091905050611e5a565b604051808381526020018281526020019250505060405180910390f35b34156107f857600080fd5b610824600480803573ffffffffffffffffffffffffffffffffffffffff16906020019091905050611ed0565b005b600160009054906101000a900473ffffffffffffffffffffffffffffffffffffffff1673ffffffffffffffffffffffffffffffffffffffff16634101f89b33836040518363ffffffff167c0100000000000000000000000000000000000000000000000000000000028152600401808373ffffffffffffffffffffffffffffffffffffffff1673ffffffffffffffffffffffffffffffffffffffff1681526020018273ffffffffffffffffffffffffffffffffffffffff1673ffffffffffffffffffffffffffffffffffffffff16815260200192505050600060405180830381600087803b151561091657600080fd5b5af1151561092357600080fd5b50505050565b60003373ffffffffffffffffffffffffffffffffffffffff16600160009054906101000a900473ffffffffffffffffffffffffffffffffffffffff1673ffffffffffffffffffffffffffffffffffffffff166327bb01b187876040518363ffffffff167c0100000000000000000000000000000000000000000000000000000000028152600401808373ffffffffffffffffffffffffffffffffffffffff1673ffffffffffffffffffffffffffffffffffffffff1681526020018273ffffffffffffffffffffffffffffffffffffffff1673ffffffffffffffffffffffffffffffffffffffff16815260200192505050602060405180830381600087803b1515610a3257600080fd5b5af11515610a3f57600080fd5b5050506040518051905073ffffffffffffffffffffffffffffffffffffffff16141515610a6b57600080fd5b610a7785858585612025565b905082600019168473ffffffffffffffffffffffffffffffffffffffff168673ffffffffffffffffffffffffffffffffffffffff167f60b9c649cd4eb0d02bcdc2d69fd86d12022c0bf7ff8aa61e5ac0bc121fc3cac0856040518082815260200191505060405180910390a4949350505050565b6000809054906101000a900473ffffffffffffffffffffffffffffffffffffffff1673ffffffffffffffffffffffffffffffffffffffff163373ffffffffffffffffffffffffffffffffffffffff16141515610b4657600080fd5b80600660006101000a81548173ffffffffffffffffffffffffffffffffffffffff021916908373ffffffffffffffffffffffffffffffffffffffff16021790555050565b6000806000600660009054906101000a900473ffffffffffffffffffffffffffffffffffffffff1673ffffffffffffffffffffffffffffffffffffffff163373ffffffffffffffffffffffffffffffffffffffff161480610c385750600760009054906101000a900473ffffffffffffffffffffffffffffffffffffffff1673ffffffffffffffffffffffffffffffffffffffff163373ffffffffffffffffffffffffffffffffffffffff16145b15610f4857610c48878787611962565b915083905081841115610c59578190505b600160009054906101000a900473ffffffffffffffffffffffffffffffffffffffff1673ffffffffffffffffffffffffffffffffffffffff1663eef0e6b9888888856040518563ffffffff167c0100000000000000000000000000000000000000000000000000000000028152600401808573ffffffffffffffffffffffffffffffffffffffff1673ffffffffffffffffffffffffffffffffffffffff1681526020018473ffffffffffffffffffffffffffffffffffffffff1673ffffffffffffffffffffffffffffffffffffffff1681526020018360001916600019168152602001828152602001807f7375620000000000000000000000000000000000000000000000000000000000815250602001945050505050600060405180830381600087803b1515610d8957600080fd5b5af11515610d9657600080fd5b505050600160009054906101000a900473ffffffffffffffffffffffffffffffffffffffff1673ffffffffffffffffffffffffffffffffffffffff1663875681cb888888856040518563ffffffff167c0100000000000000000000000000000000000000000000000000000000028152600401808573ffffffffffffffffffffffffffffffffffffffff1673ffffffffffffffffffffffffffffffffffffffff1681526020018473ffffffffffffffffffffffffffffffffffffffff1673ffffffffffffffffffffffffffffffffffffffff1681526020018360001916600019168152602001828152602001807f6164640000000000000000000000000000000000000000000000000000000000815250602001945050505050600060405180830381600087803b1515610ec957600080fd5b5af11515610ed657600080fd5b50505084600019168673ffffffffffffffffffffffffffffffffffffffff168873ffffffffffffffffffffffffffffffffffffffff167f2738c9bd1693cadc7b4fabefd6467b42f901650c7401bad1076dbc984f4b15d0846040518082815260200191505060405180910390a4600192505b5050949350505050565b6000600160009054906101000a900473ffffffffffffffffffffffffffffffffffffffff1673ffffffffffffffffffffffffffffffffffffffff16633fe7968584846040518363ffffffff167c0100000000000000000000000000000000000000000000000000000000028152600401808373ffffffffffffffffffffffffffffffffffffffff1673ffffffffffffffffffffffffffffffffffffffff168152602001826000191660001916815260200192505050602060405180830381600087803b151561102057600080fd5b5af1151561102d57600080fd5b50505060405180519050905092915050565b6000600160009054906101000a900473ffffffffffffffffffffffffffffffffffffffff1673ffffffffffffffffffffffffffffffffffffffff16631d7b5e2284846040518363ffffffff167c0100000000000000000000000000000000000000000000000000000000028152600401808373ffffffffffffffffffffffffffffffffffffffff1673ffffffffffffffffffffffffffffffffffffffff168152602001826000191660001916815260200192505050602060405180830381600087803b151561110d57600080fd5b5af1151561111a57600080fd5b50505060405180519050905092915050565b6000806000600660009054906101000a900473ffffffffffffffffffffffffffffffffffffffff1673ffffffffffffffffffffffffffffffffffffffff163373ffffffffffffffffffffffffffffffffffffffff1614806111da5750600760009054906101000a900473ffffffffffffffffffffffffffffffffffffffff1673ffffffffffffffffffffffffffffffffffffffff163373ffffffffffffffffffffffffffffffffffffffff16145b156115f657600160009054906101000a900473ffffffffffffffffffffffffffffffffffffffff1673ffffffffffffffffffffffffffffffffffffffff16637a68c23a8888886040518463ffffffff167c0100000000000000000000000000000000000000000000000000000000028152600401808473ffffffffffffffffffffffffffffffffffffffff1673ffffffffffffffffffffffffffffffffffffffff1681526020018373ffffffffffffffffffffffffffffffffffffffff1673ffffffffffffffffffffffffffffffffffffffff16815260200182600019166000191681526020019350505050602060405180830381600087803b15156112df57600080fd5b5af115156112ec57600080fd5b50505060405180519050915083905081841115611307578190505b600160009054906101000a900473ffffffffffffffffffffffffffffffffffffffff1673ffffffffffffffffffffffffffffffffffffffff1663875681cb888888856040518563ffffffff167c0100000000000000000000000000000000000000000000000000000000028152600401808573ffffffffffffffffffffffffffffffffffffffff1673ffffffffffffffffffffffffffffffffffffffff1681526020018473ffffffffffffffffffffffffffffffffffffffff1673ffffffffffffffffffffffffffffffffffffffff1681526020018360001916600019168152602001828152602001807f7375620000000000000000000000000000000000000000000000000000000000815250602001945050505050600060405180830381600087803b151561143757600080fd5b5af1151561144457600080fd5b505050600160009054906101000a900473ffffffffffffffffffffffffffffffffffffffff1673ffffffffffffffffffffffffffffffffffffffff1663eef0e6b9878888856040518563ffffffff167c0100000000000000000000000000000000000000000000000000000000028152600401808573ffffffffffffffffffffffffffffffffffffffff1673ffffffffffffffffffffffffffffffffffffffff1681526020018473ffffffffffffffffffffffffffffffffffffffff1673ffffffffffffffffffffffffffffffffffffffff1681526020018360001916600019168152602001828152602001807f6164640000000000000000000000000000000000000000000000000000000000815250602001945050505050600060405180830381600087803b151561157757600080fd5b5af1151561158457600080fd5b50505084600019168673ffffffffffffffffffffffffffffffffffffffff168873ffffffffffffffffffffffffffffffffffffffff167f2afa253d0464d87b039f71a6964ed5c028a3a3c68048d909fbee4b1610756e79846040518082815260200191505060405180910390a4600192505b5050949350505050565b6000809054906101000a900473ffffffffffffffffffffffffffffffffffffffff1673ffffffffffffffffffffffffffffffffffffffff163373ffffffffffffffffffffffffffffffffffffffff1614151561165b57600080fd5b80600260006101000a81548173ffffffffffffffffffffffffffffffffffffffff021916908373ffffffffffffffffffffffffffffffffffffffff16021790555050565b600560009054906101000a900473ffffffffffffffffffffffffffffffffffffffff1681565b6000809054906101000a900473ffffffffffffffffffffffffffffffffffffffff1681565b60006116f8338585856125e5565b905082600019168473ffffffffffffffffffffffffffffffffffffffff163373ffffffffffffffffffffffffffffffffffffffff167fef114d122b9a683eb6f1ebcad0621a0dfbad49e98f1b38df9fd59dfda29e9ebb856040518082815260200191505060405180910390a49392505050565b6000809054906101000a900473ffffffffffffffffffffffffffffffffffffffff1673ffffffffffffffffffffffffffffffffffffffff163373ffffffffffffffffffffffffffffffffffffffff161415156117c657600080fd5b6000809054906101000a900473ffffffffffffffffffffffffffffffffffffffff1673ffffffffffffffffffffffffffffffffffffffff16ff5b600061180e33858585612025565b905082600019168473ffffffffffffffffffffffffffffffffffffffff163373ffffffffffffffffffffffffffffffffffffffff167f60b9c649cd4eb0d02bcdc2d69fd86d12022c0bf7ff8aa61e5ac0bc121fc3cac0856040518082815260200191505060405180910390a49392505050565b6000809054906101000a900473ffffffffffffffffffffffffffffffffffffffff1673ffffffffffffffffffffffffffffffffffffffff163373ffffffffffffffffffffffffffffffffffffffff161415156118dc57600080fd5b80600760006101000a81548173ffffffffffffffffffffffffffffffffffffffff021916908373ffffffffffffffffffffffffffffffffffffffff16021790555050565b600080600090505b8281101561195757611946858583611940898961103f565b01611d64565b820191508080600101915050611928565b819150509392505050565b6000600160009054906101000a900473ffffffffffffffffffffffffffffffffffffffff1673ffffffffffffffffffffffffffffffffffffffff1663bbee36948585856040518463ffffffff167c0100000000000000000000000000000000000000000000000000000000028152600401808473ffffffffffffffffffffffffffffffffffffffff1673ffffffffffffffffffffffffffffffffffffffff1681526020018373ffffffffffffffffffffffffffffffffffffffff1673ffffffffffffffffffffffffffffffffffffffff16815260200182600019166000191681526020019350505050602060405180830381600087803b1515611a6457600080fd5b5af11515611a7157600080fd5b5050506040518051905090509392505050565b600080600160009054906101000a900473ffffffffffffffffffffffffffffffffffffffff1673ffffffffffffffffffffffffffffffffffffffff166327bb01b187876040518363ffffffff167c0100000000000000000000000000000000000000000000000000000000028152600401808373ffffffffffffffffffffffffffffffffffffffff1673ffffffffffffffffffffffffffffffffffffffff1681526020018273ffffffffffffffffffffffffffffffffffffffff1673ffffffffffffffffffffffffffffffffffffffff16815260200192505050602060405180830381600087803b1515611b7757600080fd5b5af11515611b8457600080fd5b5050506040518051905073ffffffffffffffffffffffffffffffffffffffff16141515611bb057600080fd5b600160009054906101000a900473ffffffffffffffffffffffffffffffffffffffff1673ffffffffffffffffffffffffffffffffffffffff1663d63b5cde8686336040518463ffffffff167c0100000000000000000000000000000000000000000000000000000000028152600401808473ffffffffffffffffffffffffffffffffffffffff1673ffffffffffffffffffffffffffffffffffffffff1681526020018373ffffffffffffffffffffffffffffffffffffffff1673ffffffffffffffffffffffffffffffffffffffff1681526020018273ffffffffffffffffffffffffffffffffffffffff1673ffffffffffffffffffffffffffffffffffffffff1681526020019350505050600060405180830381600087803b1515611cd457600080fd5b5af11515611ce157600080fd5b505050611cf0858585856125e5565b905082600019168473ffffffffffffffffffffffffffffffffffffffff168673ffffffffffffffffffffffffffffffffffffffff167fef114d122b9a683eb6f1ebcad0621a0dfbad49e98f1b38df9fd59dfda29e9ebb856040518082815260200191505060405180910390a4949350505050565b6000600260009054906101000a900473ffffffffffffffffffffffffffffffffffffffff1673ffffffffffffffffffffffffffffffffffffffff1663ecca1fad8585856040518463ffffffff167c0100000000000000000000000000000000000000000000000000000000028152600401808473ffffffffffffffffffffffffffffffffffffffff1673ffffffffffffffffffffffffffffffffffffffff16815260200183600019166000191681526020018281526020019350505050602060405180830381600087803b1515611e3a57600080fd5b5af11515611e4757600080fd5b5050506040518051905090509392505050565b60008060008060045491506103e8851115611e75576103e894505b5b81831015611ec057611e94878785611e8e8b8b61103f565b01611d64565b90508085101515611eae5780850394508084019350611eb3565b611ec0565b8280600101935050611e76565b8383935093505050935093915050565b6000809054906101000a900473ffffffffffffffffffffffffffffffffffffffff1673ffffffffffffffffffffffffffffffffffffffff163373ffffffffffffffffffffffffffffffffffffffff16141515611f2b57600080fd5b600073ffffffffffffffffffffffffffffffffffffffff168173ffffffffffffffffffffffffffffffffffffffff1614151515611f6757600080fd5b8073ffffffffffffffffffffffffffffffffffffffff166000809054906101000a900473ffffffffffffffffffffffffffffffffffffffff1673ffffffffffffffffffffffffffffffffffffffff167f8be0079c531659141344cd1fd0a4f28419497f9722a3daafe3b4186f6b6457e060405160405180910390a3806000806101000a81548173ffffffffffffffffffffffffffffffffffffffff021916908373ffffffffffffffffffffffffffffffffffffffff16021790555050565b600080600080600160009054906101000a900473ffffffffffffffffffffffffffffffffffffffff1673ffffffffffffffffffffffffffffffffffffffff166341f1c2ac8989896040518463ffffffff167c0100000000000000000000000000000000000000000000000000000000028152600401808473ffffffffffffffffffffffffffffffffffffffff1673ffffffffffffffffffffffffffffffffffffffff1681526020018373ffffffffffffffffffffffffffffffffffffffff1673ffffffffffffffffffffffffffffffffffffffff16815260200182600019166000191681526020019350505050602060405180830381600087803b151561212b57600080fd5b5af1151561213857600080fd5b5050506040518051905092508483101580156121545750600085115b156125d557600191505b848210156121905781612171888861103f565b03905061217f878783611d64565b84019350818060010192505061215e565b600160009054906101000a900473ffffffffffffffffffffffffffffffffffffffff1673ffffffffffffffffffffffffffffffffffffffff166318d4d8a88888876040518463ffffffff167c0100000000000000000000000000000000000000000000000000000000028152600401808473ffffffffffffffffffffffffffffffffffffffff1673ffffffffffffffffffffffffffffffffffffffff1681526020018360001916600019168152602001828152602001807f73756200000000000000000000000000000000000000000000000000000000008152506020019350505050600060405180830381600087803b151561228c57600080fd5b5af1151561229957600080fd5b505050600160009054906101000a900473ffffffffffffffffffffffffffffffffffffffff1673ffffffffffffffffffffffffffffffffffffffff166350ddd9a28888886040518463ffffffff167c0100000000000000000000000000000000000000000000000000000000028152600401808473ffffffffffffffffffffffffffffffffffffffff1673ffffffffffffffffffffffffffffffffffffffff1681526020018360001916600019168152602001828152602001807f73756200000000000000000000000000000000000000000000000000000000008152506020019350505050600060405180830381600087803b151561239857600080fd5b5af115156123a557600080fd5b505050600160009054906101000a900473ffffffffffffffffffffffffffffffffffffffff1673ffffffffffffffffffffffffffffffffffffffff1663eef0e6b9898989866040518563ffffffff167c0100000000000000000000000000000000000000000000000000000000028152600401808573ffffffffffffffffffffffffffffffffffffffff1673ffffffffffffffffffffffffffffffffffffffff1681526020018473ffffffffffffffffffffffffffffffffffffffff1673ffffffffffffffffffffffffffffffffffffffff1681526020018360001916600019168152602001828152602001807f7375620000000000000000000000000000000000000000000000000000000000815250602001945050505050600060405180830381600087803b15156124d857600080fd5b5af115156124e557600080fd5b505050600360009054906101000a900473ffffffffffffffffffffffffffffffffffffffff1673ffffffffffffffffffffffffffffffffffffffff1663a9059cbb8960045487026040518363ffffffff167c0100000000000000000000000000000000000000000000000000000000028152600401808373ffffffffffffffffffffffffffffffffffffffff1673ffffffffffffffffffffffffffffffffffffffff16815260200182815260200192505050602060405180830381600087803b15156125b057600080fd5b5af115156125bd57600080fd5b50505060405180519050156125d4578393506125da565b5b600093505b505050949350505050565b60006125f2848484611e5a565b8092508193505050600160009054906101000a900473ffffffffffffffffffffffffffffffffffffffff1673ffffffffffffffffffffffffffffffffffffffff1663036459c086866040518363ffffffff167c0100000000000000000000000000000000000000000000000000000000028152600401808373ffffffffffffffffffffffffffffffffffffffff1673ffffffffffffffffffffffffffffffffffffffff1681526020018273ffffffffffffffffffffffffffffffffffffffff1673ffffffffffffffffffffffffffffffffffffffff16815260200192505050602060405180830381600087803b15156126ea57600080fd5b5af115156126f757600080fd5b50505060405180519050151561290857600160009054906101000a900473ffffffffffffffffffffffffffffffffffffffff1673ffffffffffffffffffffffffffffffffffffffff166372fc186786866040518363ffffffff167c0100000000000000000000000000000000000000000000000000000000028152600401808373ffffffffffffffffffffffffffffffffffffffff1673ffffffffffffffffffffffffffffffffffffffff1681526020018273ffffffffffffffffffffffffffffffffffffffff1673ffffffffffffffffffffffffffffffffffffffff16815260200192505050600060405180830381600087803b15156127f757600080fd5b5af1151561280457600080fd5b505050600160009054906101000a900473ffffffffffffffffffffffffffffffffffffffff1673ffffffffffffffffffffffffffffffffffffffff16636360e25186866040518363ffffffff167c0100000000000000000000000000000000000000000000000000000000028152600401808373ffffffffffffffffffffffffffffffffffffffff1673ffffffffffffffffffffffffffffffffffffffff1681526020018273ffffffffffffffffffffffffffffffffffffffff1673ffffffffffffffffffffffffffffffffffffffff16815260200192505050600060405180830381600087803b15156128f757600080fd5b5af1151561290457600080fd5b5050505b600360009054906101000a900473ffffffffffffffffffffffffffffffffffffffff1673ffffffffffffffffffffffffffffffffffffffff166323b872dd333060045486026040518463ffffffff167c0100000000000000000000000000000000000000000000000000000000028152600401808473ffffffffffffffffffffffffffffffffffffffff1673ffffffffffffffffffffffffffffffffffffffff1681526020018373ffffffffffffffffffffffffffffffffffffffff1673ffffffffffffffffffffffffffffffffffffffff1681526020018281526020019350505050602060405180830381600087803b1515612a0457600080fd5b5af11515612a1157600080fd5b505050604051805190501515612a2657600080fd5b600160009054906101000a900473ffffffffffffffffffffffffffffffffffffffff1673ffffffffffffffffffffffffffffffffffffffff1663eef0e6b9868686856040518563ffffffff167c0100000000000000000000000000000000000000000000000000000000028152600401808573ffffffffffffffffffffffffffffffffffffffff1673ffffffffffffffffffffffffffffffffffffffff1681526020018473ffffffffffffffffffffffffffffffffffffffff1673ffffffffffffffffffffffffffffffffffffffff1681526020018360001916600019168152602001828152602001807f6164640000000000000000000000000000000000000000000000000000000000815250602001945050505050600060405180830381600087803b1515612b5657600080fd5b5af11515612b6357600080fd5b505050600160009054906101000a900473ffffffffffffffffffffffffffffffffffffffff1673ffffffffffffffffffffffffffffffffffffffff166350ddd9a28585846040518463ffffffff167c0100000000000000000000000000000000000000000000000000000000028152600401808473ffffffffffffffffffffffffffffffffffffffff1673ffffffffffffffffffffffffffffffffffffffff1681526020018360001916600019168152602001828152602001807f61646400000000000000000000000000000000000000000000000000000000008152506020019350505050600060405180830381600087803b1515612c6257600080fd5b5af11515612c6f57600080fd5b505050600160009054906101000a900473ffffffffffffffffffffffffffffffffffffffff1673ffffffffffffffffffffffffffffffffffffffff166318d4d8a88585856040518463ffffffff167c0100000000000000000000000000000000000000000000000000000000028152600401808473ffffffffffffffffffffffffffffffffffffffff1673ffffffffffffffffffffffffffffffffffffffff1681526020018360001916600019168152602001828152602001807f61646400000000000000000000000000000000000000000000000000000000008152506020019350505050600060405180830381600087803b1515612d6e57600080fd5b5af11515612d7b57600080fd5b5050508090509493505050505600a165627a7a72305820d80486e55c99fac38b4e6459b450633dd001e21ca000cf98e0eb70b63763f5ff0029",
  "source": "pragma solidity ^0.4.19;\n// v1.0\n\nimport \"../lib/Destructible.sol\";\nimport \"../lib/ERC20.sol\";\nimport \"./currentCost/CurrentCostInterface.sol\";\nimport \"./BondageStorage.sol\";\n\ncontract Bondage is Destructible {\n\n    event Bound(address indexed holder, address indexed oracle, bytes32 indexed endpoint, uint256 numZap);\n    event Unbound(address indexed holder, address indexed oracle, bytes32 indexed endpoint, uint256 numDots);\n    event Escrowed(address indexed holder, address indexed oracle, bytes32 indexed endpoint, uint256 numDots);\n    event Released(address indexed holder, address indexed oracle, bytes32 indexed endpoint, uint256 numDots);\n\n    BondageStorage stor;\n    CurrentCostInterface currentCost;\n    ERC20 token;\n    uint256 decimals = 10 ** 18;\n\n    address public storageAddress;\n    address arbiterAddress;\n    address dispatchAddress;\n\n    // For restricting dot escrow/transfer method calls to Dispatch and Arbiter\n    modifier operatorOnly {\n        if (msg.sender == arbiterAddress || msg.sender == dispatchAddress)\n            _;\n    }\n\n    /// @dev Initialize Storage, Token, anc CurrentCost Contracts\n    function Bondage(address storageAddress, address tokenAddress, address currentCostAddress) public {\n        stor = BondageStorage(storageAddress);\n        token = ERC20(tokenAddress); \n        currentCost = CurrentCostInterface(currentCostAddress);\n    }\n\n    /// @dev Set Arbiter address\n    /// @notice This needs to be called upon deployment and after Arbiter update\n    function setArbiterAddress(address _arbiterAddress) external onlyOwner {\n        arbiterAddress = _arbiterAddress;\n    }\n    \n    /// @dev Set Dispatch address\n    /// @notice This needs to be called upon deployment and after Dispatch update\n    function setDispatchAddress(address _dispatchAddress) external onlyOwner {\n        dispatchAddress = _dispatchAddress;\n    }\n\n    /// @notice Upgdate currentCostOfDot function (barring no interface change)\n    function setCurrentCostAddress(address currentCostAddress) public onlyOwner {\n        currentCost = CurrentCostInterface(currentCostAddress);\n    }\n\n    /// @dev will bond to an oracle\n    /// @return total ZAP bound to oracle\n    function bond(address oracleAddress, bytes32 endpoint, uint256 numZap) external returns (uint256 bound) {\n        bound = _bond(msg.sender, oracleAddress, endpoint, numZap);\n        Bound(msg.sender, oracleAddress, endpoint, numZap);\n    }\n\n    /// @return total ZAP unbound from oracle\n    function unbond(address oracleAddress, bytes32 endpoint, uint256 numDots) external returns (uint256 unbound) {\n        unbound = _unbond(msg.sender, oracleAddress, endpoint, numDots);\n        Unbound(msg.sender, oracleAddress, endpoint, numDots);\n    }        \n\n    /// @dev will bond to an oracle on behalf of some holder\n    /// @return total ZAP bound to oracle\n    function delegateBond(address holderAddress, address oracleAddress, bytes32 endpoint, uint256 numZap) external returns (uint256 bound) {\n        require(stor.getDelegate(holderAddress, oracleAddress) == 0x0);\n        stor.setDelegate(holderAddress, oracleAddress, msg.sender);\n        bound = _bond(holderAddress, oracleAddress, endpoint, numZap);\n        Bound(holderAddress, oracleAddress, endpoint, numZap);\n    }\n\n    /// @return total ZAP unbound from oracle\n    function delegateUnbond(address holderAddress, address oracleAddress, bytes32 endpoint, uint256 numDots) external returns (uint256 unbound) {\n        require(stor.getDelegate(holderAddress, oracleAddress) == msg.sender);\n        unbound = _unbond(holderAddress, oracleAddress, endpoint, numDots);\n        Unbound(holderAddress, oracleAddress, endpoint, numDots);\n    }\n\n    /// @dev will reset delegate \n    function resetDelegate(address oracleAddress) external {\n        stor.deleteDelegate(msg.sender, oracleAddress);\n    }\n\n    /// @dev Move numDots dots from provider-requester to bondage according to \n    /// data-provider address, holder address, and endpoint specifier (ala 'smart_contract')\n    /// Called only by Disptach or Arbiter Contracts\n    function escrowDots(        \n        address holderAddress,\n        address oracleAddress,\n        bytes32 endpoint,\n        uint256 numDots\n    )\n        external\n        operatorOnly        \n        returns (bool success)\n    {\n        uint256 currentDots = getBoundDots(holderAddress, oracleAddress, endpoint);\n        uint256 dotsToEscrow = numDots;\n        if (numDots > currentDots) dotsToEscrow = currentDots; \n        stor.updateBondValue(holderAddress, oracleAddress, endpoint, dotsToEscrow, \"sub\");\n        stor.updateEscrow(holderAddress, oracleAddress, endpoint, dotsToEscrow, \"add\");\n        Escrowed(holderAddress, oracleAddress, endpoint, dotsToEscrow);\n        return true;\n    }\n\n    /// @dev Transfer N dots from fromAddress to destAddress. \n    /// Called only by Disptach or Arbiter Contracts\n    /// In smart contract endpoint, occurs per satisfied request. \n    /// In socket endpoint called on termination of subscription.\n    function releaseDots(\n        address holderAddress,\n        address oracleAddress,\n        bytes32 endpoint,\n        uint256 numDots\n    )\n        external\n        operatorOnly \n        returns (bool success)\n    {\n        uint256 numEscrowed = stor.getNumEscrow(holderAddress, oracleAddress, endpoint);\n        uint256 dotsToEscrow = numDots;\n        if (numDots > numEscrowed) dotsToEscrow = numEscrowed;\n        stor.updateEscrow(holderAddress, oracleAddress, endpoint, dotsToEscrow, \"sub\");\n        stor.updateBondValue(oracleAddress, oracleAddress, endpoint, dotsToEscrow, \"add\");\n        Released(holderAddress, oracleAddress, endpoint, dotsToEscrow);\n        return true;\n    }\n\n    /// @dev Calculate quantity of tokens required for specified amount of dots\n    /// for endpoint defined by endpoint and data provider defined by oracleAddress\n    function calcZapForDots(\n        address oracleAddress,\n        bytes32 endpoint,\n        uint256 numDots       \n    ) \n        external\n        view\n        returns (uint256 numZap)\n    {\n        for (uint256 i = 0; i < numDots; i++) {\n            numZap += currentCostOfDot(                \n                oracleAddress,\n                endpoint,\n                getDotsIssued(oracleAddress, endpoint) + i\n            );\n        }\n        return numZap;\n    }\n\n    /// @dev Calculate amount of dots which could be purchased with given (numZap) ZAP tokens (max is 1000)\n    /// for endpoint specified by endpoint and data-provider address specified by oracleAddress\n    function calcBondRate(\n        address oracleAddress,\n        bytes32 endpoint,\n        uint256 numZap\n    )\n        public\n        view\n        returns (uint256 maxNumZap, uint256 numDots) \n    {\n        uint256 infinity = decimals;\n        uint256 dotCost;\n        if (numZap > 1000) numZap = 1000;\n\n        for (numDots; numDots < infinity; numDots++) {\n            dotCost = currentCostOfDot(\n                oracleAddress,\n                endpoint,\n                getDotsIssued(oracleAddress, endpoint) + numDots\n            );\n\n            if (numZap >= dotCost) {\n                numZap -= dotCost;\n                maxNumZap += dotCost;\n            } else {\n                break;\n            }\n        }\n        return (maxNumZap, numDots);\n    }\n\n    /// @dev Get the current cost of a dot.\n    /// @param endpoint specifier\n    /// @param oracleAddress data-provider\n    function currentCostOfDot(\n        address oracleAddress,\n        bytes32 endpoint,\n        uint256 totalBound\n    )\n        public\n        view\n        returns (uint256 cost)\n    {\n        return currentCost._currentCostOfDot(oracleAddress, endpoint, totalBound);\n    }\n\n    function getDotsIssued(\n        address oracleAddress,\n        bytes32 endpoint        \n    )        \n        public\n        view\n        returns (uint256 dots)\n    {\n        return stor.getDotsIssued(oracleAddress, endpoint);\n    }\n\n    function getBoundDots(        \n        address holderAddress,\n        address oracleAddress,\n        bytes32 endpoint\n    )\n        public\n        view        \n        returns (uint256 dots)\n    {\n        return stor.getBoundDots(holderAddress, oracleAddress, endpoint);\n    }\n\n    /// @return total ZAP held by contract\n    function getZapBound(address oracleAddress, bytes32 endpoint) public view returns (uint256) {\n        return stor.getNumZap(oracleAddress, endpoint);\n    }\n\n    function _bond(\n        address holderAddress,\n        address oracleAddress,\n        bytes32 endpoint,\n        uint256 numZap        \n    )\n        private\n        returns (uint256 numDots) \n    {   \n        // This also checks if oracle is registered w/an initialized curve\n        (numZap, numDots) = calcBondRate(oracleAddress, endpoint, numZap);\n\n        if (!stor.isProviderInitialized(holderAddress, oracleAddress)) {            \n            stor.setProviderInitialized(holderAddress, oracleAddress);\n            stor.addHolderOracle(holderAddress, oracleAddress);\n        }\n\n        // User must have approved contract to transfer working ZAP\n        require(token.transferFrom(msg.sender, this, numZap * decimals));\n\n        stor.updateBondValue(holderAddress, oracleAddress, endpoint, numDots, \"add\");        \n        stor.updateTotalIssued(oracleAddress, endpoint, numDots, \"add\");\n        stor.updateTotalBound(oracleAddress, endpoint, numZap, \"add\");\n\n        return numDots;\n    }\n\n    function _unbond(        \n        address holderAddress,\n        address oracleAddress,\n        bytes32 endpoint,\n        uint256 numDots\n    )\n        private\n        returns (uint256 numZap)\n    {\n        //currentDots\n        uint256 bondValue = stor.getBondValue(holderAddress, oracleAddress, endpoint);\n        if (bondValue >= numDots && numDots > 0) {\n\n            uint256 subTotal = 1;\n            uint256 dotsIssued;\n\n            for (subTotal; subTotal < numDots; subTotal++) {\n\n                dotsIssued = getDotsIssued(oracleAddress, endpoint) - subTotal;\n\n                numZap += currentCostOfDot(\n                    oracleAddress,\n                    endpoint,\n                    dotsIssued\n                ); \n            }    \n            stor.updateTotalBound(oracleAddress, endpoint, numZap, \"sub\");\n            stor.updateTotalIssued(oracleAddress, endpoint, numDots, \"sub\");\n            stor.updateBondValue(holderAddress, oracleAddress, endpoint, subTotal, \"sub\");\n\n            if(token.transfer(holderAddress, numZap * decimals))\n                return numZap;\n        }\n        return 0;\n    }\n\n    //log based 2 taylor series in assembly\n    function fastlog2(uint256 x) private pure returns (uint256 y) {\n        assembly {\n            let arg := x\n            x := sub(x, 1)\n            x := or(x, div(x, 0x02))\n            x := or(x, div(x, 0x04))\n            x := or(x, div(x, 0x10))\n            x := or(x, div(x, 0x100))\n            x := or(x, div(x, 0x10000))\n            x := or(x, div(x, 0x100000000))\n            x := or(x, div(x, 0x10000000000000000))\n            x := or(x, div(x, 0x100000000000000000000000000000000))\n            x := add(x, 1)\n            let m := mload(0x40)\n            mstore(m, 0xf8f9cbfae6cc78fbefe7cdc3a1793dfcf4f0e8bbd8cec470b6a28a7a5a3e1efd)\n            mstore(add(m, 0x20), 0xf5ecf1b3e9debc68e1d9cfabc5997135bfb7a7a3938b7b606b5b4b3f2f1f0ffe)\n            mstore(add(m, 0x40), 0xf6e4ed9ff2d6b458eadcdf97bd91692de2d4da8fd2d0ac50c6ae9a8272523616)\n            mstore(add(m, 0x60), 0xc8c0b887b0a8a4489c948c7f847c6125746c645c544c444038302820181008ff)\n            mstore(add(m, 0x80), 0xf7cae577eec2a03cf3bad76fb589591debb2dd67e0aa9834bea6925f6a4a2e0e)\n            mstore(add(m, 0xa0), 0xe39ed557db96902cd38ed14fad815115c786af479b7e83247363534337271707)\n            mstore(add(m, 0xc0), 0xc976c13bb96e881cb166a933a55e490d9d56952b8d4e801485467d2362422606)\n            mstore(add(m, 0xe0), 0x753a6d1b65325d0c552a4d1345224105391a310b29122104190a110309020100)\n            mstore(0x40, add(m, 0x100))\n            let magic := 0x818283848586878898a8b8c8d8e8f929395969799a9b9d9e9faaeb6bedeeff\n            let shift := 0x100000000000000000000000000000000000000000000000000000000000000\n            let a := div(mul(x, magic), shift)\n            y := div(mload(add(m, sub(255, a))), shift)\n            y := add(y, mul(256, gt(arg, 0x8000000000000000000000000000000000000000000000000000000000000000)))\n        }\n    }\n}\n",
  "sourcePath": "/home/iefnw/office/browser/docker/ZapContracts/contracts/bondage/Bondage.sol",
  "compiler": {
    "name": "solc",
    "version": "0.4.21+commit.dfe3193c.Emscripten.clang"
  },
  "schemaVersion": "2.0.0",
  "updatedAt": "2018-05-10T02:38:34.941Z"
}