{
  "contractName": "DispatchStorage",
  "abi": [
    {
      "constant": true,
      "inputs": [],
      "name": "owner",
      "outputs": [
        {
          "name": "",
          "type": "address"
        }
      ],
      "payable": false,
      "stateMutability": "view",
      "type": "function"
    },
    {
      "constant": false,
      "inputs": [
        {
          "name": "newOwner",
          "type": "address"
        }
      ],
      "name": "transferOwnership",
      "outputs": [],
      "payable": false,
      "stateMutability": "nonpayable",
      "type": "function"
    },
    {
      "anonymous": false,
      "inputs": [
        {
          "indexed": true,
          "name": "previousOwner",
          "type": "address"
        },
        {
          "indexed": true,
          "name": "newOwner",
          "type": "address"
        }
      ],
      "name": "OwnershipTransferred",
      "type": "event"
    },
    {
      "constant": true,
      "inputs": [
        {
          "name": "id",
          "type": "uint256"
        }
      ],
      "name": "getProvider",
      "outputs": [
        {
          "name": "",
          "type": "address"
        }
      ],
      "payable": false,
      "stateMutability": "view",
      "type": "function"
    },
    {
      "constant": true,
      "inputs": [
        {
          "name": "id",
          "type": "uint256"
        }
      ],
      "name": "getSubscriber",
      "outputs": [
        {
          "name": "",
          "type": "address"
        }
      ],
      "payable": false,
      "stateMutability": "view",
      "type": "function"
    },
    {
      "constant": true,
      "inputs": [
        {
          "name": "id",
          "type": "uint256"
        }
      ],
      "name": "getEndpoint",
      "outputs": [
        {
          "name": "",
          "type": "bytes32"
        }
      ],
      "payable": false,
      "stateMutability": "view",
      "type": "function"
    },
    {
      "constant": true,
      "inputs": [
        {
          "name": "id",
          "type": "uint256"
        }
      ],
      "name": "getStatus",
      "outputs": [
        {
          "name": "",
          "type": "uint8"
        }
      ],
      "payable": false,
      "stateMutability": "view",
      "type": "function"
    },
    {
      "constant": false,
      "inputs": [
        {
          "name": "id",
          "type": "uint256"
        },
        {
          "name": "provider",
          "type": "address"
        },
        {
          "name": "subscriber",
          "type": "address"
        },
        {
          "name": "endpoint",
          "type": "bytes32"
        }
      ],
      "name": "createQuery",
      "outputs": [],
      "payable": false,
      "stateMutability": "nonpayable",
      "type": "function"
    },
    {
      "constant": false,
      "inputs": [
        {
          "name": "id",
          "type": "uint256"
        }
      ],
      "name": "setFulfilled",
      "outputs": [],
      "payable": false,
      "stateMutability": "nonpayable",
      "type": "function"
    }
  ],
  "bytecode": "0x6060604052336000806101000a81548173ffffffffffffffffffffffffffffffffffffffff021916908373ffffffffffffffffffffffffffffffffffffffff1602179055506107a0806100536000396000f30060606040526004361061008e576000357c0100000000000000000000000000000000000000000000000000000000900463ffffffff16806325df1e7714610093578063509de325146100f65780635c42d079146101645780635c622a0e146101c75780636e4477101461020c5780638da5cb5b1461022f578063937bbc4a14610284578063f2fde38b146102c3575b600080fd5b341561009e57600080fd5b6100b460048080359060200190919050506102fc565b604051808273ffffffffffffffffffffffffffffffffffffffff1673ffffffffffffffffffffffffffffffffffffffff16815260200191505060405180910390f35b341561010157600080fd5b610162600480803590602001909190803573ffffffffffffffffffffffffffffffffffffffff1690602001909190803573ffffffffffffffffffffffffffffffffffffffff169060200190919080356000191690602001909190505061033c565b005b341561016f57600080fd5b61018560048080359060200190919050506104d8565b604051808273ffffffffffffffffffffffffffffffffffffffff1673ffffffffffffffffffffffffffffffffffffffff16815260200191505060405180910390f35b34156101d257600080fd5b6101e86004808035906020019091905050610518565b604051808260018111156101f857fe5b60ff16815260200191505060405180910390f35b341561021757600080fd5b61022d6004808035906020019091905050610545565b005b341561023a57600080fd5b6102426105da565b604051808273ffffffffffffffffffffffffffffffffffffffff1673ffffffffffffffffffffffffffffffffffffffff16815260200191505060405180910390f35b341561028f57600080fd5b6102a560048080359060200190919050506105ff565b60405180826000191660001916815260200191505060405180910390f35b34156102ce57600080fd5b6102fa600480803573ffffffffffffffffffffffffffffffffffffffff1690602001909190505061061f565b005b60006001600083815260200190815260200160002060010160009054906101000a900473ffffffffffffffffffffffffffffffffffffffff169050919050565b6000809054906101000a900473ffffffffffffffffffffffffffffffffffffffff1673ffffffffffffffffffffffffffffffffffffffff163373ffffffffffffffffffffffffffffffffffffffff1614151561039757600080fd5b6080604051908101604052808473ffffffffffffffffffffffffffffffffffffffff1681526020018373ffffffffffffffffffffffffffffffffffffffff16815260200182600019168152602001600060018111156103f257fe5b8152506001600086815260200190815260200160002060008201518160000160006101000a81548173ffffffffffffffffffffffffffffffffffffffff021916908373ffffffffffffffffffffffffffffffffffffffff16021790555060208201518160010160006101000a81548173ffffffffffffffffffffffffffffffffffffffff021916908373ffffffffffffffffffffffffffffffffffffffff1602179055506040820151816002019060001916905560608201518160030160006101000a81548160ff021916908360018111156104ca57fe5b021790555090505050505050565b60006001600083815260200190815260200160002060000160009054906101000a900473ffffffffffffffffffffffffffffffffffffffff169050919050565b60006001600083815260200190815260200160002060030160009054906101000a900460ff169050919050565b6000809054906101000a900473ffffffffffffffffffffffffffffffffffffffff1673ffffffffffffffffffffffffffffffffffffffff163373ffffffffffffffffffffffffffffffffffffffff161415156105a057600080fd5b600180600083815260200190815260200160002060030160006101000a81548160ff021916908360018111156105d257fe5b021790555050565b6000809054906101000a900473ffffffffffffffffffffffffffffffffffffffff1681565b600060016000838152602001908152602001600020600201549050919050565b6000809054906101000a900473ffffffffffffffffffffffffffffffffffffffff1673ffffffffffffffffffffffffffffffffffffffff163373ffffffffffffffffffffffffffffffffffffffff1614151561067a57600080fd5b600073ffffffffffffffffffffffffffffffffffffffff168173ffffffffffffffffffffffffffffffffffffffff16141515156106b657600080fd5b8073ffffffffffffffffffffffffffffffffffffffff166000809054906101000a900473ffffffffffffffffffffffffffffffffffffffff1673ffffffffffffffffffffffffffffffffffffffff167f8be0079c531659141344cd1fd0a4f28419497f9722a3daafe3b4186f6b6457e060405160405180910390a3806000806101000a81548173ffffffffffffffffffffffffffffffffffffffff021916908373ffffffffffffffffffffffffffffffffffffffff160217905550505600a165627a7a72305820e2508e3d78ebb66cee98c9832ed505d499ee4de0e90843791a9a9868bece3f1d0029",
  "source": "pragma solidity ^0.4.19;\n\nimport \"../lib/Ownable.sol\";\n\ncontract DispatchStorage is Ownable {\n    \n    enum Status { Pending, Fulfilled }\n\n    //query data structure\n    struct Query {\n        address provider;       // data provider's address\n        address subscriber;     // requester's address\n        bytes32 endpoint;       // endpoint for response. (currently only 'smart_contract' endpoint supported)\n        Status status;          // status of the request\n    }\n\n    //mapping of unique ids to query objects\n    mapping(uint256 => Query) private queries;\n\n    /**** Get Methods ****/\n    function getProvider(uint256 id) external view returns (address) {\n        return queries[id].provider;\n    }\n\n    function getSubscriber(uint256 id) external view returns (address) {\n        return queries[id].subscriber;\n    }\n\n    function getEndpoint(uint256 id) external view returns (bytes32) {\n        return queries[id].endpoint;\n    }\n\n    function getStatus(uint256 id) external view returns (Status) {\n        return queries[id].status;\n    }\n\n\t/**** Set Methods ****/\n    function createQuery(\n        uint256 id,\n        address provider,\n        address subscriber,\n        bytes32 endpoint\n    ) \n        external\n        onlyOwner\n    {\n        queries[id] = Query(provider, subscriber, endpoint, Status.Pending);\n    }\n\n    function setFulfilled(uint256 id) external onlyOwner {\n        queries[id].status = Status.Fulfilled;\n    }\n}\n",
  "sourcePath": "/Users/derain/Projects/ZapContracts/contracts/dispatch/DispatchStorage.sol",
  "compiler": {
    "name": "solc",
    "version": "0.4.19+commit.c4cbbb05.Emscripten.clang"
  },
  "schemaVersion": "2.0.0",
  "updatedAt": "2018-05-15T10:07:26.323Z"
}