{
  "contractName": "Faucet",
  "abi": [
    {
      "constant": true,
      "inputs": [],
      "name": "amt",
      "outputs": [
        {
          "name": "",
          "type": "uint256"
        }
      ],
      "payable": false,
      "stateMutability": "view",
      "type": "function"
    },
    {
      "constant": true,
      "inputs": [],
      "name": "rate",
      "outputs": [
        {
          "name": "",
          "type": "uint256"
        }
      ],
      "payable": false,
      "stateMutability": "view",
      "type": "function"
    },
    {
      "constant": true,
      "inputs": [],
      "name": "decimals",
      "outputs": [
        {
          "name": "",
          "type": "uint256"
        }
      ],
      "payable": false,
      "stateMutability": "view",
      "type": "function"
    },
    {
      "constant": true,
      "inputs": [],
      "name": "owner",
      "outputs": [
        {
          "name": "",
          "type": "address"
        }
      ],
      "payable": false,
      "stateMutability": "view",
      "type": "function"
    },
    {
      "constant": true,
      "inputs": [],
      "name": "tokenAddress",
      "outputs": [
        {
          "name": "",
          "type": "address"
        }
      ],
      "payable": false,
      "stateMutability": "view",
      "type": "function"
    },
    {
      "inputs": [
        {
          "name": "token",
          "type": "address"
        },
        {
          "name": "owner",
          "type": "address"
        }
      ],
      "payable": false,
      "stateMutability": "nonpayable",
      "type": "constructor"
    },
    {
      "payable": true,
      "stateMutability": "payable",
      "type": "fallback"
    },
    {
      "anonymous": false,
      "inputs": [
        {
          "indexed": false,
          "name": "n1",
          "type": "uint256"
        },
        {
          "indexed": false,
          "name": "n2",
          "type": "uint256"
        }
      ],
      "name": "Log",
      "type": "event"
    },
    {
      "constant": false,
      "inputs": [
        {
          "name": "owner",
          "type": "address"
        }
      ],
      "name": "setOwner",
      "outputs": [],
      "payable": false,
      "stateMutability": "nonpayable",
      "type": "function"
    },
    {
      "constant": false,
      "inputs": [],
      "name": "withdrawTok",
      "outputs": [],
      "payable": false,
      "stateMutability": "nonpayable",
      "type": "function"
    },
    {
      "constant": false,
      "inputs": [],
      "name": "withdrawEther",
      "outputs": [],
      "payable": false,
      "stateMutability": "nonpayable",
      "type": "function"
    }
  ],
  "bytecode": "0x60606040526509184e72a000600455600454601a02600555341561002257600080fd5b604051604080610ad78339810160405280805190602001909190805190602001909190505081600360006101000a81548173ffffffffffffffffffffffffffffffffffffffff021916908373ffffffffffffffffffffffffffffffffffffffff1602179055508191508090505050610a388061009f6000396000f30060606040526004361061008e576000357c0100000000000000000000000000000000000000000000000000000000900463ffffffff1680630f33a2a9146103d757806313af4035146103ec57806316eab96b146104255780632c4e722e1461044e578063313ce567146104775780637362377b146104a05780638da5cb5b146104b55780639d76ea581461050a575b60003411156103d0577fbd0faddf87043dd749c1b9d4dca8a12589b8cb5e2106832111ce23f219b1436734600554604051808381526020018281526020019250505060405180910390a1600554348115156100e557fe5b04600181905550670de0b6b3a7640000600154026001819055507fbd0faddf87043dd749c1b9d4dca8a12589b8cb5e2106832111ce23f219b143676001546000809054906101000a900473ffffffffffffffffffffffffffffffffffffffff1673ffffffffffffffffffffffffffffffffffffffff166370a08231306040518263ffffffff167c0100000000000000000000000000000000000000000000000000000000028152600401808273ffffffffffffffffffffffffffffffffffffffff1673ffffffffffffffffffffffffffffffffffffffff168152602001915050602060405180830381600087803b15156101de57600080fd5b5af115156101eb57600080fd5b50505060405180519050604051808381526020018281526020019250505060405180910390a16000809054906101000a900473ffffffffffffffffffffffffffffffffffffffff1673ffffffffffffffffffffffffffffffffffffffff166370a08231306040518263ffffffff167c0100000000000000000000000000000000000000000000000000000000028152600401808273ffffffffffffffffffffffffffffffffffffffff1673ffffffffffffffffffffffffffffffffffffffff168152602001915050602060405180830381600087803b15156102cc57600080fd5b5af115156102d957600080fd5b505050604051805190506001541115156103cb576000809054906101000a900473ffffffffffffffffffffffffffffffffffffffff1673ffffffffffffffffffffffffffffffffffffffff1663a9059cbb336001546040518363ffffffff167c0100000000000000000000000000000000000000000000000000000000028152600401808373ffffffffffffffffffffffffffffffffffffffff1673ffffffffffffffffffffffffffffffffffffffff16815260200182815260200192505050602060405180830381600087803b15156103b257600080fd5b5af115156103bf57600080fd5b50505060405180519050505b6103d5565b600080fd5b005b34156103e257600080fd5b6103ea61055f565b005b34156103f757600080fd5b610423600480803573ffffffffffffffffffffffffffffffffffffffff169060200190919050506107e7565b005b341561043057600080fd5b610438610885565b6040518082815260200191505060405180910390f35b341561045957600080fd5b61046161088b565b6040518082815260200191505060405180910390f35b341561048257600080fd5b61048a610891565b6040518082815260200191505060405180910390f35b34156104ab57600080fd5b6104b3610897565b005b34156104c057600080fd5b6104c86109c0565b604051808273ffffffffffffffffffffffffffffffffffffffff1673ffffffffffffffffffffffffffffffffffffffff16815260200191505060405180910390f35b341561051557600080fd5b61051d6109e6565b604051808273ffffffffffffffffffffffffffffffffffffffff1673ffffffffffffffffffffffffffffffffffffffff16815260200191505060405180910390f35b600260009054906101000a900473ffffffffffffffffffffffffffffffffffffffff1673ffffffffffffffffffffffffffffffffffffffff163373ffffffffffffffffffffffffffffffffffffffff161415156105bb57600080fd5b3373ffffffffffffffffffffffffffffffffffffffff16600260009054906101000a900473ffffffffffffffffffffffffffffffffffffffff1673ffffffffffffffffffffffffffffffffffffffff1614151561061757600080fd5b6000809054906101000a900473ffffffffffffffffffffffffffffffffffffffff1673ffffffffffffffffffffffffffffffffffffffff1663a9059cbb600260009054906101000a900473ffffffffffffffffffffffffffffffffffffffff166000809054906101000a900473ffffffffffffffffffffffffffffffffffffffff1673ffffffffffffffffffffffffffffffffffffffff166370a08231306040518263ffffffff167c0100000000000000000000000000000000000000000000000000000000028152600401808273ffffffffffffffffffffffffffffffffffffffff1673ffffffffffffffffffffffffffffffffffffffff168152602001915050602060405180830381600087803b151561073257600080fd5b5af1151561073f57600080fd5b505050604051805190506040518363ffffffff167c0100000000000000000000000000000000000000000000000000000000028152600401808373ffffffffffffffffffffffffffffffffffffffff1673ffffffffffffffffffffffffffffffffffffffff16815260200182815260200192505050602060405180830381600087803b15156107cd57600080fd5b5af115156107da57600080fd5b5050506040518051905050565b600260009054906101000a900473ffffffffffffffffffffffffffffffffffffffff1673ffffffffffffffffffffffffffffffffffffffff163373ffffffffffffffffffffffffffffffffffffffff1614151561084357600080fd5b600073ffffffffffffffffffffffffffffffffffffffff168173ffffffffffffffffffffffffffffffffffffffff161415151561087f57600080fd5b80905050565b60015481565b60055481565b60045481565b600260009054906101000a900473ffffffffffffffffffffffffffffffffffffffff1673ffffffffffffffffffffffffffffffffffffffff163373ffffffffffffffffffffffffffffffffffffffff161415156108f357600080fd5b3373ffffffffffffffffffffffffffffffffffffffff16600260009054906101000a900473ffffffffffffffffffffffffffffffffffffffff1673ffffffffffffffffffffffffffffffffffffffff1614151561094f57600080fd5b600260009054906101000a900473ffffffffffffffffffffffffffffffffffffffff1673ffffffffffffffffffffffffffffffffffffffff166108fc3073ffffffffffffffffffffffffffffffffffffffff16319081150290604051600060405180830381858888f1935050505050565b600260009054906101000a900473ffffffffffffffffffffffffffffffffffffffff1681565b600360009054906101000a900473ffffffffffffffffffffffffffffffffffffffff16815600a165627a7a7230582075b0864bbd90906e5290adb1dbd86a0621ee6c4de4de4dd2eaf1c8899dddd7490029",
  "source": "pragma solidity ^0.4.18;\n\ncontract Token {\n    function transfer(address to, uint256 amount) returns (bool);\n    function balanceOf(address addr) constant returns (uint256);\n}\n            \ncontract Faucet {\n    Token token;\n    uint256 public amt;\n    address public owner;\n    address public tokenAddress;\n\n    uint public decimals = 10 ** 13;\n    uint public rate = 26 * decimals; //change to whatever\n    \n    modifier ownerOnly {\n        require(msg.sender == owner); \n        _;\n    }\n           \n    function Faucet(address token, address owner) public {\n        tokenAddress = token;\n        token = Token(token);\n        owner = owner;\n    }\n    \n    event Log(uint256 n1, uint256 n2);\n    \n    function() payable {\n        if(msg.value > 0) {\n            Log(msg.value, rate);\n            amt = (msg.value / rate);\n            amt = amt * (10 ** 18);\n            Log(amt, token.balanceOf(this));\n            if(amt <= token.balanceOf(this))\n                token.transfer(msg.sender, amt);                \n        }\n        else {\n            revert();\n        }\n    }\n  \n    function setOwner(address owner) public ownerOnly {\n        require(owner != address(0));\n        owner = owner;\n    }\n    \n    function withdrawTok() public ownerOnly {\n        if (owner != msg.sender) revert();\n        token.transfer(owner, token.balanceOf(this));        \n    }\n    \n    function withdrawEther() public ownerOnly {\n        if (owner != msg.sender) revert();\n        owner.send(this.balance);\n    }   \n}\n",
  "sourcePath": "/home/iefnw/office/browser/docker/ZapContracts/contracts/token/Faucet.sol",
  "compiler": {
    "name": "solc",
    "version": "0.4.21+commit.dfe3193c.Emscripten.clang"
  },
  "schemaVersion": "2.0.0",
  "updatedAt": "2018-05-09T21:35:55.815Z"
}