{
  "contractName": "RegistryStorage",
  "abi": [
    {
      "constant": true,
      "inputs": [],
      "name": "owner",
      "outputs": [
        {
          "name": "",
          "type": "address"
        }
      ],
      "payable": false,
      "stateMutability": "view",
      "type": "function"
    },
    {
      "constant": false,
      "inputs": [
        {
          "name": "newOwner",
          "type": "address"
        }
      ],
      "name": "transferOwnership",
      "outputs": [],
      "payable": false,
      "stateMutability": "nonpayable",
      "type": "function"
    },
    {
      "anonymous": false,
      "inputs": [
        {
          "indexed": true,
          "name": "previousOwner",
          "type": "address"
        },
        {
          "indexed": true,
          "name": "newOwner",
          "type": "address"
        }
      ],
      "name": "OwnershipTransferred",
      "type": "event"
    },
    {
      "constant": true,
      "inputs": [
        {
          "name": "provider",
          "type": "address"
        }
      ],
      "name": "getPublicKey",
      "outputs": [
        {
          "name": "",
          "type": "uint256"
        }
      ],
      "payable": false,
      "stateMutability": "view",
      "type": "function"
    },
    {
      "constant": true,
      "inputs": [
        {
          "name": "provider",
          "type": "address"
        }
      ],
      "name": "getTitle",
      "outputs": [
        {
          "name": "",
          "type": "bytes32"
        }
      ],
      "payable": false,
      "stateMutability": "view",
      "type": "function"
    },
    {
      "constant": true,
      "inputs": [
        {
          "name": "provider",
          "type": "address"
        },
        {
          "name": "endpoint",
          "type": "bytes32"
        }
      ],
      "name": "getEndpointIndexSize",
      "outputs": [
        {
          "name": "",
          "type": "uint256"
        }
      ],
      "payable": false,
      "stateMutability": "view",
      "type": "function"
    },
    {
      "constant": true,
      "inputs": [
        {
          "name": "provider",
          "type": "address"
        },
        {
          "name": "endpoint",
          "type": "bytes32"
        },
        {
          "name": "index",
          "type": "uint256"
        }
      ],
      "name": "getEndPointParam",
      "outputs": [
        {
          "name": "",
          "type": "bytes32"
        }
      ],
      "payable": false,
      "stateMutability": "view",
      "type": "function"
    },
    {
      "constant": true,
      "inputs": [
        {
          "name": "provider",
          "type": "address"
        },
        {
          "name": "endpoint",
          "type": "bytes32"
        }
      ],
      "name": "getCurve",
      "outputs": [
        {
          "name": "Type",
          "type": "uint8"
        },
        {
          "name": "Start",
          "type": "uint128"
        },
        {
          "name": "Multiplier",
          "type": "uint128"
        }
      ],
      "payable": false,
      "stateMutability": "view",
      "type": "function"
    },
    {
      "constant": true,
      "inputs": [],
      "name": "getOracleIndexSize",
      "outputs": [
        {
          "name": "",
          "type": "uint256"
        }
      ],
      "payable": false,
      "stateMutability": "view",
      "type": "function"
    },
    {
      "constant": true,
      "inputs": [
        {
          "name": "index",
          "type": "uint256"
        }
      ],
      "name": "getOracleAddress",
      "outputs": [
        {
          "name": "",
          "type": "address"
        }
      ],
      "payable": false,
      "stateMutability": "view",
      "type": "function"
    },
    {
      "constant": false,
      "inputs": [
        {
          "name": "origin",
          "type": "address"
        },
        {
          "name": "publicKey",
          "type": "uint256"
        },
        {
          "name": "title",
          "type": "bytes32"
        }
      ],
      "name": "createOracle",
      "outputs": [],
      "payable": false,
      "stateMutability": "nonpayable",
      "type": "function"
    },
    {
      "constant": false,
      "inputs": [
        {
          "name": "origin",
          "type": "address"
        }
      ],
      "name": "addOracle",
      "outputs": [],
      "payable": false,
      "stateMutability": "nonpayable",
      "type": "function"
    },
    {
      "constant": false,
      "inputs": [
        {
          "name": "origin",
          "type": "address"
        },
        {
          "name": "endpoint",
          "type": "bytes32"
        },
        {
          "name": "endpointParams",
          "type": "bytes32[]"
        }
      ],
      "name": "setEndpointParameters",
      "outputs": [],
      "payable": false,
      "stateMutability": "nonpayable",
      "type": "function"
    },
    {
      "constant": false,
      "inputs": [
        {
          "name": "origin",
          "type": "address"
        },
        {
          "name": "endpoint",
          "type": "bytes32"
        },
        {
          "name": "curveType",
          "type": "uint8"
        },
        {
          "name": "curveStart",
          "type": "uint128"
        },
        {
          "name": "curveMultiplier",
          "type": "uint128"
        }
      ],
      "name": "setCurve",
      "outputs": [],
      "payable": false,
      "stateMutability": "nonpayable",
      "type": "function"
    }
  ],
  "bytecode": "0x6080604052336000806101000a81548173ffffffffffffffffffffffffffffffffffffffff021916908373ffffffffffffffffffffffffffffffffffffffff160217905550610fa1806100536000396000f3006080604052600436106100c5576000357c0100000000000000000000000000000000000000000000000000000000900463ffffffff168063857cdbb8146100ca5780638da5cb5b146101215780639217c438146101785780639a04b2d9146101e5578063b3c0b7be1461024a578063b9552c60146102a5578063bb74ce74146102d0578063c6d1d82a14610366578063cc314338146103cf578063d24c674114610498578063df5dd1a51461050f578063f2fde38b14610552578063f51d7d5f14610595575b600080fd5b3480156100d657600080fd5b5061010b600480360381019080803573ffffffffffffffffffffffffffffffffffffffff1690602001909291905050506105f4565b6040518082815260200191505060405180910390f35b34801561012d57600080fd5b50610136610640565b604051808273ffffffffffffffffffffffffffffffffffffffff1673ffffffffffffffffffffffffffffffffffffffff16815260200191505060405180910390f35b34801561018457600080fd5b506101a360048036038101908080359060200190929190505050610665565b604051808273ffffffffffffffffffffffffffffffffffffffff1673ffffffffffffffffffffffffffffffffffffffff16815260200191505060405180910390f35b3480156101f157600080fd5b50610234600480360381019080803573ffffffffffffffffffffffffffffffffffffffff16906020019092919080356000191690602001909291905050506106a8565b6040518082815260200191505060405180910390f35b34801561025657600080fd5b506102a3600480360381019080803573ffffffffffffffffffffffffffffffffffffffff169060200190929190803590602001909291908035600019169060200190929190505050610711565b005b3480156102b157600080fd5b506102ba6107e6565b6040518082815260200191505060405180910390f35b3480156102dc57600080fd5b50610364600480360381019080803573ffffffffffffffffffffffffffffffffffffffff1690602001909291908035600019169060200190929190803560ff16906020019092919080356fffffffffffffffffffffffffffffffff16906020019092919080356fffffffffffffffffffffffffffffffff1690602001909291905050506107f3565b005b34801561037257600080fd5b506103cd600480360381019080803573ffffffffffffffffffffffffffffffffffffffff16906020019092919080356000191690602001909291908035906020019082018035906020019190919293919293905050506109a5565b005b3480156103db57600080fd5b5061041e600480360381019080803573ffffffffffffffffffffffffffffffffffffffff1690602001909291908035600019169060200190929190505050610a71565b6040518084600381111561042e57fe5b60ff168152602001836fffffffffffffffffffffffffffffffff166fffffffffffffffffffffffffffffffff168152602001826fffffffffffffffffffffffffffffffff166fffffffffffffffffffffffffffffffff168152602001935050505060405180910390f35b3480156104a457600080fd5b506104f1600480360381019080803573ffffffffffffffffffffffffffffffffffffffff169060200190929190803560001916906020019092919080359060200190929190505050610bc5565b60405180826000191660001916815260200191505060405180910390f35b34801561051b57600080fd5b50610550600480360381019080803573ffffffffffffffffffffffffffffffffffffffff169060200190929190505050610c43565b005b34801561055e57600080fd5b50610593600480360381019080803573ffffffffffffffffffffffffffffffffffffffff169060200190929190505050610d07565b005b3480156105a157600080fd5b506105d6600480360381019080803573ffffffffffffffffffffffffffffffffffffffff169060200190929190505050610e5c565b60405180826000191660001916815260200191505060405180910390f35b6000600160008373ffffffffffffffffffffffffffffffffffffffff1673ffffffffffffffffffffffffffffffffffffffff168152602001908152602001600020600001549050919050565b6000809054906101000a900473ffffffffffffffffffffffffffffffffffffffff1681565b600060028281548110151561067657fe5b9060005260206000200160009054906101000a900473ffffffffffffffffffffffffffffffffffffffff169050919050565b6000600160008473ffffffffffffffffffffffffffffffffffffffff1673ffffffffffffffffffffffffffffffffffffffff1681526020019081526020016000206002016000836000191660001916815260200190815260200160002080549050905092915050565b6000809054906101000a900473ffffffffffffffffffffffffffffffffffffffff1673ffffffffffffffffffffffffffffffffffffffff163373ffffffffffffffffffffffffffffffffffffffff1614151561076c57600080fd5b60408051908101604052808381526020018260001916815250600160008573ffffffffffffffffffffffffffffffffffffffff1673ffffffffffffffffffffffffffffffffffffffff1681526020019081526020016000206000820151816000015560208201518160010190600019169055905050505050565b6000600280549050905090565b6000809054906101000a900473ffffffffffffffffffffffffffffffffffffffff1673ffffffffffffffffffffffffffffffffffffffff163373ffffffffffffffffffffffffffffffffffffffff1614151561084e57600080fd5b60606040519081016040528084600381111561086657fe5b8152602001836fffffffffffffffffffffffffffffffff168152602001826fffffffffffffffffffffffffffffffff16815250600160008773ffffffffffffffffffffffffffffffffffffffff1673ffffffffffffffffffffffffffffffffffffffff1681526020019081526020016000206003016000866000191660001916815260200190815260200160002060008201518160000160006101000a81548160ff0219169083600381111561091857fe5b021790555060208201518160000160016101000a8154816fffffffffffffffffffffffffffffffff02191690836fffffffffffffffffffffffffffffffff16021790555060408201518160010160006101000a8154816fffffffffffffffffffffffffffffffff02191690836fffffffffffffffffffffffffffffffff1602179055509050505050505050565b6000809054906101000a900473ffffffffffffffffffffffffffffffffffffffff1673ffffffffffffffffffffffffffffffffffffffff163373ffffffffffffffffffffffffffffffffffffffff16141515610a0057600080fd5b8181600160008773ffffffffffffffffffffffffffffffffffffffff1673ffffffffffffffffffffffffffffffffffffffff168152602001908152602001600020600201600086600019166000191681526020019081526020016000209190610a6a929190610ea8565b5050505050565b6000806000610a7e610eff565b600160008773ffffffffffffffffffffffffffffffffffffffff1673ffffffffffffffffffffffffffffffffffffffff16815260200190815260200160002060030160008660001916600019168152602001908152602001600020606060405190810160405290816000820160009054906101000a900460ff166003811115610b0357fe5b6003811115610b0e57fe5b81526020016000820160019054906101000a90046fffffffffffffffffffffffffffffffff166fffffffffffffffffffffffffffffffff166fffffffffffffffffffffffffffffffff1681526020016001820160009054906101000a90046fffffffffffffffffffffffffffffffff166fffffffffffffffffffffffffffffffff166fffffffffffffffffffffffffffffffff16815250509050806000015181602001518260400151935093509350509250925092565b6000600160008573ffffffffffffffffffffffffffffffffffffffff1673ffffffffffffffffffffffffffffffffffffffff1681526020019081526020016000206002016000846000191660001916815260200190815260200160002082815481101515610c2f57fe5b906000526020600020015490509392505050565b6000809054906101000a900473ffffffffffffffffffffffffffffffffffffffff1673ffffffffffffffffffffffffffffffffffffffff163373ffffffffffffffffffffffffffffffffffffffff16141515610c9e57600080fd5b60028190806001815401808255809150509060018203906000526020600020016000909192909190916101000a81548173ffffffffffffffffffffffffffffffffffffffff021916908373ffffffffffffffffffffffffffffffffffffffff1602179055505050565b6000809054906101000a900473ffffffffffffffffffffffffffffffffffffffff1673ffffffffffffffffffffffffffffffffffffffff163373ffffffffffffffffffffffffffffffffffffffff16141515610d6257600080fd5b600073ffffffffffffffffffffffffffffffffffffffff168173ffffffffffffffffffffffffffffffffffffffff1614151515610d9e57600080fd5b8073ffffffffffffffffffffffffffffffffffffffff166000809054906101000a900473ffffffffffffffffffffffffffffffffffffffff1673ffffffffffffffffffffffffffffffffffffffff167f8be0079c531659141344cd1fd0a4f28419497f9722a3daafe3b4186f6b6457e060405160405180910390a3806000806101000a81548173ffffffffffffffffffffffffffffffffffffffff021916908373ffffffffffffffffffffffffffffffffffffffff16021790555050565b6000600160008373ffffffffffffffffffffffffffffffffffffffff1673ffffffffffffffffffffffffffffffffffffffff168152602001908152602001600020600101549050919050565b828054828255906000526020600020908101928215610eee579160200282015b82811115610eed57823560001916829060001916905591602001919060010190610ec8565b5b509050610efb9190610f50565b5090565b60606040519081016040528060006003811115610f1857fe5b815260200160006fffffffffffffffffffffffffffffffff16815260200160006fffffffffffffffffffffffffffffffff1681525090565b610f7291905b80821115610f6e576000816000905550600101610f56565b5090565b905600a165627a7a72305820e2613b80cc0fd76d882145d9c24f7a11ef986027871fe7bf5a7d9b7cdc13bbe00029",
  "source": "pragma solidity ^0.4.19;\n\nimport \"../lib/Destructible.sol\";\n\ncontract RegistryStorage is Ownable {\n\n    // curve types representing dot(access token) prices as function of supply\n    enum CurveType { None, Linear, Exponential, Logarithmic }\n\n    // curve data structure representing dot(access token) prices as function of supply\n    struct Curve {\n        CurveType Type;\n        uint128 Start;\n        uint128 Multiplier;\n    }\n\n    // fundamental account type for the platform\n    struct Oracle {\n        uint256 publicKey;                               // Public key of the data provider\n        bytes32 title;                                   // Tags (csv)\n        mapping(bytes32 => bytes32[]) endpointParams;    // Endpoint specific parameters\n        mapping(bytes32 => Curve) curves;                // Price vs Supply (contract endpoint)\n    }\n\n    mapping(address => Oracle) private oracles;\n    address[] private oracleIndex;\n\n    /**** Get Methods ****/\n\n    function getPublicKey(address provider) external view returns (uint256) {\n        return oracles[provider].publicKey;\n    }\n\n    function getTitle(address provider) external view returns (bytes32) {\n        return oracles[provider].title;\n    }\n\n    function getEndpointIndexSize(address provider, bytes32 endpoint) external view returns (uint256) {\n        return oracles[provider].endpointParams[endpoint].length;\n    }    \n\n    function getEndPointParam(address provider, bytes32 endpoint, uint256 index) external view returns (bytes32) {\n        return oracles[provider].endpointParams[endpoint][index];\n    }\n\n    function getCurve(address provider, bytes32 endpoint)\n        external\n        view\n        returns (CurveType Type, uint128 Start, uint128 Multiplier)\n    {\n        Curve memory curve = oracles[provider].curves[endpoint];\n\n        return (curve.Type, curve.Start, curve.Multiplier);\n    }\n\n    function getOracleIndexSize() external view returns (uint256) {\n        return oracleIndex.length;\n    }\n\n    function getOracleAddress(uint256 index) external view returns (address) {\n        return oracleIndex[index];\n    }\n\n    /**** Set Methods ****/\n\n    function createOracle(address origin, uint256 publicKey, bytes32 title) external onlyOwner {\n        oracles[origin] = Oracle(publicKey, title);\n    }\n\n    function addOracle(address origin) external onlyOwner {\n        oracleIndex.push(origin);\n    }\n\n    function setEndpointParameters(\n        address origin,\n        bytes32 endpoint,\n        bytes32[] endpointParams\n    )\n        external\n        onlyOwner\n\n    {\n        oracles[origin].endpointParams[endpoint] = endpointParams;\n    }\n\n    function setCurve(\n        address origin,\n        bytes32 endpoint,\n        CurveType curveType,\n        uint128 curveStart,\n        uint128 curveMultiplier\n    ) \n        external\n        onlyOwner\n\n    {\n        oracles[origin].curves[endpoint] = Curve(curveType, curveStart, curveMultiplier);\n    }\n}\n",
  "sourcePath": "/Users/derain/Projects/ZapContracts/contracts/registry/RegistryStorage.sol",
  "compiler": {
    "name": "solc",
    "version": "0.4.23+commit.124ca40d.Emscripten.clang"
  },
  "schemaVersion": "2.0.0",
  "updatedAt": "2018-05-15T10:07:26.298Z"
}