{
  "contractName": "RegistryStorage",
  "abi": [
    {
      "constant": true,
      "inputs": [],
      "name": "owner",
      "outputs": [
        {
          "name": "",
          "type": "address"
        }
      ],
      "payable": false,
      "stateMutability": "view",
      "type": "function"
    },
    {
      "constant": false,
      "inputs": [
        {
          "name": "newOwner",
          "type": "address"
        }
      ],
      "name": "transferOwnership",
      "outputs": [],
      "payable": false,
      "stateMutability": "nonpayable",
      "type": "function"
    },
    {
      "anonymous": false,
      "inputs": [
        {
          "indexed": true,
          "name": "previousOwner",
          "type": "address"
        },
        {
          "indexed": true,
          "name": "newOwner",
          "type": "address"
        }
      ],
      "name": "OwnershipTransferred",
      "type": "event"
    },
    {
      "constant": true,
      "inputs": [
        {
          "name": "provider",
          "type": "address"
        }
      ],
      "name": "getPublicKey",
      "outputs": [
        {
          "name": "",
          "type": "uint256"
        }
      ],
      "payable": false,
      "stateMutability": "view",
      "type": "function"
    },
    {
      "constant": true,
      "inputs": [
        {
          "name": "provider",
          "type": "address"
        }
      ],
      "name": "getTitle",
      "outputs": [
        {
          "name": "",
          "type": "bytes32"
        }
      ],
      "payable": false,
      "stateMutability": "view",
      "type": "function"
    },
    {
      "constant": true,
      "inputs": [
        {
          "name": "provider",
          "type": "address"
        },
        {
          "name": "endpoint",
          "type": "bytes32"
        }
      ],
      "name": "getEndpointIndexSize",
      "outputs": [
        {
          "name": "",
          "type": "uint256"
        }
      ],
      "payable": false,
      "stateMutability": "view",
      "type": "function"
    },
    {
      "constant": true,
      "inputs": [
        {
          "name": "provider",
          "type": "address"
        },
        {
          "name": "endpoint",
          "type": "bytes32"
        },
        {
          "name": "index",
          "type": "uint256"
        }
      ],
      "name": "getEndPointParam",
      "outputs": [
        {
          "name": "",
          "type": "bytes32"
        }
      ],
      "payable": false,
      "stateMutability": "view",
      "type": "function"
    },
    {
      "constant": true,
      "inputs": [
        {
          "name": "provider",
          "type": "address"
        },
        {
          "name": "endpoint",
          "type": "bytes32"
        }
      ],
      "name": "getCurve",
      "outputs": [
        {
          "name": "Type",
          "type": "uint8"
        },
        {
          "name": "Start",
          "type": "uint128"
        },
        {
          "name": "Multiplier",
          "type": "uint128"
        }
      ],
      "payable": false,
      "stateMutability": "view",
      "type": "function"
    },
    {
      "constant": true,
      "inputs": [],
      "name": "getOracleIndexSize",
      "outputs": [
        {
          "name": "",
          "type": "uint256"
        }
      ],
      "payable": false,
      "stateMutability": "view",
      "type": "function"
    },
    {
      "constant": true,
      "inputs": [
        {
          "name": "index",
          "type": "uint256"
        }
      ],
      "name": "getOracleAddress",
      "outputs": [
        {
          "name": "",
          "type": "address"
        }
      ],
      "payable": false,
      "stateMutability": "view",
      "type": "function"
    },
    {
      "constant": false,
      "inputs": [
        {
          "name": "origin",
          "type": "address"
        },
        {
          "name": "publicKey",
          "type": "uint256"
        },
        {
          "name": "title",
          "type": "bytes32"
        }
      ],
      "name": "createOracle",
      "outputs": [],
      "payable": false,
      "stateMutability": "nonpayable",
      "type": "function"
    },
    {
      "constant": false,
      "inputs": [
        {
          "name": "origin",
          "type": "address"
        }
      ],
      "name": "addOracle",
      "outputs": [],
      "payable": false,
      "stateMutability": "nonpayable",
      "type": "function"
    },
    {
      "constant": false,
      "inputs": [
        {
          "name": "origin",
          "type": "address"
        },
        {
          "name": "endpoint",
          "type": "bytes32"
        },
        {
          "name": "endpointParams",
          "type": "bytes32[]"
        }
      ],
      "name": "setEndpointParameters",
      "outputs": [],
      "payable": false,
      "stateMutability": "nonpayable",
      "type": "function"
    },
    {
      "constant": false,
      "inputs": [
        {
          "name": "origin",
          "type": "address"
        },
        {
          "name": "endpoint",
          "type": "bytes32"
        },
        {
          "name": "curveType",
          "type": "uint8"
        },
        {
          "name": "curveStart",
          "type": "uint128"
        },
        {
          "name": "curveMultiplier",
          "type": "uint128"
        }
      ],
      "name": "setCurve",
      "outputs": [],
      "payable": false,
      "stateMutability": "nonpayable",
      "type": "function"
    }
  ],
  "bytecode": "0x6060604052336000806101000a81548173ffffffffffffffffffffffffffffffffffffffff021916908373ffffffffffffffffffffffffffffffffffffffff160217905550610f70806100536000396000f3006060604052600436106100c5576000357c0100000000000000000000000000000000000000000000000000000000900463ffffffff168063857cdbb8146100ca5780638da5cb5b146101175780639217c4381461016c5780639a04b2d9146101cf578063b3c0b7be14610229578063b9552c6014610278578063bb74ce74146102a1578063c6d1d82a14610329578063cc31433814610383578063d24c674114610441578063df5dd1a5146104ac578063f2fde38b146104e5578063f51d7d5f1461051e575b600080fd5b34156100d557600080fd5b610101600480803573ffffffffffffffffffffffffffffffffffffffff16906020019091905050610573565b6040518082815260200191505060405180910390f35b341561012257600080fd5b61012a6105bf565b604051808273ffffffffffffffffffffffffffffffffffffffff1673ffffffffffffffffffffffffffffffffffffffff16815260200191505060405180910390f35b341561017757600080fd5b61018d60048080359060200190919050506105e4565b604051808273ffffffffffffffffffffffffffffffffffffffff1673ffffffffffffffffffffffffffffffffffffffff16815260200191505060405180910390f35b34156101da57600080fd5b610213600480803573ffffffffffffffffffffffffffffffffffffffff1690602001909190803560001916906020019091905050610628565b6040518082815260200191505060405180910390f35b341561023457600080fd5b610276600480803573ffffffffffffffffffffffffffffffffffffffff1690602001909190803590602001909190803560001916906020019091905050610691565b005b341561028357600080fd5b61028b610766565b6040518082815260200191505060405180910390f35b34156102ac57600080fd5b610327600480803573ffffffffffffffffffffffffffffffffffffffff169060200190919080356000191690602001909190803560ff169060200190919080356fffffffffffffffffffffffffffffffff169060200190919080356fffffffffffffffffffffffffffffffff16906020019091905050610773565b005b341561033457600080fd5b610381600480803573ffffffffffffffffffffffffffffffffffffffff16906020019091908035600019169060200190919080359060200190820180359060200191909192905050610925565b005b341561038e57600080fd5b6103c7600480803573ffffffffffffffffffffffffffffffffffffffff16906020019091908035600019169060200190919050506109f1565b604051808460038111156103d757fe5b60ff168152602001836fffffffffffffffffffffffffffffffff166fffffffffffffffffffffffffffffffff168152602001826fffffffffffffffffffffffffffffffff166fffffffffffffffffffffffffffffffff168152602001935050505060405180910390f35b341561044c57600080fd5b61048e600480803573ffffffffffffffffffffffffffffffffffffffff1690602001909190803560001916906020019091908035906020019091905050610b45565b60405180826000191660001916815260200191505060405180910390f35b34156104b757600080fd5b6104e3600480803573ffffffffffffffffffffffffffffffffffffffff16906020019091905050610bc4565b005b34156104f057600080fd5b61051c600480803573ffffffffffffffffffffffffffffffffffffffff16906020019091905050610c85565b005b341561052957600080fd5b610555600480803573ffffffffffffffffffffffffffffffffffffffff16906020019091905050610dda565b60405180826000191660001916815260200191505060405180910390f35b6000600160008373ffffffffffffffffffffffffffffffffffffffff1673ffffffffffffffffffffffffffffffffffffffff168152602001908152602001600020600001549050919050565b6000809054906101000a900473ffffffffffffffffffffffffffffffffffffffff1681565b60006002828154811015156105f557fe5b906000526020600020900160009054906101000a900473ffffffffffffffffffffffffffffffffffffffff169050919050565b6000600160008473ffffffffffffffffffffffffffffffffffffffff1673ffffffffffffffffffffffffffffffffffffffff1681526020019081526020016000206002016000836000191660001916815260200190815260200160002080549050905092915050565b6000809054906101000a900473ffffffffffffffffffffffffffffffffffffffff1673ffffffffffffffffffffffffffffffffffffffff163373ffffffffffffffffffffffffffffffffffffffff161415156106ec57600080fd5b60408051908101604052808381526020018260001916815250600160008573ffffffffffffffffffffffffffffffffffffffff1673ffffffffffffffffffffffffffffffffffffffff1681526020019081526020016000206000820151816000015560208201518160010190600019169055905050505050565b6000600280549050905090565b6000809054906101000a900473ffffffffffffffffffffffffffffffffffffffff1673ffffffffffffffffffffffffffffffffffffffff163373ffffffffffffffffffffffffffffffffffffffff161415156107ce57600080fd5b6060604051908101604052808460038111156107e657fe5b8152602001836fffffffffffffffffffffffffffffffff168152602001826fffffffffffffffffffffffffffffffff16815250600160008773ffffffffffffffffffffffffffffffffffffffff1673ffffffffffffffffffffffffffffffffffffffff1681526020019081526020016000206003016000866000191660001916815260200190815260200160002060008201518160000160006101000a81548160ff0219169083600381111561089857fe5b021790555060208201518160000160016101000a8154816fffffffffffffffffffffffffffffffff02191690836fffffffffffffffffffffffffffffffff16021790555060408201518160010160006101000a8154816fffffffffffffffffffffffffffffffff02191690836fffffffffffffffffffffffffffffffff1602179055509050505050505050565b6000809054906101000a900473ffffffffffffffffffffffffffffffffffffffff1673ffffffffffffffffffffffffffffffffffffffff163373ffffffffffffffffffffffffffffffffffffffff1614151561098057600080fd5b8181600160008773ffffffffffffffffffffffffffffffffffffffff1673ffffffffffffffffffffffffffffffffffffffff1681526020019081526020016000206002016000866000191660001916815260200190815260200160002091906109ea929190610e26565b5050505050565b60008060006109fe610e7d565b600160008773ffffffffffffffffffffffffffffffffffffffff1673ffffffffffffffffffffffffffffffffffffffff16815260200190815260200160002060030160008660001916600019168152602001908152602001600020606060405190810160405290816000820160009054906101000a900460ff166003811115610a8357fe5b6003811115610a8e57fe5b81526020016000820160019054906101000a90046fffffffffffffffffffffffffffffffff166fffffffffffffffffffffffffffffffff166fffffffffffffffffffffffffffffffff1681526020016001820160009054906101000a90046fffffffffffffffffffffffffffffffff166fffffffffffffffffffffffffffffffff166fffffffffffffffffffffffffffffffff16815250509050806000015181602001518260400151935093509350509250925092565b6000600160008573ffffffffffffffffffffffffffffffffffffffff1673ffffffffffffffffffffffffffffffffffffffff1681526020019081526020016000206002016000846000191660001916815260200190815260200160002082815481101515610baf57fe5b90600052602060002090015490509392505050565b6000809054906101000a900473ffffffffffffffffffffffffffffffffffffffff1673ffffffffffffffffffffffffffffffffffffffff163373ffffffffffffffffffffffffffffffffffffffff16141515610c1f57600080fd5b60028054806001018281610c339190610ece565b9160005260206000209001600083909190916101000a81548173ffffffffffffffffffffffffffffffffffffffff021916908373ffffffffffffffffffffffffffffffffffffffff1602179055505050565b6000809054906101000a900473ffffffffffffffffffffffffffffffffffffffff1673ffffffffffffffffffffffffffffffffffffffff163373ffffffffffffffffffffffffffffffffffffffff16141515610ce057600080fd5b600073ffffffffffffffffffffffffffffffffffffffff168173ffffffffffffffffffffffffffffffffffffffff1614151515610d1c57600080fd5b8073ffffffffffffffffffffffffffffffffffffffff166000809054906101000a900473ffffffffffffffffffffffffffffffffffffffff1673ffffffffffffffffffffffffffffffffffffffff167f8be0079c531659141344cd1fd0a4f28419497f9722a3daafe3b4186f6b6457e060405160405180910390a3806000806101000a81548173ffffffffffffffffffffffffffffffffffffffff021916908373ffffffffffffffffffffffffffffffffffffffff16021790555050565b6000600160008373ffffffffffffffffffffffffffffffffffffffff1673ffffffffffffffffffffffffffffffffffffffff168152602001908152602001600020600101549050919050565b828054828255906000526020600020908101928215610e6c579160200282015b82811115610e6b57823560001916829060001916905591602001919060010190610e46565b5b509050610e799190610efa565b5090565b60606040519081016040528060006003811115610e9657fe5b815260200160006fffffffffffffffffffffffffffffffff16815260200160006fffffffffffffffffffffffffffffffff1681525090565b815481835581811511610ef557818360005260206000209182019101610ef49190610f1f565b5b505050565b610f1c91905b80821115610f18576000816000905550600101610f00565b5090565b90565b610f4191905b80821115610f3d576000816000905550600101610f25565b5090565b905600a165627a7a72305820ff78f0fb1577455caa148effa16ceb3570b1e35eadc387470858df577f2333d50029",
  "source": "pragma solidity ^0.4.19;\n\nimport \"../lib/Destructible.sol\";\n\ncontract RegistryStorage is Ownable {\n\n    // curve types representing dot(access token) prices as function of supply\n    enum CurveType { None, Linear, Exponential, Logarithmic }\n\n    // curve data structure representing dot(access token) prices as function of supply\n    struct Curve {\n        CurveType Type;\n        uint128 Start;\n        uint128 Multiplier;\n    }\n\n    // fundamental account type for the platform\n    struct Oracle {\n        uint256 publicKey;                               // Public key of the data provider\n        bytes32 title;                                   // Tags (csv)\n        mapping(bytes32 => bytes32[]) endpointParams;    // Endpoint specific parameters\n        mapping(bytes32 => Curve) curves;                // Price vs Supply (contract endpoint)\n    }\n\n    mapping(address => Oracle) private oracles;\n    address[] private oracleIndex;\n\n    /**** Get Methods ****/\n\n    function getPublicKey(address provider) external view returns (uint256) {\n        return oracles[provider].publicKey;\n    }\n\n    function getTitle(address provider) external view returns (bytes32) {\n        return oracles[provider].title;\n    }\n\n    function getEndpointIndexSize(address provider, bytes32 endpoint) external view returns (uint256) {\n        return oracles[provider].endpointParams[endpoint].length;\n    }    \n\n    function getEndPointParam(address provider, bytes32 endpoint, uint256 index) external view returns (bytes32) {\n        return oracles[provider].endpointParams[endpoint][index];\n    }\n\n    function getCurve(address provider, bytes32 endpoint)\n        external\n        view\n        returns (CurveType Type, uint128 Start, uint128 Multiplier)\n    {\n        Curve memory curve = oracles[provider].curves[endpoint];\n\n        return (curve.Type, curve.Start, curve.Multiplier);\n    }\n\n    function getOracleIndexSize() external view returns (uint256) {\n        return oracleIndex.length;\n    }\n\n    function getOracleAddress(uint256 index) external view returns (address) {\n        return oracleIndex[index];\n    }\n\n    /**** Set Methods ****/\n\n    function createOracle(address origin, uint256 publicKey, bytes32 title) external onlyOwner {\n        oracles[origin] = Oracle(publicKey, title);\n    }\n\n    function addOracle(address origin) external onlyOwner {\n        oracleIndex.push(origin);\n    }\n\n    function setEndpointParameters(\n        address origin,\n        bytes32 endpoint,\n        bytes32[] endpointParams\n    )\n        external\n        onlyOwner\n\n    {\n        oracles[origin].endpointParams[endpoint] = endpointParams;\n    }\n\n    function setCurve(\n        address origin,\n        bytes32 endpoint,\n        CurveType curveType,\n        uint128 curveStart,\n        uint128 curveMultiplier\n    ) \n        external\n        onlyOwner\n\n    {\n        oracles[origin].curves[endpoint] = Curve(curveType, curveStart, curveMultiplier);\n    }\n}\n",
  "sourcePath": "/home/iefnw/office/browser/docker/ZapContracts/contracts/registry/RegistryStorage.sol",
  "compiler": {
    "name": "solc",
    "version": "0.4.21+commit.dfe3193c.Emscripten.clang"
  },
  "schemaVersion": "2.0.0",
  "updatedAt": "2018-05-10T02:38:34.922Z"
}