{
  "contractName": "BondageStorage",
  "abi": [
    {
      "constant": true,
      "inputs": [],
      "name": "owner",
      "outputs": [
        {
          "name": "",
          "type": "address"
        }
      ],
      "payable": false,
      "stateMutability": "view",
      "type": "function"
    },
    {
      "constant": false,
      "inputs": [
        {
          "name": "newOwner",
          "type": "address"
        }
      ],
      "name": "transferOwnership",
      "outputs": [],
      "payable": false,
      "stateMutability": "nonpayable",
      "type": "function"
    },
    {
      "anonymous": false,
      "inputs": [
        {
          "indexed": true,
          "name": "previousOwner",
          "type": "address"
        },
        {
          "indexed": true,
          "name": "newOwner",
          "type": "address"
        }
      ],
      "name": "OwnershipTransferred",
      "type": "event"
    },
    {
      "constant": true,
      "inputs": [
        {
          "name": "holderAddress",
          "type": "address"
        },
        {
          "name": "oracleAddress",
          "type": "address"
        }
      ],
      "name": "isProviderInitialized",
      "outputs": [
        {
          "name": "",
          "type": "bool"
        }
      ],
      "payable": false,
      "stateMutability": "view",
      "type": "function"
    },
    {
      "constant": true,
      "inputs": [
        {
          "name": "holderAddress",
          "type": "address"
        },
        {
          "name": "oracleAddress",
          "type": "address"
        },
        {
          "name": "endpoint",
          "type": "bytes32"
        }
      ],
      "name": "getBondValue",
      "outputs": [
        {
          "name": "",
          "type": "uint256"
        }
      ],
      "payable": false,
      "stateMutability": "view",
      "type": "function"
    },
    {
      "constant": true,
      "inputs": [
        {
          "name": "holderAddress",
          "type": "address"
        },
        {
          "name": "oracleAddress",
          "type": "address"
        },
        {
          "name": "endpoint",
          "type": "bytes32"
        }
      ],
      "name": "getNumEscrow",
      "outputs": [
        {
          "name": "",
          "type": "uint256"
        }
      ],
      "payable": false,
      "stateMutability": "view",
      "type": "function"
    },
    {
      "constant": true,
      "inputs": [
        {
          "name": "oracleAddress",
          "type": "address"
        },
        {
          "name": "endpoint",
          "type": "bytes32"
        }
      ],
      "name": "getNumZap",
      "outputs": [
        {
          "name": "",
          "type": "uint256"
        }
      ],
      "payable": false,
      "stateMutability": "view",
      "type": "function"
    },
    {
      "constant": true,
      "inputs": [
        {
          "name": "oracleAddress",
          "type": "address"
        },
        {
          "name": "endpoint",
          "type": "bytes32"
        }
      ],
      "name": "getDotsIssued",
      "outputs": [
        {
          "name": "",
          "type": "uint256"
        }
      ],
      "payable": false,
      "stateMutability": "view",
      "type": "function"
    },
    {
      "constant": true,
      "inputs": [
        {
          "name": "holderAddress",
          "type": "address"
        },
        {
          "name": "oracleAddress",
          "type": "address"
        },
        {
          "name": "endpoint",
          "type": "bytes32"
        }
      ],
      "name": "getBoundDots",
      "outputs": [
        {
          "name": "",
          "type": "uint256"
        }
      ],
      "payable": false,
      "stateMutability": "view",
      "type": "function"
    },
    {
      "constant": true,
      "inputs": [
        {
          "name": "holderAddress",
          "type": "address"
        }
      ],
      "name": "getIndexSize",
      "outputs": [
        {
          "name": "",
          "type": "uint256"
        }
      ],
      "payable": false,
      "stateMutability": "view",
      "type": "function"
    },
    {
      "constant": true,
      "inputs": [
        {
          "name": "holderAddress",
          "type": "address"
        },
        {
          "name": "index",
          "type": "uint256"
        }
      ],
      "name": "getOracleAddress",
      "outputs": [
        {
          "name": "",
          "type": "address"
        }
      ],
      "payable": false,
      "stateMutability": "view",
      "type": "function"
    },
    {
      "constant": true,
      "inputs": [
        {
          "name": "holderAddress",
          "type": "address"
        },
        {
          "name": "oracleAddress",
          "type": "address"
        }
      ],
      "name": "getDelegate",
      "outputs": [
        {
          "name": "",
          "type": "address"
        }
      ],
      "payable": false,
      "stateMutability": "view",
      "type": "function"
    },
    {
      "constant": false,
      "inputs": [
        {
          "name": "holderAddress",
          "type": "address"
        },
        {
          "name": "oracleAddress",
          "type": "address"
        }
      ],
      "name": "addHolderOracle",
      "outputs": [],
      "payable": false,
      "stateMutability": "nonpayable",
      "type": "function"
    },
    {
      "constant": false,
      "inputs": [
        {
          "name": "holderAddress",
          "type": "address"
        },
        {
          "name": "oracleAddress",
          "type": "address"
        }
      ],
      "name": "setProviderInitialized",
      "outputs": [],
      "payable": false,
      "stateMutability": "nonpayable",
      "type": "function"
    },
    {
      "constant": false,
      "inputs": [
        {
          "name": "holderAddress",
          "type": "address"
        },
        {
          "name": "oracleAddress",
          "type": "address"
        },
        {
          "name": "delegateAddress",
          "type": "address"
        }
      ],
      "name": "setDelegate",
      "outputs": [],
      "payable": false,
      "stateMutability": "nonpayable",
      "type": "function"
    },
    {
      "constant": false,
      "inputs": [
        {
          "name": "holderAddress",
          "type": "address"
        },
        {
          "name": "oracleAddress",
          "type": "address"
        },
        {
          "name": "endpoint",
          "type": "bytes32"
        },
        {
          "name": "numDots",
          "type": "uint256"
        },
        {
          "name": "op",
          "type": "bytes32"
        }
      ],
      "name": "updateEscrow",
      "outputs": [],
      "payable": false,
      "stateMutability": "nonpayable",
      "type": "function"
    },
    {
      "constant": false,
      "inputs": [
        {
          "name": "holderAddress",
          "type": "address"
        },
        {
          "name": "oracleAddress",
          "type": "address"
        },
        {
          "name": "endpoint",
          "type": "bytes32"
        },
        {
          "name": "numDots",
          "type": "uint256"
        },
        {
          "name": "op",
          "type": "bytes32"
        }
      ],
      "name": "updateBondValue",
      "outputs": [],
      "payable": false,
      "stateMutability": "nonpayable",
      "type": "function"
    },
    {
      "constant": false,
      "inputs": [
        {
          "name": "oracleAddress",
          "type": "address"
        },
        {
          "name": "endpoint",
          "type": "bytes32"
        },
        {
          "name": "numDots",
          "type": "uint256"
        },
        {
          "name": "op",
          "type": "bytes32"
        }
      ],
      "name": "updateTotalBound",
      "outputs": [],
      "payable": false,
      "stateMutability": "nonpayable",
      "type": "function"
    },
    {
      "constant": false,
      "inputs": [
        {
          "name": "oracleAddress",
          "type": "address"
        },
        {
          "name": "endpoint",
          "type": "bytes32"
        },
        {
          "name": "numDots",
          "type": "uint256"
        },
        {
          "name": "op",
          "type": "bytes32"
        }
      ],
      "name": "updateTotalIssued",
      "outputs": [],
      "payable": false,
      "stateMutability": "nonpayable",
      "type": "function"
    },
    {
      "constant": false,
      "inputs": [
        {
          "name": "holderAddress",
          "type": "address"
        },
        {
          "name": "oracleAddress",
          "type": "address"
        }
      ],
      "name": "deleteDelegate",
      "outputs": [],
      "payable": false,
      "stateMutability": "nonpayable",
      "type": "function"
    }
  ],
  "bytecode": "0x6080604052336000806101000a81548173ffffffffffffffffffffffffffffffffffffffff021916908373ffffffffffffffffffffffffffffffffffffffff160217905550611a8c806100536000396000f300608060405260043610610107576000357c0100000000000000000000000000000000000000000000000000000000900463ffffffff168063036459c01461010c57806318d4d8a8146101875780631d7b5e22146101f057806327bb01b1146102555780633fe79685146102f85780634101f89b1461035d57806341f1c2ac146103c057806350ddd9a2146104455780636360e251146104ae57806372fc1867146105115780637a68c23a14610574578063875681cb146105f95780638758eb69146106825780638da5cb5b1461070f578063bbee369414610766578063ceae8b32146107eb578063d63b5cde14610842578063eef0e6b9146108c5578063f2fde38b1461094e575b600080fd5b34801561011857600080fd5b5061016d600480360381019080803573ffffffffffffffffffffffffffffffffffffffff169060200190929190803573ffffffffffffffffffffffffffffffffffffffff169060200190929190505050610991565b604051808215151515815260200191505060405180910390f35b34801561019357600080fd5b506101ee600480360381019080803573ffffffffffffffffffffffffffffffffffffffff1690602001909291908035600019169060200190929190803590602001909291908035600019169060200190929190505050610a28565b005b3480156101fc57600080fd5b5061023f600480360381019080803573ffffffffffffffffffffffffffffffffffffffff1690602001909291908035600019169060200190929190505050610b87565b6040518082815260200191505060405180910390f35b34801561026157600080fd5b506102b6600480360381019080803573ffffffffffffffffffffffffffffffffffffffff169060200190929190803573ffffffffffffffffffffffffffffffffffffffff169060200190929190505050610bea565b604051808273ffffffffffffffffffffffffffffffffffffffff1673ffffffffffffffffffffffffffffffffffffffff16815260200191505060405180910390f35b34801561030457600080fd5b50610347600480360381019080803573ffffffffffffffffffffffffffffffffffffffff1690602001909291908035600019169060200190929190505050610c94565b6040518082815260200191505060405180910390f35b34801561036957600080fd5b506103be600480360381019080803573ffffffffffffffffffffffffffffffffffffffff169060200190929190803573ffffffffffffffffffffffffffffffffffffffff169060200190929190505050610cf7565b005b3480156103cc57600080fd5b5061042f600480360381019080803573ffffffffffffffffffffffffffffffffffffffff169060200190929190803573ffffffffffffffffffffffffffffffffffffffff1690602001909291908035600019169060200190929190505050610df8565b6040518082815260200191505060405180910390f35b34801561045157600080fd5b506104ac600480360381019080803573ffffffffffffffffffffffffffffffffffffffff1690602001909291908035600019169060200190929190803590602001909291908035600019169060200190929190505050610e9c565b005b3480156104ba57600080fd5b5061050f600480360381019080803573ffffffffffffffffffffffffffffffffffffffff169060200190929190803573ffffffffffffffffffffffffffffffffffffffff169060200190929190505050610ffb565b005b34801561051d57600080fd5b50610572600480360381019080803573ffffffffffffffffffffffffffffffffffffffff169060200190929190803573ffffffffffffffffffffffffffffffffffffffff169060200190929190505050611100565b005b34801561058057600080fd5b506105e3600480360381019080803573ffffffffffffffffffffffffffffffffffffffff169060200190929190803573ffffffffffffffffffffffffffffffffffffffff16906020019092919080356000191690602001909291905050506111f6565b6040518082815260200191505060405180910390f35b34801561060557600080fd5b50610680600480360381019080803573ffffffffffffffffffffffffffffffffffffffff169060200190929190803573ffffffffffffffffffffffffffffffffffffffff1690602001909291908035600019169060200190929190803590602001909291908035600019169060200190929190505050611297565b005b34801561068e57600080fd5b506106cd600480360381019080803573ffffffffffffffffffffffffffffffffffffffff16906020019092919080359060200190929190505050611471565b604051808273ffffffffffffffffffffffffffffffffffffffff1673ffffffffffffffffffffffffffffffffffffffff16815260200191505060405180910390f35b34801561071b57600080fd5b506107246114f5565b604051808273ffffffffffffffffffffffffffffffffffffffff1673ffffffffffffffffffffffffffffffffffffffff16815260200191505060405180910390f35b34801561077257600080fd5b506107d5600480360381019080803573ffffffffffffffffffffffffffffffffffffffff169060200190929190803573ffffffffffffffffffffffffffffffffffffffff169060200190929190803560001916906020019092919050505061151a565b6040518082815260200191505060405180910390f35b3480156107f757600080fd5b5061082c600480360381019080803573ffffffffffffffffffffffffffffffffffffffff1690602001909291905050506115be565b6040518082815260200191505060405180910390f35b34801561084e57600080fd5b506108c3600480360381019080803573ffffffffffffffffffffffffffffffffffffffff169060200190929190803573ffffffffffffffffffffffffffffffffffffffff169060200190929190803573ffffffffffffffffffffffffffffffffffffffff16906020019092919050505061160d565b005b3480156108d157600080fd5b5061094c600480360381019080803573ffffffffffffffffffffffffffffffffffffffff169060200190929190803573ffffffffffffffffffffffffffffffffffffffff169060200190929190803560001916906020019092919080359060200190929190803560001916906020019092919050505061172b565b005b34801561095a57600080fd5b5061098f600480360381019080803573ffffffffffffffffffffffffffffffffffffffff16906020019092919050505061190b565b005b6000600160008473ffffffffffffffffffffffffffffffffffffffff1673ffffffffffffffffffffffffffffffffffffffff16815260200190815260200160002060010160008373ffffffffffffffffffffffffffffffffffffffff1673ffffffffffffffffffffffffffffffffffffffff16815260200190815260200160002060009054906101000a900460ff16905092915050565b6000809054906101000a900473ffffffffffffffffffffffffffffffffffffffff1673ffffffffffffffffffffffffffffffffffffffff163373ffffffffffffffffffffffffffffffffffffffff16141515610a8357600080fd5b7f737562000000000000000000000000000000000000000000000000000000000081600019161415610b1a5781600360008673ffffffffffffffffffffffffffffffffffffffff1673ffffffffffffffffffffffffffffffffffffffff1681526020019081526020016000206000856000191660001916815260200190815260200160002060008282540392505081905550610b81565b81600360008673ffffffffffffffffffffffffffffffffffffffff1673ffffffffffffffffffffffffffffffffffffffff16815260200190815260200160002060008560001916600019168152602001908152602001600020600082825401925050819055505b50505050565b6000600460008473ffffffffffffffffffffffffffffffffffffffff1673ffffffffffffffffffffffffffffffffffffffff1681526020019081526020016000206000836000191660001916815260200190815260200160002054905092915050565b6000600160008473ffffffffffffffffffffffffffffffffffffffff1673ffffffffffffffffffffffffffffffffffffffff16815260200190815260200160002060030160008373ffffffffffffffffffffffffffffffffffffffff1673ffffffffffffffffffffffffffffffffffffffff16815260200190815260200160002060009054906101000a900473ffffffffffffffffffffffffffffffffffffffff16905092915050565b6000600360008473ffffffffffffffffffffffffffffffffffffffff1673ffffffffffffffffffffffffffffffffffffffff1681526020019081526020016000206000836000191660001916815260200190815260200160002054905092915050565b6000809054906101000a900473ffffffffffffffffffffffffffffffffffffffff1673ffffffffffffffffffffffffffffffffffffffff163373ffffffffffffffffffffffffffffffffffffffff16141515610d5257600080fd5b600160008373ffffffffffffffffffffffffffffffffffffffff1673ffffffffffffffffffffffffffffffffffffffff16815260200190815260200160002060030160008273ffffffffffffffffffffffffffffffffffffffff1673ffffffffffffffffffffffffffffffffffffffff16815260200190815260200160002060006101000a81549073ffffffffffffffffffffffffffffffffffffffff02191690555050565b6000600160008573ffffffffffffffffffffffffffffffffffffffff1673ffffffffffffffffffffffffffffffffffffffff1681526020019081526020016000206000016000836000191660001916815260200190815260200160002060008473ffffffffffffffffffffffffffffffffffffffff1673ffffffffffffffffffffffffffffffffffffffff1681526020019081526020016000205490509392505050565b6000809054906101000a900473ffffffffffffffffffffffffffffffffffffffff1673ffffffffffffffffffffffffffffffffffffffff163373ffffffffffffffffffffffffffffffffffffffff16141515610ef757600080fd5b7f737562000000000000000000000000000000000000000000000000000000000081600019161415610f8e5781600460008673ffffffffffffffffffffffffffffffffffffffff1673ffffffffffffffffffffffffffffffffffffffff1681526020019081526020016000206000856000191660001916815260200190815260200160002060008282540392505081905550610ff5565b81600460008673ffffffffffffffffffffffffffffffffffffffff1673ffffffffffffffffffffffffffffffffffffffff16815260200190815260200160002060008560001916600019168152602001908152602001600020600082825401925050819055505b50505050565b6000809054906101000a900473ffffffffffffffffffffffffffffffffffffffff1673ffffffffffffffffffffffffffffffffffffffff163373ffffffffffffffffffffffffffffffffffffffff1614151561105657600080fd5b600160008373ffffffffffffffffffffffffffffffffffffffff1673ffffffffffffffffffffffffffffffffffffffff1681526020019081526020016000206002018190806001815401808255809150509060018203906000526020600020016000909192909190916101000a81548173ffffffffffffffffffffffffffffffffffffffff021916908373ffffffffffffffffffffffffffffffffffffffff160217905550505050565b6000809054906101000a900473ffffffffffffffffffffffffffffffffffffffff1673ffffffffffffffffffffffffffffffffffffffff163373ffffffffffffffffffffffffffffffffffffffff1614151561115b57600080fd5b60018060008473ffffffffffffffffffffffffffffffffffffffff1673ffffffffffffffffffffffffffffffffffffffff16815260200190815260200160002060010160008373ffffffffffffffffffffffffffffffffffffffff1673ffffffffffffffffffffffffffffffffffffffff16815260200190815260200160002060006101000a81548160ff0219169083151502179055505050565b6000600260008573ffffffffffffffffffffffffffffffffffffffff1673ffffffffffffffffffffffffffffffffffffffff16815260200190815260200160002060008473ffffffffffffffffffffffffffffffffffffffff1673ffffffffffffffffffffffffffffffffffffffff168152602001908152602001600020600083600019166000191681526020019081526020016000205490509392505050565b6000809054906101000a900473ffffffffffffffffffffffffffffffffffffffff1673ffffffffffffffffffffffffffffffffffffffff163373ffffffffffffffffffffffffffffffffffffffff161415156112f257600080fd5b7f7375620000000000000000000000000000000000000000000000000000000000816000191614156113c65781600260008773ffffffffffffffffffffffffffffffffffffffff1673ffffffffffffffffffffffffffffffffffffffff16815260200190815260200160002060008673ffffffffffffffffffffffffffffffffffffffff1673ffffffffffffffffffffffffffffffffffffffff168152602001908152602001600020600085600019166000191681526020019081526020016000206000828254039250508190555061146a565b81600260008773ffffffffffffffffffffffffffffffffffffffff1673ffffffffffffffffffffffffffffffffffffffff16815260200190815260200160002060008673ffffffffffffffffffffffffffffffffffffffff1673ffffffffffffffffffffffffffffffffffffffff16815260200190815260200160002060008560001916600019168152602001908152602001600020600082825401925050819055505b5050505050565b6000600160008473ffffffffffffffffffffffffffffffffffffffff1673ffffffffffffffffffffffffffffffffffffffff168152602001908152602001600020600201828154811015156114c257fe5b9060005260206000200160009054906101000a900473ffffffffffffffffffffffffffffffffffffffff16905092915050565b6000809054906101000a900473ffffffffffffffffffffffffffffffffffffffff1681565b6000600160008573ffffffffffffffffffffffffffffffffffffffff1673ffffffffffffffffffffffffffffffffffffffff1681526020019081526020016000206000016000836000191660001916815260200190815260200160002060008473ffffffffffffffffffffffffffffffffffffffff1673ffffffffffffffffffffffffffffffffffffffff1681526020019081526020016000205490509392505050565b6000600160008373ffffffffffffffffffffffffffffffffffffffff1673ffffffffffffffffffffffffffffffffffffffff168152602001908152602001600020600201805490509050919050565b6000809054906101000a900473ffffffffffffffffffffffffffffffffffffffff1673ffffffffffffffffffffffffffffffffffffffff163373ffffffffffffffffffffffffffffffffffffffff1614151561166857600080fd5b80600160008573ffffffffffffffffffffffffffffffffffffffff1673ffffffffffffffffffffffffffffffffffffffff16815260200190815260200160002060030160008473ffffffffffffffffffffffffffffffffffffffff1673ffffffffffffffffffffffffffffffffffffffff16815260200190815260200160002060006101000a81548173ffffffffffffffffffffffffffffffffffffffff021916908373ffffffffffffffffffffffffffffffffffffffff160217905550505050565b6000809054906101000a900473ffffffffffffffffffffffffffffffffffffffff1673ffffffffffffffffffffffffffffffffffffffff163373ffffffffffffffffffffffffffffffffffffffff1614151561178657600080fd5b7f73756200000000000000000000000000000000000000000000000000000000008160001916141561185d5781600160008773ffffffffffffffffffffffffffffffffffffffff1673ffffffffffffffffffffffffffffffffffffffff1681526020019081526020016000206000016000856000191660001916815260200190815260200160002060008673ffffffffffffffffffffffffffffffffffffffff1673ffffffffffffffffffffffffffffffffffffffff16815260200190815260200160002060008282540392505081905550611904565b81600160008773ffffffffffffffffffffffffffffffffffffffff1673ffffffffffffffffffffffffffffffffffffffff1681526020019081526020016000206000016000856000191660001916815260200190815260200160002060008673ffffffffffffffffffffffffffffffffffffffff1673ffffffffffffffffffffffffffffffffffffffff168152602001908152602001600020600082825401925050819055505b5050505050565b6000809054906101000a900473ffffffffffffffffffffffffffffffffffffffff1673ffffffffffffffffffffffffffffffffffffffff163373ffffffffffffffffffffffffffffffffffffffff1614151561196657600080fd5b600073ffffffffffffffffffffffffffffffffffffffff168173ffffffffffffffffffffffffffffffffffffffff16141515156119a257600080fd5b8073ffffffffffffffffffffffffffffffffffffffff166000809054906101000a900473ffffffffffffffffffffffffffffffffffffffff1673ffffffffffffffffffffffffffffffffffffffff167f8be0079c531659141344cd1fd0a4f28419497f9722a3daafe3b4186f6b6457e060405160405180910390a3806000806101000a81548173ffffffffffffffffffffffffffffffffffffffff021916908373ffffffffffffffffffffffffffffffffffffffff160217905550505600a165627a7a72305820cfe8cf8d2df0976736042e039246c287e1fdb1b31134418842e82576503ad8640029",
  "source": "pragma solidity ^0.4.24;\n\nimport \"../lib/Ownable.sol\";\n\ncontract BondageStorage is Ownable {\n\n    // Data structure for holder of ZAP bond to data provider.\n    // Currently ONLY \"smart_contract\" or \"socket_subscription\"\n    struct Holder {\n        //endpoint specifer* => (provider address => bond value)\n        mapping(bytes32 => mapping(address => uint256)) bonds;\n        //provider address => initialized flag\n        mapping(address => bool) initialized;\n        //for traversing\n        address[] oracleList;\n        //provider address => delegate address\n        mapping(address => address) delegates;\n    }\n\n    mapping(address => Holder) private holders;\n\n    //holder => (oracleAddress => (endpoint => numEscrow)))\n    mapping(address => mapping(address => mapping(bytes32 => uint256))) private pendingEscrow;\n\n    //oracleAddress=>(endpoint=>numZap)\n    mapping(address => mapping(bytes32 => uint256)) private totalBound;\n\n    //oracleAddress=>(endpoint=>numDots)\n    mapping(address => mapping(bytes32 => uint256)) private totalIssued;\n\n    /**** Get Methods ****/\n    function isProviderInitialized(address holderAddress, address oracleAddress) external view returns (bool) {\n        return holders[holderAddress].initialized[oracleAddress];\n    }\n\n    function getBondValue(address holderAddress, address oracleAddress, bytes32 endpoint) external view returns (uint256) {\n        return holders[holderAddress].bonds[endpoint][oracleAddress];\n    }\n\n    function getNumEscrow(address holderAddress, address oracleAddress, bytes32 endpoint) external view returns (uint256) {\n        return pendingEscrow[holderAddress][oracleAddress][endpoint];\n    }\n\n    function getNumZap(address oracleAddress, bytes32 endpoint) external view returns (uint256) {\n        return totalBound[oracleAddress][endpoint];\n    }\n\n    function getDotsIssued(address oracleAddress, bytes32 endpoint) external view returns (uint256) {\n        return totalIssued[oracleAddress][endpoint];\n    }\n\n    function getBoundDots(address holderAddress, address oracleAddress, bytes32 endpoint) external view returns (uint256) {\n        return holders[holderAddress].bonds[endpoint][oracleAddress];\n    }\n\n    function getIndexSize(address holderAddress) external view returns (uint256) {\n        return holders[holderAddress].oracleList.length;\n    }\n\n    function getOracleAddress(address holderAddress, uint256 index) external view returns (address) {\n        return holders[holderAddress].oracleList[index];\n    }\n\n    function getDelegate(address holderAddress, address oracleAddress) external view returns (address) {\n        return holders[holderAddress].delegates[oracleAddress];\n    }\n\n    /**** Set Methods ****/\n    function addHolderOracle(address holderAddress, address oracleAddress) external onlyOwner {\n        holders[holderAddress].oracleList.push(oracleAddress);\n    }\n\n    function setProviderInitialized(address holderAddress, address oracleAddress) external onlyOwner {\n        holders[holderAddress].initialized[oracleAddress] = true;\n    }\n\n    function setDelegate(address holderAddress, address oracleAddress, address delegateAddress) external onlyOwner {\n        holders[holderAddress].delegates[oracleAddress] = delegateAddress;\n    }\n\n    function updateEscrow(\n        address holderAddress,\n        address oracleAddress,\n        bytes32 endpoint,\n        uint256 numDots,\n        bytes32 op\n    )\n        external\n        onlyOwner      \n    {\n        if (op == \"sub\")\n            pendingEscrow[holderAddress][oracleAddress][endpoint] -= numDots;\n        else {\n            pendingEscrow[holderAddress][oracleAddress][endpoint] += numDots;\n        }\n    }\n\n    function updateBondValue(\n        address holderAddress,\n        address oracleAddress,\n        bytes32 endpoint,\n        uint256 numDots,\n        bytes32 op\n    )\n        external\n        onlyOwner      \n    {\n        if (op == \"sub\") \n            holders[holderAddress].bonds[endpoint][oracleAddress] -= numDots;\n        else {\n            holders[holderAddress].bonds[endpoint][oracleAddress] += numDots;\n        }\n    }\n\n    function updateTotalBound(        \n        address oracleAddress,\n        bytes32 endpoint,\n        uint256 numDots,\n        bytes32 op\n    )\n        external\n        onlyOwner       \n    {\n        if (op == \"sub\")\n            totalBound[oracleAddress][endpoint] -= numDots;\n        else {\n            totalBound[oracleAddress][endpoint] += numDots;\n        }\n    }\n\n    function updateTotalIssued(\n        address oracleAddress,\n        bytes32 endpoint,\n        uint256 numDots,\n        bytes32 op\n    )\n        external\n        onlyOwner      \n    {\n        if (op == \"sub\")\n            totalIssued[oracleAddress][endpoint] -= numDots;\n        else {\n            totalIssued[oracleAddress][endpoint] += numDots;\n        }\n    }\n\n    /**** Delete Methods ****/\n    function deleteDelegate(address holderAddress, address oracleAddress) external onlyOwner {\n        delete holders[holderAddress].delegates[oracleAddress];\n    }\n}\n",
  "sourcePath": "/home/kim/Code/ZAP/FeedArbitration/ZapContracts/contracts/bondage/BondageStorage.sol",
  "compiler": {
    "name": "solc",
    "version": "0.4.24+commit.e67f0147.Emscripten.clang"
  },
  "schemaVersion": "2.0.0",
  "updatedAt": "2018-06-28T19:46:17.909Z"
}