{
  "contractName": "Bondage",
  "abi": [
    {
      "constant": true,
      "inputs": [],
      "name": "arbiterAddress",
      "outputs": [
        {
          "name": "",
          "type": "address"
        }
      ],
      "payable": false,
      "stateMutability": "view",
      "type": "function"
    },
    {
      "constant": true,
      "inputs": [],
      "name": "storageAddress",
      "outputs": [
        {
          "name": "",
          "type": "address"
        }
      ],
      "payable": false,
      "stateMutability": "view",
      "type": "function"
    },
    {
      "constant": true,
      "inputs": [],
      "name": "owner",
      "outputs": [
        {
          "name": "",
          "type": "address"
        }
      ],
      "payable": false,
      "stateMutability": "view",
      "type": "function"
    },
    {
      "constant": false,
      "inputs": [],
      "name": "selfDestruct",
      "outputs": [],
      "payable": false,
      "stateMutability": "nonpayable",
      "type": "function"
    },
    {
      "constant": false,
      "inputs": [
        {
          "name": "newOwner",
          "type": "address"
        }
      ],
      "name": "transferOwnership",
      "outputs": [],
      "payable": false,
      "stateMutability": "nonpayable",
      "type": "function"
    },
    {
      "constant": true,
      "inputs": [],
      "name": "dispatchAddress",
      "outputs": [
        {
          "name": "",
          "type": "address"
        }
      ],
      "payable": false,
      "stateMutability": "view",
      "type": "function"
    },
    {
      "inputs": [
        {
          "name": "_storageAddress",
          "type": "address"
        },
        {
          "name": "_tokenAddress",
          "type": "address"
        },
        {
          "name": "_currentCostAddress",
          "type": "address"
        }
      ],
      "payable": false,
      "stateMutability": "nonpayable",
      "type": "constructor"
    },
    {
      "anonymous": false,
      "inputs": [
        {
          "indexed": true,
          "name": "holder",
          "type": "address"
        },
        {
          "indexed": true,
          "name": "oracle",
          "type": "address"
        },
        {
          "indexed": true,
          "name": "endpoint",
          "type": "bytes32"
        },
        {
          "indexed": false,
          "name": "numZap",
          "type": "uint256"
        },
        {
          "indexed": false,
          "name": "numDots",
          "type": "uint256"
        }
      ],
      "name": "Bound",
      "type": "event"
    },
    {
      "anonymous": false,
      "inputs": [
        {
          "indexed": true,
          "name": "holder",
          "type": "address"
        },
        {
          "indexed": true,
          "name": "oracle",
          "type": "address"
        },
        {
          "indexed": true,
          "name": "endpoint",
          "type": "bytes32"
        },
        {
          "indexed": false,
          "name": "numDots",
          "type": "uint256"
        }
      ],
      "name": "Unbound",
      "type": "event"
    },
    {
      "anonymous": false,
      "inputs": [
        {
          "indexed": true,
          "name": "holder",
          "type": "address"
        },
        {
          "indexed": true,
          "name": "oracle",
          "type": "address"
        },
        {
          "indexed": true,
          "name": "endpoint",
          "type": "bytes32"
        },
        {
          "indexed": false,
          "name": "numDots",
          "type": "uint256"
        }
      ],
      "name": "Escrowed",
      "type": "event"
    },
    {
      "anonymous": false,
      "inputs": [
        {
          "indexed": true,
          "name": "holder",
          "type": "address"
        },
        {
          "indexed": true,
          "name": "oracle",
          "type": "address"
        },
        {
          "indexed": true,
          "name": "endpoint",
          "type": "bytes32"
        },
        {
          "indexed": false,
          "name": "numDots",
          "type": "uint256"
        }
      ],
      "name": "Released",
      "type": "event"
    },
    {
      "anonymous": false,
      "inputs": [
        {
          "indexed": true,
          "name": "previousOwner",
          "type": "address"
        },
        {
          "indexed": true,
          "name": "newOwner",
          "type": "address"
        }
      ],
      "name": "OwnershipTransferred",
      "type": "event"
    },
    {
      "constant": false,
      "inputs": [
        {
          "name": "_arbiterAddress",
          "type": "address"
        }
      ],
      "name": "setArbiterAddress",
      "outputs": [],
      "payable": false,
      "stateMutability": "nonpayable",
      "type": "function"
    },
    {
      "constant": false,
      "inputs": [
        {
          "name": "_dispatchAddress",
          "type": "address"
        }
      ],
      "name": "setDispatchAddress",
      "outputs": [],
      "payable": false,
      "stateMutability": "nonpayable",
      "type": "function"
    },
    {
      "constant": false,
      "inputs": [
        {
          "name": "currentCostAddress",
          "type": "address"
        }
      ],
      "name": "setCurrentCostAddress",
      "outputs": [],
      "payable": false,
      "stateMutability": "nonpayable",
      "type": "function"
    },
    {
      "constant": false,
      "inputs": [
        {
          "name": "oracleAddress",
          "type": "address"
        },
        {
          "name": "endpoint",
          "type": "bytes32"
        },
        {
          "name": "numZap",
          "type": "uint256"
        }
      ],
      "name": "bond",
      "outputs": [
        {
          "name": "bound",
          "type": "uint256"
        }
      ],
      "payable": false,
      "stateMutability": "nonpayable",
      "type": "function"
    },
    {
      "constant": false,
      "inputs": [
        {
          "name": "oracleAddress",
          "type": "address"
        },
        {
          "name": "endpoint",
          "type": "bytes32"
        },
        {
          "name": "numDots",
          "type": "uint256"
        }
      ],
      "name": "unbond",
      "outputs": [
        {
          "name": "unbound",
          "type": "uint256"
        }
      ],
      "payable": false,
      "stateMutability": "nonpayable",
      "type": "function"
    },
    {
      "constant": false,
      "inputs": [
        {
          "name": "holderAddress",
          "type": "address"
        },
        {
          "name": "oracleAddress",
          "type": "address"
        },
        {
          "name": "endpoint",
          "type": "bytes32"
        },
        {
          "name": "numZap",
          "type": "uint256"
        }
      ],
      "name": "delegateBond",
      "outputs": [
        {
          "name": "boundDots",
          "type": "uint256"
        }
      ],
      "payable": false,
      "stateMutability": "nonpayable",
      "type": "function"
    },
    {
      "constant": false,
      "inputs": [
        {
          "name": "holderAddress",
          "type": "address"
        },
        {
          "name": "oracleAddress",
          "type": "address"
        },
        {
          "name": "endpoint",
          "type": "bytes32"
        },
        {
          "name": "numDots",
          "type": "uint256"
        }
      ],
      "name": "delegateUnbond",
      "outputs": [
        {
          "name": "unbound",
          "type": "uint256"
        }
      ],
      "payable": false,
      "stateMutability": "nonpayable",
      "type": "function"
    },
    {
      "constant": false,
      "inputs": [
        {
          "name": "oracleAddress",
          "type": "address"
        }
      ],
      "name": "resetDelegate",
      "outputs": [],
      "payable": false,
      "stateMutability": "nonpayable",
      "type": "function"
    },
    {
      "constant": false,
      "inputs": [
        {
          "name": "holderAddress",
          "type": "address"
        },
        {
          "name": "oracleAddress",
          "type": "address"
        },
        {
          "name": "endpoint",
          "type": "bytes32"
        },
        {
          "name": "numDots",
          "type": "uint256"
        }
      ],
      "name": "escrowDots",
      "outputs": [
        {
          "name": "success",
          "type": "bool"
        }
      ],
      "payable": false,
      "stateMutability": "nonpayable",
      "type": "function"
    },
    {
      "constant": false,
      "inputs": [
        {
          "name": "holderAddress",
          "type": "address"
        },
        {
          "name": "oracleAddress",
          "type": "address"
        },
        {
          "name": "endpoint",
          "type": "bytes32"
        },
        {
          "name": "numDots",
          "type": "uint256"
        }
      ],
      "name": "releaseDots",
      "outputs": [
        {
          "name": "success",
          "type": "bool"
        }
      ],
      "payable": false,
      "stateMutability": "nonpayable",
      "type": "function"
    },
    {
      "constant": true,
      "inputs": [
        {
          "name": "oracleAddress",
          "type": "address"
        },
        {
          "name": "endpoint",
          "type": "bytes32"
        },
        {
          "name": "numDots",
          "type": "uint256"
        }
      ],
      "name": "calcZapForDots",
      "outputs": [
        {
          "name": "numZap",
          "type": "uint256"
        }
      ],
      "payable": false,
      "stateMutability": "view",
      "type": "function"
    },
    {
      "constant": true,
      "inputs": [
        {
          "name": "oracleAddress",
          "type": "address"
        },
        {
          "name": "endpoint",
          "type": "bytes32"
        },
        {
          "name": "numZap",
          "type": "uint256"
        }
      ],
      "name": "calcBondRate",
      "outputs": [
        {
          "name": "",
          "type": "uint256"
        },
        {
          "name": "",
          "type": "uint256"
        }
      ],
      "payable": false,
      "stateMutability": "view",
      "type": "function"
    },
    {
      "constant": true,
      "inputs": [
        {
          "name": "oracleAddress",
          "type": "address"
        },
        {
          "name": "endpoint",
          "type": "bytes32"
        },
        {
          "name": "totalBound",
          "type": "uint256"
        }
      ],
      "name": "currentCostOfDot",
      "outputs": [
        {
          "name": "cost",
          "type": "uint256"
        }
      ],
      "payable": false,
      "stateMutability": "view",
      "type": "function"
    },
    {
      "constant": true,
      "inputs": [
        {
          "name": "oracleAddress",
          "type": "address"
        },
        {
          "name": "endpoint",
          "type": "bytes32"
        }
      ],
      "name": "getDotsIssued",
      "outputs": [
        {
          "name": "dots",
          "type": "uint256"
        }
      ],
      "payable": false,
      "stateMutability": "view",
      "type": "function"
    },
    {
      "constant": true,
      "inputs": [
        {
          "name": "holderAddress",
          "type": "address"
        },
        {
          "name": "oracleAddress",
          "type": "address"
        },
        {
          "name": "endpoint",
          "type": "bytes32"
        }
      ],
      "name": "getBoundDots",
      "outputs": [
        {
          "name": "dots",
          "type": "uint256"
        }
      ],
      "payable": false,
      "stateMutability": "view",
      "type": "function"
    },
    {
      "constant": true,
      "inputs": [
        {
          "name": "oracleAddress",
          "type": "address"
        },
        {
          "name": "endpoint",
          "type": "bytes32"
        }
      ],
      "name": "getZapBound",
      "outputs": [
        {
          "name": "",
          "type": "uint256"
        }
      ],
      "payable": false,
      "stateMutability": "view",
      "type": "function"
    }
  ],
  "bytecode": "0x6080604052670de0b6b3a764000060045534801561001c57600080fd5b50604051606080613344833981018060405281019080805190602001909291908051906020019092919080519060200190929190505050336000806101000a81548173ffffffffffffffffffffffffffffffffffffffff021916908373ffffffffffffffffffffffffffffffffffffffff16021790555082600160006101000a81548173ffffffffffffffffffffffffffffffffffffffff021916908373ffffffffffffffffffffffffffffffffffffffff16021790555081600360006101000a81548173ffffffffffffffffffffffffffffffffffffffff021916908373ffffffffffffffffffffffffffffffffffffffff16021790555080600260006101000a81548173ffffffffffffffffffffffffffffffffffffffff021916908373ffffffffffffffffffffffffffffffffffffffff1602179055505050506131dc806101686000396000f300608060405260043610610128576000357c0100000000000000000000000000000000000000000000000000000000900463ffffffff16806301139b791461012d57806302d93162146101705780630cf13010146101ff57806316614c981461024257806319ec825c146102d55780631d7b5e221461033a5780633b058aa71461039f578063456e2d7a146104325780635d7993061461047557806385aa92a7146104cc5780638da5cb5b1461052357806399275cc71461057a5780639cb8a26a146105e9578063a06fe77514610600578063b44efd8f1461066f578063b6105f15146106b2578063bbee369414610721578063ca01fed5146107a6578063cbdaf0c814610835578063ec8e2dd7146108a4578063f2fde38b1461091a578063f528c9491461095d575b600080fd5b34801561013957600080fd5b5061016e600480360381019080803573ffffffffffffffffffffffffffffffffffffffff1690602001909291905050506109b4565b005b34801561017c57600080fd5b506101e9600480360381019080803573ffffffffffffffffffffffffffffffffffffffff169060200190929190803573ffffffffffffffffffffffffffffffffffffffff169060200190929190803560001916906020019092919080359060200190929190505050610ac0565b6040518082815260200191505060405180910390f35b34801561020b57600080fd5b50610240600480360381019080803573ffffffffffffffffffffffffffffffffffffffff169060200190929190505050610ca7565b005b34801561024e57600080fd5b506102bb600480360381019080803573ffffffffffffffffffffffffffffffffffffffff169060200190929190803573ffffffffffffffffffffffffffffffffffffffff169060200190929190803560001916906020019092919080359060200190929190505050610d46565b604051808215151515815260200191505060405180910390f35b3480156102e157600080fd5b50610324600480360381019080803573ffffffffffffffffffffffffffffffffffffffff1690602001909291908035600019169060200190929190505050611120565b6040518082815260200191505060405180910390f35b34801561034657600080fd5b50610389600480360381019080803573ffffffffffffffffffffffffffffffffffffffff1690602001909291908035600019169060200190929190505050611232565b6040518082815260200191505060405180910390f35b3480156103ab57600080fd5b50610418600480360381019080803573ffffffffffffffffffffffffffffffffffffffff169060200190929190803573ffffffffffffffffffffffffffffffffffffffff169060200190929190803560001916906020019092919080359060200190929190505050611344565b604051808215151515815260200191505060405180910390f35b34801561043e57600080fd5b50610473600480360381019080803573ffffffffffffffffffffffffffffffffffffffff16906020019092919050505061184f565b005b34801561048157600080fd5b5061048a6118ee565b604051808273ffffffffffffffffffffffffffffffffffffffff1673ffffffffffffffffffffffffffffffffffffffff16815260200191505060405180910390f35b3480156104d857600080fd5b506104e1611914565b604051808273ffffffffffffffffffffffffffffffffffffffff1673ffffffffffffffffffffffffffffffffffffffff16815260200191505060405180910390f35b34801561052f57600080fd5b5061053861193a565b604051808273ffffffffffffffffffffffffffffffffffffffff1673ffffffffffffffffffffffffffffffffffffffff16815260200191505060405180910390f35b34801561058657600080fd5b506105d3600480360381019080803573ffffffffffffffffffffffffffffffffffffffff16906020019092919080356000191690602001909291908035906020019092919050505061195f565b6040518082815260200191505060405180910390f35b3480156105f557600080fd5b506105fe6119e8565b005b34801561060c57600080fd5b50610659600480360381019080803573ffffffffffffffffffffffffffffffffffffffff169060200190929190803560001916906020019092919080359060200190929190505050611a7d565b6040518082815260200191505060405180910390f35b34801561067b57600080fd5b506106b0600480360381019080803573ffffffffffffffffffffffffffffffffffffffff169060200190929190505050611afe565b005b3480156106be57600080fd5b5061070b600480360381019080803573ffffffffffffffffffffffffffffffffffffffff169060200190929190803560001916906020019092919080359060200190929190505050611b9d565b6040518082815260200191505060405180910390f35b34801561072d57600080fd5b50610790600480360381019080803573ffffffffffffffffffffffffffffffffffffffff169060200190929190803573ffffffffffffffffffffffffffffffffffffffff1690602001909291908035600019169060200190929190505050611be0565b6040518082815260200191505060405180910390f35b3480156107b257600080fd5b5061081f600480360381019080803573ffffffffffffffffffffffffffffffffffffffff169060200190929190803573ffffffffffffffffffffffffffffffffffffffff169060200190929190803560001916906020019092919080359060200190929190505050611d27565b6040518082815260200191505060405180910390f35b34801561084157600080fd5b5061088e600480360381019080803573ffffffffffffffffffffffffffffffffffffffff16906020019092919080356000191690602001909291908035906020019092919050505061203d565b6040518082815260200191505060405180910390f35b3480156108b057600080fd5b506108fd600480360381019080803573ffffffffffffffffffffffffffffffffffffffff169060200190929190803560001916906020019092919080359060200190929190505050612158565b604051808381526020018281526020019250505060405180910390f35b34801561092657600080fd5b5061095b600480360381019080803573ffffffffffffffffffffffffffffffffffffffff1690602001909291905050506121fd565b005b34801561096957600080fd5b50610972612352565b604051808273ffffffffffffffffffffffffffffffffffffffff1673ffffffffffffffffffffffffffffffffffffffff16815260200191505060405180910390f35b600160009054906101000a900473ffffffffffffffffffffffffffffffffffffffff1673ffffffffffffffffffffffffffffffffffffffff16634101f89b33836040518363ffffffff167c0100000000000000000000000000000000000000000000000000000000028152600401808373ffffffffffffffffffffffffffffffffffffffff1673ffffffffffffffffffffffffffffffffffffffff1681526020018273ffffffffffffffffffffffffffffffffffffffff1673ffffffffffffffffffffffffffffffffffffffff16815260200192505050600060405180830381600087803b158015610aa557600080fd5b505af1158015610ab9573d6000803e3d6000fd5b5050505050565b60003373ffffffffffffffffffffffffffffffffffffffff16600160009054906101000a900473ffffffffffffffffffffffffffffffffffffffff1673ffffffffffffffffffffffffffffffffffffffff166327bb01b187876040518363ffffffff167c0100000000000000000000000000000000000000000000000000000000028152600401808373ffffffffffffffffffffffffffffffffffffffff1673ffffffffffffffffffffffffffffffffffffffff1681526020018273ffffffffffffffffffffffffffffffffffffffff1673ffffffffffffffffffffffffffffffffffffffff16815260200192505050602060405180830381600087803b158015610bca57600080fd5b505af1158015610bde573d6000803e3d6000fd5b505050506040513d6020811015610bf457600080fd5b810190808051906020019092919050505073ffffffffffffffffffffffffffffffffffffffff16141515610c2757600080fd5b610c3385858585612378565b905082600019168473ffffffffffffffffffffffffffffffffffffffff168673ffffffffffffffffffffffffffffffffffffffff167f60b9c649cd4eb0d02bcdc2d69fd86d12022c0bf7ff8aa61e5ac0bc121fc3cac0856040518082815260200191505060405180910390a4949350505050565b6000809054906101000a900473ffffffffffffffffffffffffffffffffffffffff1673ffffffffffffffffffffffffffffffffffffffff163373ffffffffffffffffffffffffffffffffffffffff16141515610d0257600080fd5b80600660006101000a81548173ffffffffffffffffffffffffffffffffffffffff021916908373ffffffffffffffffffffffffffffffffffffffff16021790555050565b6000806000600660009054906101000a900473ffffffffffffffffffffffffffffffffffffffff1673ffffffffffffffffffffffffffffffffffffffff163373ffffffffffffffffffffffffffffffffffffffff161480610df45750600760009054906101000a900473ffffffffffffffffffffffffffffffffffffffff1673ffffffffffffffffffffffffffffffffffffffff163373ffffffffffffffffffffffffffffffffffffffff16145b1561111657610e04878787611be0565b915083905081841115610e15578190505b600160009054906101000a900473ffffffffffffffffffffffffffffffffffffffff1673ffffffffffffffffffffffffffffffffffffffff1663eef0e6b9888888856040518563ffffffff167c0100000000000000000000000000000000000000000000000000000000028152600401808573ffffffffffffffffffffffffffffffffffffffff1673ffffffffffffffffffffffffffffffffffffffff1681526020018473ffffffffffffffffffffffffffffffffffffffff1673ffffffffffffffffffffffffffffffffffffffff1681526020018360001916600019168152602001828152602001807f7375620000000000000000000000000000000000000000000000000000000000815250602001945050505050600060405180830381600087803b158015610f4657600080fd5b505af1158015610f5a573d6000803e3d6000fd5b50505050600160009054906101000a900473ffffffffffffffffffffffffffffffffffffffff1673ffffffffffffffffffffffffffffffffffffffff1663875681cb888888856040518563ffffffff167c0100000000000000000000000000000000000000000000000000000000028152600401808573ffffffffffffffffffffffffffffffffffffffff1673ffffffffffffffffffffffffffffffffffffffff1681526020018473ffffffffffffffffffffffffffffffffffffffff1673ffffffffffffffffffffffffffffffffffffffff1681526020018360001916600019168152602001828152602001807f6164640000000000000000000000000000000000000000000000000000000000815250602001945050505050600060405180830381600087803b15801561108f57600080fd5b505af11580156110a3573d6000803e3d6000fd5b5050505084600019168673ffffffffffffffffffffffffffffffffffffffff168873ffffffffffffffffffffffffffffffffffffffff167f2738c9bd1693cadc7b4fabefd6467b42f901650c7401bad1076dbc984f4b15d0846040518082815260200191505060405180910390a4600192505b5050949350505050565b6000600160009054906101000a900473ffffffffffffffffffffffffffffffffffffffff1673ffffffffffffffffffffffffffffffffffffffff16633fe7968584846040518363ffffffff167c0100000000000000000000000000000000000000000000000000000000028152600401808373ffffffffffffffffffffffffffffffffffffffff1673ffffffffffffffffffffffffffffffffffffffff168152602001826000191660001916815260200192505050602060405180830381600087803b1580156111ef57600080fd5b505af1158015611203573d6000803e3d6000fd5b505050506040513d602081101561121957600080fd5b8101908080519060200190929190505050905092915050565b6000600160009054906101000a900473ffffffffffffffffffffffffffffffffffffffff1673ffffffffffffffffffffffffffffffffffffffff16631d7b5e2284846040518363ffffffff167c0100000000000000000000000000000000000000000000000000000000028152600401808373ffffffffffffffffffffffffffffffffffffffff1673ffffffffffffffffffffffffffffffffffffffff168152602001826000191660001916815260200192505050602060405180830381600087803b15801561130157600080fd5b505af1158015611315573d6000803e3d6000fd5b505050506040513d602081101561132b57600080fd5b8101908080519060200190929190505050905092915050565b6000806000600660009054906101000a900473ffffffffffffffffffffffffffffffffffffffff1673ffffffffffffffffffffffffffffffffffffffff163373ffffffffffffffffffffffffffffffffffffffff1614806113f25750600760009054906101000a900473ffffffffffffffffffffffffffffffffffffffff1673ffffffffffffffffffffffffffffffffffffffff163373ffffffffffffffffffffffffffffffffffffffff16145b1561184557600160009054906101000a900473ffffffffffffffffffffffffffffffffffffffff1673ffffffffffffffffffffffffffffffffffffffff16637a68c23a8888886040518463ffffffff167c0100000000000000000000000000000000000000000000000000000000028152600401808473ffffffffffffffffffffffffffffffffffffffff1673ffffffffffffffffffffffffffffffffffffffff1681526020018373ffffffffffffffffffffffffffffffffffffffff1673ffffffffffffffffffffffffffffffffffffffff16815260200182600019166000191681526020019350505050602060405180830381600087803b1580156114f857600080fd5b505af115801561150c573d6000803e3d6000fd5b505050506040513d602081101561152257600080fd5b8101908080519060200190929190505050915083905081841115611544578190505b600160009054906101000a900473ffffffffffffffffffffffffffffffffffffffff1673ffffffffffffffffffffffffffffffffffffffff1663875681cb888888856040518563ffffffff167c0100000000000000000000000000000000000000000000000000000000028152600401808573ffffffffffffffffffffffffffffffffffffffff1673ffffffffffffffffffffffffffffffffffffffff1681526020018473ffffffffffffffffffffffffffffffffffffffff1673ffffffffffffffffffffffffffffffffffffffff1681526020018360001916600019168152602001828152602001807f7375620000000000000000000000000000000000000000000000000000000000815250602001945050505050600060405180830381600087803b15801561167557600080fd5b505af1158015611689573d6000803e3d6000fd5b50505050600160009054906101000a900473ffffffffffffffffffffffffffffffffffffffff1673ffffffffffffffffffffffffffffffffffffffff1663eef0e6b9878888856040518563ffffffff167c0100000000000000000000000000000000000000000000000000000000028152600401808573ffffffffffffffffffffffffffffffffffffffff1673ffffffffffffffffffffffffffffffffffffffff1681526020018473ffffffffffffffffffffffffffffffffffffffff1673ffffffffffffffffffffffffffffffffffffffff1681526020018360001916600019168152602001828152602001807f6164640000000000000000000000000000000000000000000000000000000000815250602001945050505050600060405180830381600087803b1580156117be57600080fd5b505af11580156117d2573d6000803e3d6000fd5b5050505084600019168673ffffffffffffffffffffffffffffffffffffffff168873ffffffffffffffffffffffffffffffffffffffff167f2afa253d0464d87b039f71a6964ed5c028a3a3c68048d909fbee4b1610756e79846040518082815260200191505060405180910390a4600192505b5050949350505050565b6000809054906101000a900473ffffffffffffffffffffffffffffffffffffffff1673ffffffffffffffffffffffffffffffffffffffff163373ffffffffffffffffffffffffffffffffffffffff161415156118aa57600080fd5b80600260006101000a81548173ffffffffffffffffffffffffffffffffffffffff021916908373ffffffffffffffffffffffffffffffffffffffff16021790555050565b600660009054906101000a900473ffffffffffffffffffffffffffffffffffffffff1681565b600560009054906101000a900473ffffffffffffffffffffffffffffffffffffffff1681565b6000809054906101000a900473ffffffffffffffffffffffffffffffffffffffff1681565b600061196d33858585612999565b905082600019168473ffffffffffffffffffffffffffffffffffffffff163373ffffffffffffffffffffffffffffffffffffffff167fe8fd3c22d82ce4b5a0addda04f808686ef3d592b33cadc8435ce17dc106ced6c8585604051808381526020018281526020019250505060405180910390a49392505050565b6000809054906101000a900473ffffffffffffffffffffffffffffffffffffffff1673ffffffffffffffffffffffffffffffffffffffff163373ffffffffffffffffffffffffffffffffffffffff16141515611a4357600080fd5b6000809054906101000a900473ffffffffffffffffffffffffffffffffffffffff1673ffffffffffffffffffffffffffffffffffffffff16ff5b6000611a8b33858585612378565b905082600019168473ffffffffffffffffffffffffffffffffffffffff163373ffffffffffffffffffffffffffffffffffffffff167f60b9c649cd4eb0d02bcdc2d69fd86d12022c0bf7ff8aa61e5ac0bc121fc3cac0856040518082815260200191505060405180910390a49392505050565b6000809054906101000a900473ffffffffffffffffffffffffffffffffffffffff1673ffffffffffffffffffffffffffffffffffffffff163373ffffffffffffffffffffffffffffffffffffffff16141515611b5957600080fd5b80600760006101000a81548173ffffffffffffffffffffffffffffffffffffffff021916908373ffffffffffffffffffffffffffffffffffffffff16021790555050565b600080600190505b8281111515611bd557611bc4858583611bbe8989611232565b0161203d565b820191508080600101915050611ba5565b819150509392505050565b6000600160009054906101000a900473ffffffffffffffffffffffffffffffffffffffff1673ffffffffffffffffffffffffffffffffffffffff1663bbee36948585856040518463ffffffff167c0100000000000000000000000000000000000000000000000000000000028152600401808473ffffffffffffffffffffffffffffffffffffffff1673ffffffffffffffffffffffffffffffffffffffff1681526020018373ffffffffffffffffffffffffffffffffffffffff1673ffffffffffffffffffffffffffffffffffffffff16815260200182600019166000191681526020019350505050602060405180830381600087803b158015611ce357600080fd5b505af1158015611cf7573d6000803e3d6000fd5b505050506040513d6020811015611d0d57600080fd5b810190808051906020019092919050505090509392505050565b600080600160009054906101000a900473ffffffffffffffffffffffffffffffffffffffff1673ffffffffffffffffffffffffffffffffffffffff166327bb01b187876040518363ffffffff167c0100000000000000000000000000000000000000000000000000000000028152600401808373ffffffffffffffffffffffffffffffffffffffff1673ffffffffffffffffffffffffffffffffffffffff1681526020018273ffffffffffffffffffffffffffffffffffffffff1673ffffffffffffffffffffffffffffffffffffffff16815260200192505050602060405180830381600087803b158015611e1b57600080fd5b505af1158015611e2f573d6000803e3d6000fd5b505050506040513d6020811015611e4557600080fd5b810190808051906020019092919050505073ffffffffffffffffffffffffffffffffffffffff16141515611e7857600080fd5b600160009054906101000a900473ffffffffffffffffffffffffffffffffffffffff1673ffffffffffffffffffffffffffffffffffffffff1663d63b5cde8686336040518463ffffffff167c0100000000000000000000000000000000000000000000000000000000028152600401808473ffffffffffffffffffffffffffffffffffffffff1673ffffffffffffffffffffffffffffffffffffffff1681526020018373ffffffffffffffffffffffffffffffffffffffff1673ffffffffffffffffffffffffffffffffffffffff1681526020018273ffffffffffffffffffffffffffffffffffffffff1673ffffffffffffffffffffffffffffffffffffffff1681526020019350505050600060405180830381600087803b158015611f9d57600080fd5b505af1158015611fb1573d6000803e3d6000fd5b50505050611fc185858585612999565b905082600019168473ffffffffffffffffffffffffffffffffffffffff168673ffffffffffffffffffffffffffffffffffffffff167fe8fd3c22d82ce4b5a0addda04f808686ef3d592b33cadc8435ce17dc106ced6c8585604051808381526020018281526020019250505060405180910390a4949350505050565b6000600260009054906101000a900473ffffffffffffffffffffffffffffffffffffffff1673ffffffffffffffffffffffffffffffffffffffff1663ecca1fad8585856040518463ffffffff167c0100000000000000000000000000000000000000000000000000000000028152600401808473ffffffffffffffffffffffffffffffffffffffff1673ffffffffffffffffffffffffffffffffffffffff16815260200183600019166000191681526020018281526020019350505050602060405180830381600087803b15801561211457600080fd5b505af1158015612128573d6000803e3d6000fd5b505050506040513d602081101561213e57600080fd5b810190808051906020019092919050505090509392505050565b60008060008060008060045493506103e8871115612176576103e896505b600087141561219157600080819150809050955095506121f1565b60009150600190505b838110156121ea576121b88989836121b28d8d611232565b0161203d565b925082871015156121d257828703965082820191506121dd565b6001810390506121ea565b808060010191505061219a565b8181955095505b50505050935093915050565b6000809054906101000a900473ffffffffffffffffffffffffffffffffffffffff1673ffffffffffffffffffffffffffffffffffffffff163373ffffffffffffffffffffffffffffffffffffffff1614151561225857600080fd5b600073ffffffffffffffffffffffffffffffffffffffff168173ffffffffffffffffffffffffffffffffffffffff161415151561229457600080fd5b8073ffffffffffffffffffffffffffffffffffffffff166000809054906101000a900473ffffffffffffffffffffffffffffffffffffffff1673ffffffffffffffffffffffffffffffffffffffff167f8be0079c531659141344cd1fd0a4f28419497f9722a3daafe3b4186f6b6457e060405160405180910390a3806000806101000a81548173ffffffffffffffffffffffffffffffffffffffff021916908373ffffffffffffffffffffffffffffffffffffffff16021790555050565b600760009054906101000a900473ffffffffffffffffffffffffffffffffffffffff1681565b600080600080600160009054906101000a900473ffffffffffffffffffffffffffffffffffffffff1673ffffffffffffffffffffffffffffffffffffffff166341f1c2ac8989896040518463ffffffff167c0100000000000000000000000000000000000000000000000000000000028152600401808473ffffffffffffffffffffffffffffffffffffffff1673ffffffffffffffffffffffffffffffffffffffff1681526020018373ffffffffffffffffffffffffffffffffffffffff1673ffffffffffffffffffffffffffffffffffffffff16815260200182600019166000191681526020019350505050602060405180830381600087803b15801561247f57600080fd5b505af1158015612493573d6000803e3d6000fd5b505050506040513d60208110156124a957600080fd5b810190808051906020019092919050505092508483101580156124cc5750600085115b1561298957600191505b8482101561250857816124e98888611232565b0390506124f787878361203d565b8401935081806001019250506124d6565b600160009054906101000a900473ffffffffffffffffffffffffffffffffffffffff1673ffffffffffffffffffffffffffffffffffffffff166318d4d8a88888876040518463ffffffff167c0100000000000000000000000000000000000000000000000000000000028152600401808473ffffffffffffffffffffffffffffffffffffffff1673ffffffffffffffffffffffffffffffffffffffff1681526020018360001916600019168152602001828152602001807f73756200000000000000000000000000000000000000000000000000000000008152506020019350505050600060405180830381600087803b15801561260557600080fd5b505af1158015612619573d6000803e3d6000fd5b50505050600160009054906101000a900473ffffffffffffffffffffffffffffffffffffffff1673ffffffffffffffffffffffffffffffffffffffff166350ddd9a28888886040518463ffffffff167c0100000000000000000000000000000000000000000000000000000000028152600401808473ffffffffffffffffffffffffffffffffffffffff1673ffffffffffffffffffffffffffffffffffffffff1681526020018360001916600019168152602001828152602001807f73756200000000000000000000000000000000000000000000000000000000008152506020019350505050600060405180830381600087803b15801561271a57600080fd5b505af115801561272e573d6000803e3d6000fd5b50505050600160009054906101000a900473ffffffffffffffffffffffffffffffffffffffff1673ffffffffffffffffffffffffffffffffffffffff1663eef0e6b9898989866040518563ffffffff167c0100000000000000000000000000000000000000000000000000000000028152600401808573ffffffffffffffffffffffffffffffffffffffff1673ffffffffffffffffffffffffffffffffffffffff1681526020018473ffffffffffffffffffffffffffffffffffffffff1673ffffffffffffffffffffffffffffffffffffffff1681526020018360001916600019168152602001828152602001807f7375620000000000000000000000000000000000000000000000000000000000815250602001945050505050600060405180830381600087803b15801561286357600080fd5b505af1158015612877573d6000803e3d6000fd5b50505050600360009054906101000a900473ffffffffffffffffffffffffffffffffffffffff1673ffffffffffffffffffffffffffffffffffffffff1663a9059cbb89866040518363ffffffff167c0100000000000000000000000000000000000000000000000000000000028152600401808373ffffffffffffffffffffffffffffffffffffffff1673ffffffffffffffffffffffffffffffffffffffff16815260200182815260200192505050602060405180830381600087803b15801561294057600080fd5b505af1158015612954573d6000803e3d6000fd5b505050506040513d602081101561296a57600080fd5b8101908080519060200190929190505050156129885783935061298e565b5b600093505b505050949350505050565b60006129a6848484612158565b8092508193505050600160009054906101000a900473ffffffffffffffffffffffffffffffffffffffff1673ffffffffffffffffffffffffffffffffffffffff1663036459c086866040518363ffffffff167c0100000000000000000000000000000000000000000000000000000000028152600401808373ffffffffffffffffffffffffffffffffffffffff1673ffffffffffffffffffffffffffffffffffffffff1681526020018273ffffffffffffffffffffffffffffffffffffffff1673ffffffffffffffffffffffffffffffffffffffff16815260200192505050602060405180830381600087803b158015612a9f57600080fd5b505af1158015612ab3573d6000803e3d6000fd5b505050506040513d6020811015612ac957600080fd5b81019080805190602001909291905050501515612cf357600160009054906101000a900473ffffffffffffffffffffffffffffffffffffffff1673ffffffffffffffffffffffffffffffffffffffff166372fc186786866040518363ffffffff167c0100000000000000000000000000000000000000000000000000000000028152600401808373ffffffffffffffffffffffffffffffffffffffff1673ffffffffffffffffffffffffffffffffffffffff1681526020018273ffffffffffffffffffffffffffffffffffffffff1673ffffffffffffffffffffffffffffffffffffffff16815260200192505050600060405180830381600087803b158015612bd157600080fd5b505af1158015612be5573d6000803e3d6000fd5b50505050600160009054906101000a900473ffffffffffffffffffffffffffffffffffffffff1673ffffffffffffffffffffffffffffffffffffffff16636360e25186866040518363ffffffff167c0100000000000000000000000000000000000000000000000000000000028152600401808373ffffffffffffffffffffffffffffffffffffffff1673ffffffffffffffffffffffffffffffffffffffff1681526020018273ffffffffffffffffffffffffffffffffffffffff1673ffffffffffffffffffffffffffffffffffffffff16815260200192505050600060405180830381600087803b158015612cda57600080fd5b505af1158015612cee573d6000803e3d6000fd5b505050505b600360009054906101000a900473ffffffffffffffffffffffffffffffffffffffff1673ffffffffffffffffffffffffffffffffffffffff166323b872dd3330856040518463ffffffff167c0100000000000000000000000000000000000000000000000000000000028152600401808473ffffffffffffffffffffffffffffffffffffffff1673ffffffffffffffffffffffffffffffffffffffff1681526020018373ffffffffffffffffffffffffffffffffffffffff1673ffffffffffffffffffffffffffffffffffffffff1681526020018281526020019350505050602060405180830381600087803b158015612dec57600080fd5b505af1158015612e00573d6000803e3d6000fd5b505050506040513d6020811015612e1657600080fd5b81019080805190602001909291905050501515612e3257600080fd5b600160009054906101000a900473ffffffffffffffffffffffffffffffffffffffff1673ffffffffffffffffffffffffffffffffffffffff1663eef0e6b9868686856040518563ffffffff167c0100000000000000000000000000000000000000000000000000000000028152600401808573ffffffffffffffffffffffffffffffffffffffff1673ffffffffffffffffffffffffffffffffffffffff1681526020018473ffffffffffffffffffffffffffffffffffffffff1673ffffffffffffffffffffffffffffffffffffffff1681526020018360001916600019168152602001828152602001807f6164640000000000000000000000000000000000000000000000000000000000815250602001945050505050600060405180830381600087803b158015612f6357600080fd5b505af1158015612f77573d6000803e3d6000fd5b50505050600160009054906101000a900473ffffffffffffffffffffffffffffffffffffffff1673ffffffffffffffffffffffffffffffffffffffff166350ddd9a28585846040518463ffffffff167c0100000000000000000000000000000000000000000000000000000000028152600401808473ffffffffffffffffffffffffffffffffffffffff1673ffffffffffffffffffffffffffffffffffffffff1681526020018360001916600019168152602001828152602001807f61646400000000000000000000000000000000000000000000000000000000008152506020019350505050600060405180830381600087803b15801561307857600080fd5b505af115801561308c573d6000803e3d6000fd5b50505050600160009054906101000a900473ffffffffffffffffffffffffffffffffffffffff1673ffffffffffffffffffffffffffffffffffffffff166318d4d8a88585856040518463ffffffff167c0100000000000000000000000000000000000000000000000000000000028152600401808473ffffffffffffffffffffffffffffffffffffffff1673ffffffffffffffffffffffffffffffffffffffff1681526020018360001916600019168152602001828152602001807f61646400000000000000000000000000000000000000000000000000000000008152506020019350505050600060405180830381600087803b15801561318d57600080fd5b505af11580156131a1573d6000803e3d6000fd5b505050508090509493505050505600a165627a7a723058200f3a6d8b08d60e85cbc017083f708ba2be026aec0b2ef4242646b12cbff0634f0029",
  "source": "pragma solidity ^0.4.24;\n// v1.0\n\nimport \"../lib/Destructible.sol\";\nimport \"../lib/ERC20.sol\";\nimport \"./currentCost/CurrentCostInterface.sol\";\nimport \"./BondageStorage.sol\";\nimport \"./BondageInterface.sol\";\n\ncontract Bondage is Destructible, BondageInterface {\n\n    event Bound(address indexed holder, address indexed oracle, bytes32 indexed endpoint, uint256 numZap, uint256 numDots);\n    event Unbound(address indexed holder, address indexed oracle, bytes32 indexed endpoint, uint256 numDots);\n    event Escrowed(address indexed holder, address indexed oracle, bytes32 indexed endpoint, uint256 numDots);\n    event Released(address indexed holder, address indexed oracle, bytes32 indexed endpoint, uint256 numDots);\n\n    BondageStorage stor;\n    CurrentCostInterface currentCost;\n    ERC20 token;\n    uint256 decimals = 10 ** 18;\n\n    address public storageAddress;\n    address public arbiterAddress;\n    address public dispatchAddress;\n\n    // For restricting dot escrow/transfer method calls to Dispatch and Arbiter\n    modifier operatorOnly {\n        if (msg.sender == arbiterAddress || msg.sender == dispatchAddress)\n            _;\n    }\n\n    /// @dev Initialize Storage, Token, anc CurrentCost Contracts\n    constructor(address _storageAddress, address _tokenAddress, address _currentCostAddress) public {\n        stor = BondageStorage(_storageAddress);\n        token = ERC20(_tokenAddress); \n        currentCost = CurrentCostInterface(_currentCostAddress);\n    }\n\n    /// @dev Set Arbiter address\n    /// @notice This needs to be called upon deployment and after Arbiter update\n    function setArbiterAddress(address _arbiterAddress) external onlyOwner {\n        arbiterAddress = _arbiterAddress;\n    }\n    \n    /// @dev Set Dispatch address\n    /// @notice This needs to be called upon deployment and after Dispatch update\n    function setDispatchAddress(address _dispatchAddress) external onlyOwner {\n        dispatchAddress = _dispatchAddress;\n    }\n\n    /// @notice Upgdate currentCostOfDot function (barring no interface change)\n    function setCurrentCostAddress(address currentCostAddress) public onlyOwner {\n        currentCost = CurrentCostInterface(currentCostAddress);\n    }\n\n    /// @dev will bond to an oracle\n    /// @return total ZAP bound to oracle\n    function bond(address oracleAddress, bytes32 endpoint, uint256 numZap) external returns (uint256 bound) {\n        bound = _bond(msg.sender, oracleAddress, endpoint, numZap);\n        emit Bound(msg.sender, oracleAddress, endpoint, numZap, bound);\n    }\n\n    /// @return total ZAP unbound from oracle\n    function unbond(address oracleAddress, bytes32 endpoint, uint256 numDots) external returns (uint256 unbound) {\n        unbound = _unbond(msg.sender, oracleAddress, endpoint, numDots);\n        emit Unbound(msg.sender, oracleAddress, endpoint, numDots);\n    }        \n\n    /// @dev will bond to an oracle on behalf of some holder\n    /// @return total ZAP bound to oracle\n    function delegateBond(address holderAddress, address oracleAddress, bytes32 endpoint, uint256 numZap) external returns (uint256 boundDots) {\n        require(stor.getDelegate(holderAddress, oracleAddress) == 0x0);\n        stor.setDelegate(holderAddress, oracleAddress, msg.sender);\n        boundDots = _bond(holderAddress, oracleAddress, endpoint, numZap);\n        emit Bound(holderAddress, oracleAddress, endpoint, numZap, boundDots);\n    }\n\n    /// @return total ZAP unbound from oracle\n    function delegateUnbond(address holderAddress, address oracleAddress, bytes32 endpoint, uint256 numDots) external returns (uint256 unbound) {\n        require(stor.getDelegate(holderAddress, oracleAddress) == msg.sender);\n        unbound = _unbond(holderAddress, oracleAddress, endpoint, numDots);\n        emit Unbound(holderAddress, oracleAddress, endpoint, numDots);\n    }\n\n    /// @dev will reset delegate \n    function resetDelegate(address oracleAddress) external {\n        stor.deleteDelegate(msg.sender, oracleAddress);\n    }\n\n    /// @dev Move numDots dots from provider-requester to bondage according to \n    /// data-provider address, holder address, and endpoint specifier (ala 'smart_contract')\n    /// Called only by Disptach or Arbiter Contracts\n    function escrowDots(        \n        address holderAddress,\n        address oracleAddress,\n        bytes32 endpoint,\n        uint256 numDots\n    )\n        external\n        operatorOnly        \n        returns (bool success)\n    {\n        uint256 currentDots = getBoundDots(holderAddress, oracleAddress, endpoint);\n        uint256 dotsToEscrow = numDots;\n        if (numDots > currentDots) dotsToEscrow = currentDots; \n        stor.updateBondValue(holderAddress, oracleAddress, endpoint, dotsToEscrow, \"sub\");\n        stor.updateEscrow(holderAddress, oracleAddress, endpoint, dotsToEscrow, \"add\");\n        emit Escrowed(holderAddress, oracleAddress, endpoint, dotsToEscrow);\n        return true;\n    }\n\n    /// @dev Transfer N dots from fromAddress to destAddress. \n    /// Called only by Disptach or Arbiter Contracts\n    /// In smart contract endpoint, occurs per satisfied request. \n    /// In socket endpoint called on termination of subscription.\n    function releaseDots(\n        address holderAddress,\n        address oracleAddress,\n        bytes32 endpoint,\n        uint256 numDots\n    )\n        external\n        operatorOnly \n        returns (bool success)\n    {\n        uint256 numEscrowed = stor.getNumEscrow(holderAddress, oracleAddress, endpoint);\n        uint256 dotsToEscrow = numDots;\n        if (numDots > numEscrowed) dotsToEscrow = numEscrowed;\n        stor.updateEscrow(holderAddress, oracleAddress, endpoint, dotsToEscrow, \"sub\");\n        stor.updateBondValue(oracleAddress, oracleAddress, endpoint, dotsToEscrow, \"add\");\n        emit Released(holderAddress, oracleAddress, endpoint, dotsToEscrow);\n        return true;\n    }\n\n    /// @dev Calculate quantity of tokens required for specified amount of dots\n    /// for endpoint defined by endpoint and data provider defined by oracleAddress\n    function calcZapForDots(\n        address oracleAddress,\n        bytes32 endpoint,\n        uint256 numDots       \n    ) \n        external\n        view\n        returns (uint256 numZap)\n    {\n        for (uint256 i = 1; i <= numDots; i++) {\n            numZap += currentCostOfDot(                \n                oracleAddress,\n                endpoint,\n                getDotsIssued(oracleAddress, endpoint) + i\n            );\n        }\n        return numZap;\n    }\n\n    /// @dev Calculate amount of dots which could be purchased with given (numZap) ZAP tokens (max is 1000)\n    /// for endpoint specified by endpoint and data-provider address specified by oracleAddress\n    function calcBondRate(\n        address oracleAddress,\n        bytes32 endpoint,\n        uint256 numZap\n    )\n        public\n        view\n        returns (uint256, uint256) \n    {\n\n        uint256 infinity = decimals;\n        uint256 dotCost;\n        if (numZap > 1000) numZap = 1000;\n        if (numZap==0) return (0,0);\n\n        /*uint256 test = currentCostOfDot(\n                oracleAddress,\n                endpoint,\n                1\n            );\n        COST(1, test);\n        return (0,0);*/\n\n        uint256 maxNumZap = 0;\n        uint256 numDots = 1;\n\n        // BUG: INFINITE LOOP\n        for (numDots; numDots < infinity; numDots++) {\n            dotCost = currentCostOfDot(\n                oracleAddress,\n                endpoint,\n                getDotsIssued(oracleAddress, endpoint) + numDots\n            );\n\n            if (numZap >= dotCost) {\n                numZap -= dotCost;\n                maxNumZap += dotCost;\n            } else {\n                numDots-=1;\n                break;\n            }\n        }\n        return (maxNumZap, numDots);\n    }\n\n    /// @dev Get the current cost of a dot.\n    /// @param endpoint specifier\n    /// @param oracleAddress data-provider\n    function currentCostOfDot(\n        address oracleAddress,\n        bytes32 endpoint,\n        uint256 totalBound\n    )\n        public\n        view\n        returns (uint256 cost)\n    {\n        return currentCost._currentCostOfDot(oracleAddress, endpoint, totalBound);\n    }\n\n    function getDotsIssued(\n        address oracleAddress,\n        bytes32 endpoint        \n    )        \n        public\n        view\n        returns (uint256 dots)\n    {\n        return stor.getDotsIssued(oracleAddress, endpoint);\n    }\n\n    function getBoundDots(        \n        address holderAddress,\n        address oracleAddress,\n        bytes32 endpoint\n    )\n        public\n        view        \n        returns (uint256 dots)\n    {\n        return stor.getBoundDots(holderAddress, oracleAddress, endpoint);\n    }\n\n    /// @return total ZAP held by contract\n    function getZapBound(address oracleAddress, bytes32 endpoint) public view returns (uint256) {\n        return stor.getNumZap(oracleAddress, endpoint);\n    }\n\n    function _bond(\n        address holderAddress,\n        address oracleAddress,\n        bytes32 endpoint,\n        uint256 numZap        \n    )\n        private\n        returns (uint256 numDots) \n    {   \n        // This also checks if oracle is registered w/an initialized curve\n        (numZap, numDots) = calcBondRate(oracleAddress, endpoint, numZap);\n\n        if (!stor.isProviderInitialized(holderAddress, oracleAddress)) {            \n            stor.setProviderInitialized(holderAddress, oracleAddress);\n            stor.addHolderOracle(holderAddress, oracleAddress);\n        }\n\n        // User must have approved contract to transfer working ZAP\n        require(token.transferFrom(msg.sender, this, numZap));\n\n        stor.updateBondValue(holderAddress, oracleAddress, endpoint, numDots, \"add\");        \n        stor.updateTotalIssued(oracleAddress, endpoint, numDots, \"add\");\n        stor.updateTotalBound(oracleAddress, endpoint, numZap, \"add\");\n\n        return numDots;\n    }\n\n    function _unbond(        \n        address holderAddress,\n        address oracleAddress,\n        bytes32 endpoint,\n        uint256 numDots\n    )\n        private\n        returns (uint256 numZap)\n    {\n        //currentDots\n        uint256 bondValue = stor.getBondValue(holderAddress, oracleAddress, endpoint);\n        if (bondValue >= numDots && numDots > 0) {\n\n            uint256 subTotal = 1;\n            uint256 dotsIssued;\n\n            for (subTotal; subTotal < numDots; subTotal++) {\n\n                dotsIssued = getDotsIssued(oracleAddress, endpoint) - subTotal;\n\n                numZap += currentCostOfDot(\n                    oracleAddress,\n                    endpoint,\n                    dotsIssued\n                ); \n            }    \n            stor.updateTotalBound(oracleAddress, endpoint, numZap, \"sub\");\n            stor.updateTotalIssued(oracleAddress, endpoint, numDots, \"sub\");\n            stor.updateBondValue(holderAddress, oracleAddress, endpoint, subTotal, \"sub\");\n\n            if(token.transfer(holderAddress, numZap))\n                return numZap;\n        }\n        return 0;\n    }\n\n}\n",
  "sourcePath": "/home/kim/Code/ZAP/FeedArbitration/ZapContracts/contracts/bondage/Bondage.sol",
  "compiler": {
    "name": "solc",
    "version": "0.4.24+commit.e67f0147.Emscripten.clang"
  },
  "schemaVersion": "2.0.0",
  "updatedAt": "2018-06-27T03:53:02.093Z"
}