{
  "contractName": "Dispatch",
  "abi": [
    {
      "constant": true,
      "inputs": [],
      "name": "storageAddress",
      "outputs": [
        {
          "name": "",
          "type": "address"
        }
      ],
      "payable": false,
      "stateMutability": "view",
      "type": "function"
    },
    {
      "constant": true,
      "inputs": [],
      "name": "owner",
      "outputs": [
        {
          "name": "",
          "type": "address"
        }
      ],
      "payable": false,
      "stateMutability": "view",
      "type": "function"
    },
    {
      "constant": false,
      "inputs": [],
      "name": "selfDestruct",
      "outputs": [],
      "payable": false,
      "stateMutability": "nonpayable",
      "type": "function"
    },
    {
      "constant": true,
      "inputs": [],
      "name": "bondageAddress",
      "outputs": [
        {
          "name": "",
          "type": "address"
        }
      ],
      "payable": false,
      "stateMutability": "view",
      "type": "function"
    },
    {
      "constant": false,
      "inputs": [
        {
          "name": "newOwner",
          "type": "address"
        }
      ],
      "name": "transferOwnership",
      "outputs": [],
      "payable": false,
      "stateMutability": "nonpayable",
      "type": "function"
    },
    {
      "inputs": [
        {
          "name": "_storageAddress",
          "type": "address"
        },
        {
          "name": "_bondageAddress",
          "type": "address"
        }
      ],
      "payable": false,
      "stateMutability": "nonpayable",
      "type": "constructor"
    },
    {
      "anonymous": false,
      "inputs": [
        {
          "indexed": true,
          "name": "id",
          "type": "uint256"
        },
        {
          "indexed": true,
          "name": "provider",
          "type": "address"
        },
        {
          "indexed": true,
          "name": "subscriber",
          "type": "address"
        },
        {
          "indexed": false,
          "name": "query",
          "type": "string"
        },
        {
          "indexed": false,
          "name": "endpoint",
          "type": "bytes32"
        },
        {
          "indexed": false,
          "name": "endpointParams",
          "type": "bytes32[]"
        },
        {
          "indexed": false,
          "name": "onchainSubscriber",
          "type": "bool"
        }
      ],
      "name": "Incoming",
      "type": "event"
    },
    {
      "anonymous": false,
      "inputs": [
        {
          "indexed": true,
          "name": "subscriber",
          "type": "address"
        },
        {
          "indexed": true,
          "name": "provider",
          "type": "address"
        },
        {
          "indexed": true,
          "name": "endpoint",
          "type": "bytes32"
        }
      ],
      "name": "FulfillQuery",
      "type": "event"
    },
    {
      "anonymous": false,
      "inputs": [
        {
          "indexed": true,
          "name": "id",
          "type": "uint256"
        },
        {
          "indexed": true,
          "name": "subscriber",
          "type": "address"
        },
        {
          "indexed": true,
          "name": "provider",
          "type": "address"
        },
        {
          "indexed": false,
          "name": "response",
          "type": "bytes32[]"
        }
      ],
      "name": "OffchainResponse",
      "type": "event"
    },
    {
      "anonymous": false,
      "inputs": [
        {
          "indexed": true,
          "name": "previousOwner",
          "type": "address"
        },
        {
          "indexed": true,
          "name": "newOwner",
          "type": "address"
        }
      ],
      "name": "OwnershipTransferred",
      "type": "event"
    },
    {
      "constant": false,
      "inputs": [
        {
          "name": "_bondageAddress",
          "type": "address"
        }
      ],
      "name": "setBondage",
      "outputs": [],
      "payable": false,
      "stateMutability": "nonpayable",
      "type": "function"
    },
    {
      "constant": false,
      "inputs": [
        {
          "name": "provider",
          "type": "address"
        },
        {
          "name": "userQuery",
          "type": "string"
        },
        {
          "name": "endpoint",
          "type": "bytes32"
        },
        {
          "name": "endpointParams",
          "type": "bytes32[]"
        },
        {
          "name": "onchainProvider",
          "type": "bool"
        },
        {
          "name": "onchainSubscriber",
          "type": "bool"
        }
      ],
      "name": "query",
      "outputs": [
        {
          "name": "id",
          "type": "uint256"
        }
      ],
      "payable": false,
      "stateMutability": "nonpayable",
      "type": "function"
    },
    {
      "constant": false,
      "inputs": [
        {
          "name": "id",
          "type": "uint256"
        },
        {
          "name": "response",
          "type": "bytes32[]"
        }
      ],
      "name": "respondBytes32Array",
      "outputs": [
        {
          "name": "",
          "type": "bool"
        }
      ],
      "payable": false,
      "stateMutability": "nonpayable",
      "type": "function"
    },
    {
      "constant": false,
      "inputs": [
        {
          "name": "id",
          "type": "uint256"
        },
        {
          "name": "response",
          "type": "string"
        }
      ],
      "name": "respond1",
      "outputs": [
        {
          "name": "",
          "type": "bool"
        }
      ],
      "payable": false,
      "stateMutability": "nonpayable",
      "type": "function"
    },
    {
      "constant": false,
      "inputs": [
        {
          "name": "id",
          "type": "uint256"
        },
        {
          "name": "response1",
          "type": "string"
        },
        {
          "name": "response2",
          "type": "string"
        }
      ],
      "name": "respond2",
      "outputs": [
        {
          "name": "",
          "type": "bool"
        }
      ],
      "payable": false,
      "stateMutability": "nonpayable",
      "type": "function"
    },
    {
      "constant": false,
      "inputs": [
        {
          "name": "id",
          "type": "uint256"
        },
        {
          "name": "response1",
          "type": "string"
        },
        {
          "name": "response2",
          "type": "string"
        },
        {
          "name": "response3",
          "type": "string"
        }
      ],
      "name": "respond3",
      "outputs": [
        {
          "name": "",
          "type": "bool"
        }
      ],
      "payable": false,
      "stateMutability": "nonpayable",
      "type": "function"
    },
    {
      "constant": false,
      "inputs": [
        {
          "name": "id",
          "type": "uint256"
        },
        {
          "name": "response1",
          "type": "string"
        },
        {
          "name": "response2",
          "type": "string"
        },
        {
          "name": "response3",
          "type": "string"
        },
        {
          "name": "response4",
          "type": "string"
        }
      ],
      "name": "respond4",
      "outputs": [
        {
          "name": "",
          "type": "bool"
        }
      ],
      "payable": false,
      "stateMutability": "nonpayable",
      "type": "function"
    }
  ],
  "bytecode": "0x608060405234801561001057600080fd5b506040516040806125728339810180604052810190808051906020019092919080519060200190929190505050336000806101000a81548173ffffffffffffffffffffffffffffffffffffffff021916908373ffffffffffffffffffffffffffffffffffffffff16021790555081600160006101000a81548173ffffffffffffffffffffffffffffffffffffffff021916908373ffffffffffffffffffffffffffffffffffffffff16021790555080600260006101000a81548173ffffffffffffffffffffffffffffffffffffffff021916908373ffffffffffffffffffffffffffffffffffffffff1602179055505050612462806101106000396000f3006080604052600436106100ba576000357c0100000000000000000000000000000000000000000000000000000000900463ffffffff1680630cbe69a1146100bf5780633485d34c1461011c5780633b90dfa8146101c15780636843581c1461024e57806385aa92a7146102ab5780638da5cb5b146103025780639cb8a26a146103595780639f77d60014610370578063b50cffc31461041d578063e00dbb4114610460578063f2fde38b146104b7578063fedea288146104fa575b600080fd5b3480156100cb57600080fd5b506101026004803603810190808035906020019092919080359060200190820180359060200191909192939192939050505061056f565b604051808215151515815260200191505060405180910390f35b34801561012857600080fd5b506101a760048036038101908080359060200190929190803590602001908201803590602001919091929391929390803590602001908201803590602001919091929391929390803590602001908201803590602001919091929391929390803590602001908201803590602001919091929391929390505050610a2e565b604051808215151515815260200191505060405180910390f35b3480156101cd57600080fd5b5061023460048036038101908080359060200190929190803590602001908201803590602001919091929391929390803590602001908201803590602001919091929391929390803590602001908201803590602001919091929391929390505050610d31565b604051808215151515815260200191505060405180910390f35b34801561025a57600080fd5b5061029160048036038101908080359060200190929190803590602001908201803590602001919091929391929390505050611010565b604051808215151515815260200191505060405180910390f35b3480156102b757600080fd5b506102c06112a7565b604051808273ffffffffffffffffffffffffffffffffffffffff1673ffffffffffffffffffffffffffffffffffffffff16815260200191505060405180910390f35b34801561030e57600080fd5b506103176112cd565b604051808273ffffffffffffffffffffffffffffffffffffffff1673ffffffffffffffffffffffffffffffffffffffff16815260200191505060405180910390f35b34801561036557600080fd5b5061036e6112f2565b005b34801561037c57600080fd5b50610407600480360381019080803573ffffffffffffffffffffffffffffffffffffffff1690602001909291908035906020019082018035906020019190919293919293908035600019169060200190929190803590602001908201803590602001919091929391929390803515159060200190929190803515159060200190929190505050611387565b6040518082815260200191505060405180910390f35b34801561042957600080fd5b5061045e600480360381019080803573ffffffffffffffffffffffffffffffffffffffff1690602001909291905050506119a7565b005b34801561046c57600080fd5b50610475611a46565b604051808273ffffffffffffffffffffffffffffffffffffffff1673ffffffffffffffffffffffffffffffffffffffff16815260200191505060405180910390f35b3480156104c357600080fd5b506104f8600480360381019080803573ffffffffffffffffffffffffffffffffffffffff169060200190929190505050611a6c565b005b34801561050657600080fd5b5061055560048036038101908080359060200190929190803590602001908201803590602001919091929391929390803590602001908201803590602001919091929391929390505050611bc1565b604051808215151515815260200191505060405180910390f35b60003373ffffffffffffffffffffffffffffffffffffffff16600160009054906101000a900473ffffffffffffffffffffffffffffffffffffffff1673ffffffffffffffffffffffffffffffffffffffff16635c42d079866040518263ffffffff167c010000000000000000000000000000000000000000000000000000000002815260040180828152602001915050602060405180830381600087803b15801561061957600080fd5b505af115801561062d573d6000803e3d6000fd5b505050506040513d602081101561064357600080fd5b810190808051906020019092919050505073ffffffffffffffffffffffffffffffffffffffff1614158061067d575061067b84611e7c565b155b1561068757600080fd5b600160009054906101000a900473ffffffffffffffffffffffffffffffffffffffff1673ffffffffffffffffffffffffffffffffffffffff166337a8c560856040518263ffffffff167c010000000000000000000000000000000000000000000000000000000002815260040180828152602001915050602060405180830381600087803b15801561071857600080fd5b505af115801561072c573d6000803e3d6000fd5b505050506040513d602081101561074257600080fd5b8101908080519060200190929190505050156108d457600160009054906101000a900473ffffffffffffffffffffffffffffffffffffffff1673ffffffffffffffffffffffffffffffffffffffff166325df1e77856040518263ffffffff167c010000000000000000000000000000000000000000000000000000000002815260040180828152602001915050602060405180830381600087803b1580156107e957600080fd5b505af11580156107fd573d6000803e3d6000fd5b505050506040513d602081101561081357600080fd5b810190808051906020019092919050505073ffffffffffffffffffffffffffffffffffffffff166363b41fe98585856040518463ffffffff167c0100000000000000000000000000000000000000000000000000000000028152600401808481526020018060200182810382528484828181526020019250602002808284378201915050945050505050600060405180830381600087803b1580156108b757600080fd5b505af11580156108cb573d6000803e3d6000fd5b50505050610a23565b3373ffffffffffffffffffffffffffffffffffffffff16600160009054906101000a900473ffffffffffffffffffffffffffffffffffffffff1673ffffffffffffffffffffffffffffffffffffffff166325df1e77866040518263ffffffff167c010000000000000000000000000000000000000000000000000000000002815260040180828152602001915050602060405180830381600087803b15801561097c57600080fd5b505af1158015610990573d6000803e3d6000fd5b505050506040513d60208110156109a657600080fd5b810190808051906020019092919050505073ffffffffffffffffffffffffffffffffffffffff16857f92d44f3550f6aeaab26241971266a417e4385691402c27c5a1bf69b2c19210c68686604051808060200182810382528484828181526020019250602002808284378201915050935050505060405180910390a45b600190509392505050565b60003373ffffffffffffffffffffffffffffffffffffffff16600160009054906101000a900473ffffffffffffffffffffffffffffffffffffffff1673ffffffffffffffffffffffffffffffffffffffff16635c42d0798c6040518263ffffffff167c010000000000000000000000000000000000000000000000000000000002815260040180828152602001915050602060405180830381600087803b158015610ad857600080fd5b505af1158015610aec573d6000803e3d6000fd5b505050506040513d6020811015610b0257600080fd5b810190808051906020019092919050505073ffffffffffffffffffffffffffffffffffffffff16141580610b3c5750610b3a8a611e7c565b155b15610b4657600080fd5b600160009054906101000a900473ffffffffffffffffffffffffffffffffffffffff1673ffffffffffffffffffffffffffffffffffffffff166325df1e778b6040518263ffffffff167c010000000000000000000000000000000000000000000000000000000002815260040180828152602001915050602060405180830381600087803b158015610bd757600080fd5b505af1158015610beb573d6000803e3d6000fd5b505050506040513d6020811015610c0157600080fd5b810190808051906020019092919050505073ffffffffffffffffffffffffffffffffffffffff1663a267cf078b8b8b8b8b8b8b8b8b6040518a63ffffffff167c0100000000000000000000000000000000000000000000000000000000028152600401808a81526020018060200180602001806020018060200185810385528d8d82818152602001925080828437820191505085810384528b8b82818152602001925080828437820191505085810383528989828181526020019250808284378201915050858103825287878281815260200192508082843782019150509d5050505050505050505050505050600060405180830381600087803b158015610d0857600080fd5b505af1158015610d1c573d6000803e3d6000fd5b50505050600190509998505050505050505050565b60003373ffffffffffffffffffffffffffffffffffffffff16600160009054906101000a900473ffffffffffffffffffffffffffffffffffffffff1673ffffffffffffffffffffffffffffffffffffffff16635c42d0798a6040518263ffffffff167c010000000000000000000000000000000000000000000000000000000002815260040180828152602001915050602060405180830381600087803b158015610ddb57600080fd5b505af1158015610def573d6000803e3d6000fd5b505050506040513d6020811015610e0557600080fd5b810190808051906020019092919050505073ffffffffffffffffffffffffffffffffffffffff16141580610e3f5750610e3d88611e7c565b155b15610e4957600080fd5b600160009054906101000a900473ffffffffffffffffffffffffffffffffffffffff1673ffffffffffffffffffffffffffffffffffffffff166325df1e77896040518263ffffffff167c010000000000000000000000000000000000000000000000000000000002815260040180828152602001915050602060405180830381600087803b158015610eda57600080fd5b505af1158015610eee573d6000803e3d6000fd5b505050506040513d6020811015610f0457600080fd5b810190808051906020019092919050505073ffffffffffffffffffffffffffffffffffffffff1663d936a327898989898989896040518863ffffffff167c01000000000000000000000000000000000000000000000000000000000281526004018088815260200180602001806020018060200184810384528a8a82818152602001925080828437820191505084810383528888828181526020019250808284378201915050848103825286868281815260200192508082843782019150509a5050505050505050505050600060405180830381600087803b158015610fe957600080fd5b505af1158015610ffd573d6000803e3d6000fd5b5050505060019050979650505050505050565b60003373ffffffffffffffffffffffffffffffffffffffff16600160009054906101000a900473ffffffffffffffffffffffffffffffffffffffff1673ffffffffffffffffffffffffffffffffffffffff16635c42d079866040518263ffffffff167c010000000000000000000000000000000000000000000000000000000002815260040180828152602001915050602060405180830381600087803b1580156110ba57600080fd5b505af11580156110ce573d6000803e3d6000fd5b505050506040513d60208110156110e457600080fd5b810190808051906020019092919050505073ffffffffffffffffffffffffffffffffffffffff1614158061111e575061111c84611e7c565b155b1561112857600080fd5b600160009054906101000a900473ffffffffffffffffffffffffffffffffffffffff1673ffffffffffffffffffffffffffffffffffffffff166325df1e77856040518263ffffffff167c010000000000000000000000000000000000000000000000000000000002815260040180828152602001915050602060405180830381600087803b1580156111b957600080fd5b505af11580156111cd573d6000803e3d6000fd5b505050506040513d60208110156111e357600080fd5b810190808051906020019092919050505073ffffffffffffffffffffffffffffffffffffffff1663b69a375d8585856040518463ffffffff167c0100000000000000000000000000000000000000000000000000000000028152600401808481526020018060200182810382528484828181526020019250808284378201915050945050505050600060405180830381600087803b15801561128457600080fd5b505af1158015611298573d6000803e3d6000fd5b50505050600190509392505050565b600360009054906101000a900473ffffffffffffffffffffffffffffffffffffffff1681565b6000809054906101000a900473ffffffffffffffffffffffffffffffffffffffff1681565b6000809054906101000a900473ffffffffffffffffffffffffffffffffffffffff1673ffffffffffffffffffffffffffffffffffffffff163373ffffffffffffffffffffffffffffffffffffffff1614151561134d57600080fd5b6000809054906101000a900473ffffffffffffffffffffffffffffffffffffffff1673ffffffffffffffffffffffffffffffffffffffff16ff5b600080600260009054906101000a900473ffffffffffffffffffffffffffffffffffffffff1673ffffffffffffffffffffffffffffffffffffffff1663bbee3694338c8a6040518463ffffffff167c0100000000000000000000000000000000000000000000000000000000028152600401808473ffffffffffffffffffffffffffffffffffffffff1673ffffffffffffffffffffffffffffffffffffffff1681526020018373ffffffffffffffffffffffffffffffffffffffff1673ffffffffffffffffffffffffffffffffffffffff16815260200182600019166000191681526020019350505050602060405180830381600087803b15801561148b57600080fd5b505af115801561149f573d6000803e3d6000fd5b505050506040513d60208110156114b557600080fd5b8101908080519060200190929190505050905060018110151561199957600260009054906101000a900473ffffffffffffffffffffffffffffffffffffffff1673ffffffffffffffffffffffffffffffffffffffff166316614c98338c8a60016040518563ffffffff167c0100000000000000000000000000000000000000000000000000000000028152600401808573ffffffffffffffffffffffffffffffffffffffff1673ffffffffffffffffffffffffffffffffffffffff1681526020018473ffffffffffffffffffffffffffffffffffffffff1673ffffffffffffffffffffffffffffffffffffffff1681526020018360001916600019168152602001828152602001945050505050602060405180830381600087803b1580156115dc57600080fd5b505af11580156115f0573d6000803e3d6000fd5b505050506040513d602081101561160657600080fd5b81019080805190602001909291905050505043428a8a336040518086815260200185815260200184848082843782019150508273ffffffffffffffffffffffffffffffffffffffff1673ffffffffffffffffffffffffffffffffffffffff166c01000000000000000000000000028152601401955050505050506040518091039020600190049150600160009054906101000a900473ffffffffffffffffffffffffffffffffffffffff1673ffffffffffffffffffffffffffffffffffffffff166336f406cd838c338b8e8e8a6040518863ffffffff167c0100000000000000000000000000000000000000000000000000000000028152600401808881526020018773ffffffffffffffffffffffffffffffffffffffff1673ffffffffffffffffffffffffffffffffffffffff1681526020018673ffffffffffffffffffffffffffffffffffffffff1673ffffffffffffffffffffffffffffffffffffffff168152602001856000191660001916815260200180602001831515151581526020018281038252858582818152602001925080828437820191505098505050505050505050600060405180830381600087803b1580156117c557600080fd5b505af11580156117d9573d6000803e3d6000fd5b5050505083156118d2578973ffffffffffffffffffffffffffffffffffffffff1663de261583838b8b8b8b8b8a6040518863ffffffff167c010000000000000000000000000000000000000000000000000000000002815260040180888152602001806020018660001916600019168152602001806020018415151515815260200183810383528989828181526020019250808284378201915050838103825286868281815260200192506020028082843782019150509950505050505050505050600060405180830381600087803b1580156118b557600080fd5b505af11580156118c9573d6000803e3d6000fd5b50505050611994565b3373ffffffffffffffffffffffffffffffffffffffff168a73ffffffffffffffffffffffffffffffffffffffff16837f69741cc3ec0270f258feb6b53b42ef1e7d2251a3c8eea4f6ba1f72bd4b7beba78c8c8c8c8c8b60405180806020018660001916600019168152602001806020018415151515815260200183810383528989828181526020019250808284378201915050838103825286868281815260200192506020028082843782019150509850505050505050505060405180910390a45b61199a565b5b5098975050505050505050565b6000809054906101000a900473ffffffffffffffffffffffffffffffffffffffff1673ffffffffffffffffffffffffffffffffffffffff163373ffffffffffffffffffffffffffffffffffffffff16141515611a0257600080fd5b80600260006101000a81548173ffffffffffffffffffffffffffffffffffffffff021916908373ffffffffffffffffffffffffffffffffffffffff16021790555050565b600460009054906101000a900473ffffffffffffffffffffffffffffffffffffffff1681565b6000809054906101000a900473ffffffffffffffffffffffffffffffffffffffff1673ffffffffffffffffffffffffffffffffffffffff163373ffffffffffffffffffffffffffffffffffffffff16141515611ac757600080fd5b600073ffffffffffffffffffffffffffffffffffffffff168173ffffffffffffffffffffffffffffffffffffffff1614151515611b0357600080fd5b8073ffffffffffffffffffffffffffffffffffffffff166000809054906101000a900473ffffffffffffffffffffffffffffffffffffffff1673ffffffffffffffffffffffffffffffffffffffff167f8be0079c531659141344cd1fd0a4f28419497f9722a3daafe3b4186f6b6457e060405160405180910390a3806000806101000a81548173ffffffffffffffffffffffffffffffffffffffff021916908373ffffffffffffffffffffffffffffffffffffffff16021790555050565b60003373ffffffffffffffffffffffffffffffffffffffff16600160009054906101000a900473ffffffffffffffffffffffffffffffffffffffff1673ffffffffffffffffffffffffffffffffffffffff16635c42d079886040518263ffffffff167c010000000000000000000000000000000000000000000000000000000002815260040180828152602001915050602060405180830381600087803b158015611c6b57600080fd5b505af1158015611c7f573d6000803e3d6000fd5b505050506040513d6020811015611c9557600080fd5b810190808051906020019092919050505073ffffffffffffffffffffffffffffffffffffffff16141580611ccf5750611ccd86611e7c565b155b15611cd957600080fd5b600160009054906101000a900473ffffffffffffffffffffffffffffffffffffffff1673ffffffffffffffffffffffffffffffffffffffff166325df1e77876040518263ffffffff167c010000000000000000000000000000000000000000000000000000000002815260040180828152602001915050602060405180830381600087803b158015611d6a57600080fd5b505af1158015611d7e573d6000803e3d6000fd5b505050506040513d6020811015611d9457600080fd5b810190808051906020019092919050505073ffffffffffffffffffffffffffffffffffffffff1663f5795cd587878787876040518663ffffffff167c01000000000000000000000000000000000000000000000000000000000281526004018086815260200180602001806020018381038352878782818152602001925080828437820191505083810382528585828181526020019250808284378201915050975050505050505050600060405180830381600087803b158015611e5757600080fd5b505af1158015611e6b573d6000803e3d6000fd5b505050506001905095945050505050565b60008060008060006001811115611e8f57fe5b600160009054906101000a900473ffffffffffffffffffffffffffffffffffffffff1673ffffffffffffffffffffffffffffffffffffffff16635c622a0e876040518263ffffffff167c010000000000000000000000000000000000000000000000000000000002815260040180828152602001915050602060405180830381600087803b158015611f2057600080fd5b505af1158015611f34573d6000803e3d6000fd5b505050506040513d6020811015611f4a57600080fd5b81019080805190602001909291905050506001811115611f6657fe5b141515611f7257600080fd5b600160009054906101000a900473ffffffffffffffffffffffffffffffffffffffff1673ffffffffffffffffffffffffffffffffffffffff166325df1e77866040518263ffffffff167c010000000000000000000000000000000000000000000000000000000002815260040180828152602001915050602060405180830381600087803b15801561200357600080fd5b505af1158015612017573d6000803e3d6000fd5b505050506040513d602081101561202d57600080fd5b81019080805190602001909291905050509250600160009054906101000a900473ffffffffffffffffffffffffffffffffffffffff1673ffffffffffffffffffffffffffffffffffffffff16635c42d079866040518263ffffffff167c010000000000000000000000000000000000000000000000000000000002815260040180828152602001915050602060405180830381600087803b1580156120d157600080fd5b505af11580156120e5573d6000803e3d6000fd5b505050506040513d60208110156120fb57600080fd5b81019080805190602001909291905050509150600160009054906101000a900473ffffffffffffffffffffffffffffffffffffffff1673ffffffffffffffffffffffffffffffffffffffff1663937bbc4a866040518263ffffffff167c010000000000000000000000000000000000000000000000000000000002815260040180828152602001915050602060405180830381600087803b15801561219f57600080fd5b505af11580156121b3573d6000803e3d6000fd5b505050506040513d60208110156121c957600080fd5b81019080805190602001909291905050509050600160009054906101000a900473ffffffffffffffffffffffffffffffffffffffff1673ffffffffffffffffffffffffffffffffffffffff16636e447710866040518263ffffffff167c010000000000000000000000000000000000000000000000000000000002815260040180828152602001915050600060405180830381600087803b15801561226d57600080fd5b505af1158015612281573d6000803e3d6000fd5b50505050600260009054906101000a900473ffffffffffffffffffffffffffffffffffffffff1673ffffffffffffffffffffffffffffffffffffffff16633b058aa784848460016040518563ffffffff167c0100000000000000000000000000000000000000000000000000000000028152600401808573ffffffffffffffffffffffffffffffffffffffff1673ffffffffffffffffffffffffffffffffffffffff1681526020018473ffffffffffffffffffffffffffffffffffffffff1673ffffffffffffffffffffffffffffffffffffffff1681526020018360001916600019168152602001828152602001945050505050602060405180830381600087803b15801561238f57600080fd5b505af11580156123a3573d6000803e3d6000fd5b505050506040513d60208110156123b957600080fd5b81019080805190602001909291905050505080600019168273ffffffffffffffffffffffffffffffffffffffff168473ffffffffffffffffffffffffffffffffffffffff167fd2acd679e4b12e04dac69f514df2934d7bdb622acd5b5ebaea14f3dd70c3d58a60405160405180910390a4600193505050509190505600a165627a7a72305820d3f88be8896900038fd507ca6e8c3d3e9956eb6999feb1068cf551b1ac1df2640029",
  "source": "pragma solidity ^0.4.24;\n// v1.0\n\nimport \"../lib/Destructible.sol\";\nimport \"../lib/Client.sol\";\nimport \"../lib/OnChainProvider.sol\";\nimport \"../bondage/BondageInterface.sol\"; \nimport \"./DispatchStorage.sol\";\nimport \"./DispatchInterface.sol\";\n\ncontract Dispatch is Destructible, DispatchInterface { \n\n    //event data provider is listening for, containing all relevant request parameters\n    event Incoming(\n        uint256 indexed id,\n        address indexed provider,\n        address indexed subscriber,\n        string query,\n        bytes32 endpoint,\n        bytes32[] endpointParams,\n        bool onchainSubscriber\n    );\n\n    event FulfillQuery(\n        address indexed subscriber,\n        address indexed provider,\n        bytes32 indexed endpoint\n    );\n\n    event OffchainResponse(\n        uint256 indexed id,\n        address indexed subscriber,\n        address indexed provider,\n        bytes32[] response\n    );\n\n    DispatchStorage stor;\n    BondageInterface bondage;\n\n    address public storageAddress;\n    address public bondageAddress;\n\n    constructor(address _storageAddress, address _bondageAddress) public {\n        stor = DispatchStorage(_storageAddress);\n        bondage = BondageInterface(_bondageAddress);\n    }\n\n    /// @notice Upgdate bondage function (barring no interface change)\n    function setBondage(address _bondageAddress) public onlyOwner {\n        bondage = BondageInterface(_bondageAddress);\n    }    \n\n    /// @notice Escrow dot for oracle request\n    /// @dev Called by user contract\n    function query(\n        address provider,           // data provider address\n        string userQuery,           // query string\n        bytes32 endpoint,           // endpoint specifier ala 'smart_contract'\n        bytes32[] endpointParams,   // endpoint-specific params\n        bool onchainProvider,                // is provider a contract \n        bool onchainSubscriber               // is subscriber a contract\n        )\n        external\n        returns (uint256 id)\n    {\n        uint256 dots = bondage.getBoundDots(msg.sender, provider, endpoint);\n\n        if(dots >= 1) {\n            //enough dots\n            bondage.escrowDots(msg.sender, provider, endpoint, 1);\n\n            id = uint256(keccak256(block.number, now, userQuery, msg.sender));\n\n            stor.createQuery(id, provider, msg.sender, endpoint, userQuery, onchainSubscriber);\n            if(onchainProvider) {\n                OnChainProvider(provider).receive(id, userQuery, endpoint, endpointParams, onchainSubscriber); \n            }\n            else{\n                emit Incoming(id, provider, msg.sender, userQuery, endpoint, endpointParams, onchainSubscriber);\n            }\n        } else {\n            // NOT ENOUGH DOTS\n        }\n    }\n\n    /// @notice Transfer dots from Bondage escrow to data provider's Holder object under its own address\n    /// @dev Called upon data-provider request fulfillment\n    function fulfillQuery(uint256 id) internal returns (bool) {\n\n        require(stor.getStatus(id) == DispatchStorage.Status.Pending);\n\n        address subscriber = stor.getSubscriber(id);\n        address provider = stor.getProvider(id);\n        bytes32 endpoint = stor.getEndpoint(id);\n\n        stor.setFulfilled(id);\n\n        bondage.releaseDots(subscriber, provider, endpoint, 1);\n\n        emit FulfillQuery(subscriber, provider, endpoint);\n\n        return true;\n    }\n\n    /// @dev Parameter-count specific method called by data provider in response\n    function respondBytes32Array(\n        uint256 id,\n        bytes32[] response\n    )\n        external\n        returns (bool)\n    {\n        if (stor.getProvider(id) != msg.sender || !fulfillQuery(id))\n            revert();\n        if(stor.getSubscriberOnchain(id)) {\n            ClientBytes32Array(stor.getSubscriber(id)).callback(id, response);\n        }\n        else {\n            emit OffchainResponse(id, stor.getSubscriber(id), msg.sender, response);\n        }\n        return true;\n    }\n\n\n    /// @dev Parameter-count specific method called by data provider in response\n    function respond1(\n        uint256 id,\n        string response\n    )\n        external\n        returns (bool)\n    {\n        if (stor.getProvider(id) != msg.sender || !fulfillQuery(id))\n            revert();\n        Client1(stor.getSubscriber(id)).callback(id, response);\n        return true;\n    }\n\n    /// @dev Parameter-count specific method called by data provider in response\n    function respond2(\n        uint256 id,\n        string response1,\n        string response2\n    )\n        external\n        returns (bool)\n    {\n        if (stor.getProvider(id) != msg.sender || !fulfillQuery(id))\n            revert();\n        Client2(stor.getSubscriber(id)).callback(id, response1, response2);\n        return true;\n    }\n\n    /// @dev Parameter-count specific method called by data provider in response\n    function respond3(\n        uint256 id,\n        string response1,\n        string response2,\n        string response3\n    )\n        external\n        returns (bool)\n    {\n        if (stor.getProvider(id) != msg.sender || !fulfillQuery(id))\n            revert();\n        Client3(stor.getSubscriber(id)).callback(id, response1, response2, response3);\n        return true;\n    }\n\n    /// @dev Parameter-count specific method called by data provider in response\n    function respond4(\n        uint256 id,\n        string response1,\n        string response2,\n        string response3,\n        string response4\n    )\n        external\n        returns (bool)\n    {\n        if (stor.getProvider(id) != msg.sender || !fulfillQuery(id))\n            revert();\n        Client4(stor.getSubscriber(id)).callback(id, response1, response2, response3, response4);\n        return true;\n    }\n}\n\n/*\n/* For use in example contract, see TestSubscriber.sol\n/*\n/* When User Contract calls ZapDispatch.query(),\n/* 1 oracle specific dot is escrowed by ZapBondage and Incoming event is ted.\n/*\n/* When provider's client hears an Incoming event containing provider's address and responds,\n/* the provider calls a ZapDispatch.respondX function corresponding to number of response params.\n/*\n/* Dots are moved from ZapBondage escrow to data-provider's bond Holder struct,\n/* with data provider address set as self's address.\n/*/ \n",
  "sourcePath": "/home/kim/Code/ZAP/FeedArbitration/ZapContracts/contracts/dispatch/Dispatch.sol",
  "compiler": {
    "name": "solc",
    "version": "0.4.24+commit.e67f0147.Emscripten.clang"
  },
  "schemaVersion": "2.0.0",
  "updatedAt": "2018-06-27T03:53:02.109Z"
}