{
  "contractName": "Registry",
  "abi": [
    {
      "constant": true,
      "inputs": [],
      "name": "storageAddress",
      "outputs": [
        {
          "name": "",
          "type": "address"
        }
      ],
      "payable": false,
      "stateMutability": "view",
      "type": "function"
    },
    {
      "constant": true,
      "inputs": [],
      "name": "owner",
      "outputs": [
        {
          "name": "",
          "type": "address"
        }
      ],
      "payable": false,
      "stateMutability": "view",
      "type": "function"
    },
    {
      "constant": false,
      "inputs": [],
      "name": "selfDestruct",
      "outputs": [],
      "payable": false,
      "stateMutability": "nonpayable",
      "type": "function"
    },
    {
      "constant": false,
      "inputs": [
        {
          "name": "newOwner",
          "type": "address"
        }
      ],
      "name": "transferOwnership",
      "outputs": [],
      "payable": false,
      "stateMutability": "nonpayable",
      "type": "function"
    },
    {
      "inputs": [
        {
          "name": "_storageAddress",
          "type": "address"
        }
      ],
      "payable": false,
      "stateMutability": "nonpayable",
      "type": "constructor"
    },
    {
      "anonymous": false,
      "inputs": [
        {
          "indexed": true,
          "name": "provider",
          "type": "address"
        },
        {
          "indexed": true,
          "name": "title",
          "type": "bytes32"
        },
        {
          "indexed": true,
          "name": "endpoint",
          "type": "bytes32"
        }
      ],
      "name": "NewProvider",
      "type": "event"
    },
    {
      "anonymous": false,
      "inputs": [
        {
          "indexed": true,
          "name": "provider",
          "type": "address"
        },
        {
          "indexed": true,
          "name": "endpoint",
          "type": "bytes32"
        },
        {
          "indexed": false,
          "name": "constants",
          "type": "int256[]"
        },
        {
          "indexed": false,
          "name": "parts",
          "type": "uint256[]"
        },
        {
          "indexed": false,
          "name": "dividers",
          "type": "uint256[]"
        }
      ],
      "name": "NewCurve",
      "type": "event"
    },
    {
      "anonymous": false,
      "inputs": [
        {
          "indexed": true,
          "name": "previousOwner",
          "type": "address"
        },
        {
          "indexed": true,
          "name": "newOwner",
          "type": "address"
        }
      ],
      "name": "OwnershipTransferred",
      "type": "event"
    },
    {
      "constant": false,
      "inputs": [
        {
          "name": "publicKey",
          "type": "uint256"
        },
        {
          "name": "title",
          "type": "bytes32"
        },
        {
          "name": "endpoint",
          "type": "bytes32"
        },
        {
          "name": "endpointParams",
          "type": "bytes32[]"
        }
      ],
      "name": "initiateProvider",
      "outputs": [
        {
          "name": "",
          "type": "bool"
        }
      ],
      "payable": false,
      "stateMutability": "nonpayable",
      "type": "function"
    },
    {
      "constant": false,
      "inputs": [
        {
          "name": "endpoint",
          "type": "bytes32"
        },
        {
          "name": "constants",
          "type": "int256[]"
        },
        {
          "name": "parts",
          "type": "uint256[]"
        },
        {
          "name": "dividers",
          "type": "uint256[]"
        }
      ],
      "name": "initiateProviderCurve",
      "outputs": [
        {
          "name": "",
          "type": "bool"
        }
      ],
      "payable": false,
      "stateMutability": "nonpayable",
      "type": "function"
    },
    {
      "constant": false,
      "inputs": [
        {
          "name": "endpoint",
          "type": "bytes32"
        },
        {
          "name": "endpointParams",
          "type": "bytes32[]"
        }
      ],
      "name": "setEndpointParams",
      "outputs": [],
      "payable": false,
      "stateMutability": "nonpayable",
      "type": "function"
    },
    {
      "constant": true,
      "inputs": [
        {
          "name": "provider",
          "type": "address"
        }
      ],
      "name": "getProviderPublicKey",
      "outputs": [
        {
          "name": "",
          "type": "uint256"
        }
      ],
      "payable": false,
      "stateMutability": "view",
      "type": "function"
    },
    {
      "constant": true,
      "inputs": [
        {
          "name": "provider",
          "type": "address"
        }
      ],
      "name": "getProviderTitle",
      "outputs": [
        {
          "name": "",
          "type": "bytes32"
        }
      ],
      "payable": false,
      "stateMutability": "view",
      "type": "function"
    },
    {
      "constant": true,
      "inputs": [
        {
          "name": "provider",
          "type": "address"
        },
        {
          "name": "endpoint",
          "type": "bytes32"
        },
        {
          "name": "index",
          "type": "uint256"
        }
      ],
      "name": "getNextEndpointParam",
      "outputs": [
        {
          "name": "nextIndex",
          "type": "uint256"
        },
        {
          "name": "endpointParam",
          "type": "bytes32"
        }
      ],
      "payable": false,
      "stateMutability": "view",
      "type": "function"
    },
    {
      "constant": true,
      "inputs": [
        {
          "name": "provider",
          "type": "address"
        },
        {
          "name": "endpoint",
          "type": "bytes32"
        }
      ],
      "name": "getProviderCurve",
      "outputs": [
        {
          "name": "",
          "type": "int256[]"
        },
        {
          "name": "",
          "type": "uint256[]"
        },
        {
          "name": "",
          "type": "uint256[]"
        }
      ],
      "payable": false,
      "stateMutability": "view",
      "type": "function"
    },
    {
      "constant": true,
      "inputs": [
        {
          "name": "provider",
          "type": "address"
        },
        {
          "name": "endpoint",
          "type": "bytes32"
        }
      ],
      "name": "getProviderArgsLength",
      "outputs": [
        {
          "name": "",
          "type": "uint256"
        },
        {
          "name": "",
          "type": "uint256"
        },
        {
          "name": "",
          "type": "uint256"
        }
      ],
      "payable": false,
      "stateMutability": "view",
      "type": "function"
    },
    {
      "constant": true,
      "inputs": [
        {
          "name": "index",
          "type": "uint256"
        }
      ],
      "name": "getNextProvider",
      "outputs": [
        {
          "name": "nextIndex",
          "type": "uint256"
        },
        {
          "name": "oracleAddress",
          "type": "address"
        },
        {
          "name": "publicKey",
          "type": "uint256"
        },
        {
          "name": "title",
          "type": "bytes32"
        }
      ],
      "payable": false,
      "stateMutability": "view",
      "type": "function"
    }
  ],
  "bytecode": "0x608060405234801561001057600080fd5b50604051602080611d1683398101806040528101908080519060200190929190505050336000806101000a81548173ffffffffffffffffffffffffffffffffffffffff021916908373ffffffffffffffffffffffffffffffffffffffff16021790555080600260006101000a81548173ffffffffffffffffffffffffffffffffffffffff021916908373ffffffffffffffffffffffffffffffffffffffff16021790555080600160006101000a81548173ffffffffffffffffffffffffffffffffffffffff021916908373ffffffffffffffffffffffffffffffffffffffff16021790555050611c11806101056000396000f3006080604052600436106100c5576000357c0100000000000000000000000000000000000000000000000000000000900463ffffffff16806304c67525146100ca5780632316a9ff1461016e5780634ff6e86e146102a457806353b0a300146102fb5780635481f43e1461036e57806385aa92a7146103cd5780638da5cb5b146104245780639cb8a26a1461047b578063ad47322114610492578063b21d9e8f14610510578063e4b8a9a914610622578063f2fde38b146106ac578063fcf0c248146106ef575b600080fd5b3480156100d657600080fd5b50610154600480360381019080803590602001909291908035600019169060200190929190803560001916906020019092919080359060200190820180359060200190808060200260200160405190810160405280939291908181526020018383602002808284378201915050505050509192919290505050610763565b604051808215151515815260200191505060405180910390f35b34801561017a57600080fd5b506101bd600480360381019080803573ffffffffffffffffffffffffffffffffffffffff16906020019092919080356000191690602001909291905050506109b2565b60405180806020018060200180602001848103845287818151815260200191508051906020019060200280838360005b838110156102085780820151818401526020810190506101ed565b50505050905001848103835286818151815260200191508051906020019060200280838360005b8381101561024a57808201518184015260208101905061022f565b50505050905001848103825285818151815260200191508051906020019060200280838360005b8381101561028c578082015181840152602081019050610271565b50505050905001965050505050505060405180910390f35b3480156102b057600080fd5b506102e5600480360381019080803573ffffffffffffffffffffffffffffffffffffffff169060200190929190505050610bc0565b6040518082815260200191505060405180910390f35b34801561030757600080fd5b5061034a600480360381019080803573ffffffffffffffffffffffffffffffffffffffff1690602001909291908035600019169060200190929190505050610cc1565b60405180848152602001838152602001828152602001935050505060405180910390f35b34801561037a57600080fd5b506103af600480360381019080803573ffffffffffffffffffffffffffffffffffffffff169060200190929190505050610def565b60405180826000191660001916815260200191505060405180910390f35b3480156103d957600080fd5b506103e2610ef0565b604051808273ffffffffffffffffffffffffffffffffffffffff1673ffffffffffffffffffffffffffffffffffffffff16815260200191505060405180910390f35b34801561043057600080fd5b50610439610f16565b604051808273ffffffffffffffffffffffffffffffffffffffff1673ffffffffffffffffffffffffffffffffffffffff16815260200191505060405180910390f35b34801561048757600080fd5b50610490610f3b565b005b34801561049e57600080fd5b506104eb600480360381019080803573ffffffffffffffffffffffffffffffffffffffff169060200190929190803560001916906020019092919080359060200190929190505050610fd0565b6040518083815260200182600019166000191681526020019250505060405180910390f35b34801561051c57600080fd5b50610608600480360381019080803560001916906020019092919080359060200190820180359060200190808060200260200160405190810160405280939291908181526020018383602002808284378201915050505050509192919290803590602001908201803590602001908080602002602001604051908101604052809392919081815260200183836020028082843782019150505050505091929192908035906020019082018035906020019080806020026020016040519081016040528093929190818152602001838360200280828437820191505050505050919291929050505061123b565b604051808215151515815260200191505060405180910390f35b34801561062e57600080fd5b5061064d60048036038101908080359060200190929190505050611748565b604051808581526020018473ffffffffffffffffffffffffffffffffffffffff1673ffffffffffffffffffffffffffffffffffffffff168152602001838152602001826000191660001916815260200194505050505060405180910390f35b3480156106b857600080fd5b506106ed600480360381019080803573ffffffffffffffffffffffffffffffffffffffff16906020019092919050505061195e565b005b3480156106fb57600080fd5b50610761600480360381019080803560001916906020019092919080359060200190820180359060200190808060200260200160405190810160405280939291908181526020018383602002808284378201915050505050509192919290505050611ab3565b005b60008061076f33610bc0565b14151561077b57600080fd5b600160009054906101000a900473ffffffffffffffffffffffffffffffffffffffff1673ffffffffffffffffffffffffffffffffffffffff1663b3c0b7be3387876040518463ffffffff167c0100000000000000000000000000000000000000000000000000000000028152600401808473ffffffffffffffffffffffffffffffffffffffff1673ffffffffffffffffffffffffffffffffffffffff16815260200183815260200182600019166000191681526020019350505050600060405180830381600087803b15801561085057600080fd5b505af1158015610864573d6000803e3d6000fd5b5050505060006001028360001916141515610884576108838383611ab3565b5b600160009054906101000a900473ffffffffffffffffffffffffffffffffffffffff1673ffffffffffffffffffffffffffffffffffffffff1663df5dd1a5336040518263ffffffff167c0100000000000000000000000000000000000000000000000000000000028152600401808273ffffffffffffffffffffffffffffffffffffffff1673ffffffffffffffffffffffffffffffffffffffff168152602001915050600060405180830381600087803b15801561094157600080fd5b505af1158015610955573d6000803e3d6000fd5b50505050826000191684600019163373ffffffffffffffffffffffffffffffffffffffff167ff698ab0e7380181252e6e68ce19db1e5c79992e1a2b618460155606fe30c89f260405160405180910390a460019050949350505050565b6060806060600160009054906101000a900473ffffffffffffffffffffffffffffffffffffffff1673ffffffffffffffffffffffffffffffffffffffff1663cc31433886866040518363ffffffff167c0100000000000000000000000000000000000000000000000000000000028152600401808373ffffffffffffffffffffffffffffffffffffffff1673ffffffffffffffffffffffffffffffffffffffff168152602001826000191660001916815260200192505050600060405180830381600087803b158015610a8457600080fd5b505af1158015610a98573d6000803e3d6000fd5b505050506040513d6000823e3d601f19601f820116820180604052506060811015610ac257600080fd5b810190808051640100000000811115610ada57600080fd5b82810190506020810184811115610af057600080fd5b8151856020820283011164010000000082111715610b0d57600080fd5b50509291906020018051640100000000811115610b2957600080fd5b82810190506020810184811115610b3f57600080fd5b8151856020820283011164010000000082111715610b5c57600080fd5b50509291906020018051640100000000811115610b7857600080fd5b82810190506020810184811115610b8e57600080fd5b8151856020820283011164010000000082111715610bab57600080fd5b50509291905050509250925092509250925092565b6000600160009054906101000a900473ffffffffffffffffffffffffffffffffffffffff1673ffffffffffffffffffffffffffffffffffffffff1663857cdbb8836040518263ffffffff167c0100000000000000000000000000000000000000000000000000000000028152600401808273ffffffffffffffffffffffffffffffffffffffff1673ffffffffffffffffffffffffffffffffffffffff168152602001915050602060405180830381600087803b158015610c7f57600080fd5b505af1158015610c93573d6000803e3d6000fd5b505050506040513d6020811015610ca957600080fd5b81019080805190602001909291905050509050919050565b6000806000600160009054906101000a900473ffffffffffffffffffffffffffffffffffffffff1673ffffffffffffffffffffffffffffffffffffffff166353b0a30086866040518363ffffffff167c0100000000000000000000000000000000000000000000000000000000028152600401808373ffffffffffffffffffffffffffffffffffffffff1673ffffffffffffffffffffffffffffffffffffffff168152602001826000191660001916815260200192505050606060405180830381600087803b158015610d9357600080fd5b505af1158015610da7573d6000803e3d6000fd5b505050506040513d6060811015610dbd57600080fd5b810190808051906020019092919080519060200190929190805190602001909291905050509250925092509250925092565b6000600160009054906101000a900473ffffffffffffffffffffffffffffffffffffffff1673ffffffffffffffffffffffffffffffffffffffff1663f51d7d5f836040518263ffffffff167c0100000000000000000000000000000000000000000000000000000000028152600401808273ffffffffffffffffffffffffffffffffffffffff1673ffffffffffffffffffffffffffffffffffffffff168152602001915050602060405180830381600087803b158015610eae57600080fd5b505af1158015610ec2573d6000803e3d6000fd5b505050506040513d6020811015610ed857600080fd5b81019080805190602001909291905050509050919050565b600260009054906101000a900473ffffffffffffffffffffffffffffffffffffffff1681565b6000809054906101000a900473ffffffffffffffffffffffffffffffffffffffff1681565b6000809054906101000a900473ffffffffffffffffffffffffffffffffffffffff1673ffffffffffffffffffffffffffffffffffffffff163373ffffffffffffffffffffffffffffffffffffffff16141515610f9657600080fd5b6000809054906101000a900473ffffffffffffffffffffffffffffffffffffffff1673ffffffffffffffffffffffffffffffffffffffff16ff5b6000806000600160009054906101000a900473ffffffffffffffffffffffffffffffffffffffff1673ffffffffffffffffffffffffffffffffffffffff16639a04b2d987876040518363ffffffff167c0100000000000000000000000000000000000000000000000000000000028152600401808373ffffffffffffffffffffffffffffffffffffffff1673ffffffffffffffffffffffffffffffffffffffff168152602001826000191660001916815260200192505050602060405180830381600087803b1580156110a257600080fd5b505af11580156110b6573d6000803e3d6000fd5b505050506040513d60208110156110cc57600080fd5b810190808051906020019092919050505090508084101561122157600160009054906101000a900473ffffffffffffffffffffffffffffffffffffffff1673ffffffffffffffffffffffffffffffffffffffff1663d24c67418787876040518463ffffffff167c0100000000000000000000000000000000000000000000000000000000028152600401808473ffffffffffffffffffffffffffffffffffffffff1673ffffffffffffffffffffffffffffffffffffffff16815260200183600019166000191681526020018281526020019350505050602060405180830381600087803b1580156111bc57600080fd5b505af11580156111d0573d6000803e3d6000fd5b505050506040513d60208110156111e657600080fd5b810190808051906020019092919050505091508060018501101561121257600184018292509250611232565b60008281915092509250611232565b600080819150806001029050925092505b50935093915050565b600080600160009054906101000a900473ffffffffffffffffffffffffffffffffffffffff1673ffffffffffffffffffffffffffffffffffffffff1663857cdbb8336040518263ffffffff167c0100000000000000000000000000000000000000000000000000000000028152600401808273ffffffffffffffffffffffffffffffffffffffff1673ffffffffffffffffffffffffffffffffffffffff168152602001915050602060405180830381600087803b1580156112fb57600080fd5b505af115801561130f573d6000803e3d6000fd5b505050506040513d602081101561132557600080fd5b81019080805190602001909291905050501415151561134357600080fd5b600160009054906101000a900473ffffffffffffffffffffffffffffffffffffffff1673ffffffffffffffffffffffffffffffffffffffff166354a365df33876040518363ffffffff167c0100000000000000000000000000000000000000000000000000000000028152600401808373ffffffffffffffffffffffffffffffffffffffff1673ffffffffffffffffffffffffffffffffffffffff168152602001826000191660001916815260200192505050602060405180830381600087803b15801561141057600080fd5b505af1158015611424573d6000803e3d6000fd5b505050506040513d602081101561143a57600080fd5b8101908080519060200190929190505050151561145657600080fd5b600160009054906101000a900473ffffffffffffffffffffffffffffffffffffffff1673ffffffffffffffffffffffffffffffffffffffff16635f38978933878787876040518663ffffffff167c0100000000000000000000000000000000000000000000000000000000028152600401808673ffffffffffffffffffffffffffffffffffffffff1673ffffffffffffffffffffffffffffffffffffffff1681526020018560001916600019168152602001806020018060200180602001848103845287818151815260200191508051906020019060200280838360005b8381101561154f578082015181840152602081019050611534565b50505050905001848103835286818151815260200191508051906020019060200280838360005b83811015611591578082015181840152602081019050611576565b50505050905001848103825285818151815260200191508051906020019060200280838360005b838110156115d35780820151818401526020810190506115b8565b5050505090500198505050505050505050600060405180830381600087803b1580156115fe57600080fd5b505af1158015611612573d6000803e3d6000fd5b5050505084600019163373ffffffffffffffffffffffffffffffffffffffff167fa5b7f64b56f8b812fa96dda674a98abf2d5dd52fcd202fbf6ad0ef1fd8fe8df186868660405180806020018060200180602001848103845287818151815260200191508051906020019060200280838360005b838110156116a1578082015181840152602081019050611686565b50505050905001848103835286818151815260200191508051906020019060200280838360005b838110156116e35780820151818401526020810190506116c8565b50505050905001848103825285818151815260200191508051906020019060200280838360005b8381101561172557808201518184015260208101905061170a565b50505050905001965050505050505060405180910390a360019050949350505050565b6000806000806000600160009054906101000a900473ffffffffffffffffffffffffffffffffffffffff1673ffffffffffffffffffffffffffffffffffffffff1663b9552c606040518163ffffffff167c0100000000000000000000000000000000000000000000000000000000028152600401602060405180830381600087803b1580156117d657600080fd5b505af11580156117ea573d6000803e3d6000fd5b505050506040513d602081101561180057600080fd5b810190808051906020019092919050505090508086101561193d57600160009054906101000a900473ffffffffffffffffffffffffffffffffffffffff1673ffffffffffffffffffffffffffffffffffffffff16639217c438876040518263ffffffff167c010000000000000000000000000000000000000000000000000000000002815260040180828152602001915050602060405180830381600087803b1580156118ac57600080fd5b505af11580156118c0573d6000803e3d6000fd5b505050506040513d60208110156118d657600080fd5b810190808051906020019092919050505093508060018701101561191857600186018461190286610bc0565b61190b87610def565b9450945094509450611956565b60008461192486610bc0565b61192d87610def565b8393509450945094509450611956565b6000806000829250819150809050600094509450945094505b509193509193565b6000809054906101000a900473ffffffffffffffffffffffffffffffffffffffff1673ffffffffffffffffffffffffffffffffffffffff163373ffffffffffffffffffffffffffffffffffffffff161415156119b957600080fd5b600073ffffffffffffffffffffffffffffffffffffffff168173ffffffffffffffffffffffffffffffffffffffff16141515156119f557600080fd5b8073ffffffffffffffffffffffffffffffffffffffff166000809054906101000a900473ffffffffffffffffffffffffffffffffffffffff1673ffffffffffffffffffffffffffffffffffffffff167f8be0079c531659141344cd1fd0a4f28419497f9722a3daafe3b4186f6b6457e060405160405180910390a3806000806101000a81548173ffffffffffffffffffffffffffffffffffffffff021916908373ffffffffffffffffffffffffffffffffffffffff16021790555050565b600160009054906101000a900473ffffffffffffffffffffffffffffffffffffffff1673ffffffffffffffffffffffffffffffffffffffff1663c6d1d82a3384846040518463ffffffff167c0100000000000000000000000000000000000000000000000000000000028152600401808473ffffffffffffffffffffffffffffffffffffffff1673ffffffffffffffffffffffffffffffffffffffff168152602001836000191660001916815260200180602001828103825283818151815260200191508051906020019060200280838360005b83811015611ba2578082015181840152602081019050611b87565b50505050905001945050505050600060405180830381600087803b158015611bc957600080fd5b505af1158015611bdd573d6000803e3d6000fd5b5050505050505600a165627a7a72305820d34c2d5472cffcba04be7abb0466bb7dcf216ea24d08ef2ba937cb1151e43c0d0029",
  "source": "pragma solidity ^0.4.24;\n// v1.0\n\nimport \"./../lib/Destructible.sol\";\nimport \"./RegistryStorage.sol\";\nimport \"./RegistryInterface.sol\";\n\ncontract Registry is Destructible, RegistryInterface {\n\n    enum CurveType { None, Linear, Exponential, Logarithmic }\n\n    event NewProvider(\n        address indexed provider,\n        bytes32 indexed title,\n        bytes32 indexed endpoint\n    );\n\n    event NewCurve(\n        address indexed provider,\n        bytes32 indexed endpoint,\n        int[] constants,\n        uint[] parts,\n        uint[] dividers\n    );\n\n    RegistryStorage stor;\n\n    address public storageAddress;\n\n    constructor(address _storageAddress) public {\n        storageAddress = _storageAddress;\n        stor = RegistryStorage(_storageAddress);\n    }\n\n    /// @dev initiates a provider.\n    /// If no address->Oracle mapping exists, Oracle object is created\n    /// @param publicKey unique id for provider. used for encyrpted key swap for subscription endpoints\n    /// @param title name\n    /// @param endpoint specifier\n    /// @param endpointParams endpoint specific params\n    function initiateProvider(\n        uint256 publicKey,\n        bytes32 title,\n        bytes32 endpoint,\n        bytes32[] endpointParams\n    )\n        public\n        returns (bool)\n    {\n        require(getProviderPublicKey(msg.sender) == 0);\n        stor.createOracle(msg.sender, publicKey, title);\n        if(endpoint != 0) setEndpointParams(endpoint, endpointParams);\n        stor.addOracle(msg.sender);\n        emit NewProvider(msg.sender, title, endpoint);\n        return true;\n    }\n\n    /// @dev initiates an endpoint specific provider curve\n    /// If oracle[specfifier] is uninitialized, Curve is mapped to endpoint\n    /// @param endpoint specifier of endpoint. currently \"smart_contract\" or \"socket_subscription\"\n    /// @param constants flattened array of all coefficients/powers/function across all polynomial terms\n    /// @param parts array of starting/ending points for piecewise function pieces\n    /// @param dividers array of indices, each specifying range of indices in coef,power,fn belonging to each piece\n    function initiateProviderCurve(\n        bytes32 endpoint,\n        int256[] constants,\n        uint256[] parts,\n        uint256[] dividers\n    )\n        public\n        returns (bool)\n    {\n        // Provider must be initiated\n        require(stor.getPublicKey(msg.sender) != 0);\n        // Can't reset their curve\n        require(stor.getCurveUnset(msg.sender, endpoint));\n\n        stor.setCurve(msg.sender, endpoint, constants, parts, dividers);\n        emit NewCurve(msg.sender, endpoint, constants, parts, dividers);\n\n        return true;\n    }\n\n    function setEndpointParams(bytes32 endpoint, bytes32[] endpointParams) public {\n        stor.setEndpointParameters(msg.sender, endpoint, endpointParams);\n    }\n\n    /// @return public key\n    function getProviderPublicKey(address provider) public view returns (uint256) {\n        return stor.getPublicKey(provider);\n    }\n\n    /// @return oracle name\n    function getProviderTitle(address provider) public view returns (bytes32) {\n        return stor.getTitle(provider);\n    }\n\n    /// @return endpoint-specific parameter\n    function getNextEndpointParam(address provider, bytes32 endpoint, uint256 index)\n        public\n        view\n        returns (uint256 nextIndex, bytes32 endpointParam)\n    {\n        uint256 len = stor.getEndpointIndexSize(provider, endpoint);\n        if (index < len) {\n            endpointParam = stor.getEndPointParam(provider, endpoint, index);\n            if (index + 1 < len) return (index + 1, endpointParam);\n            return (0, endpointParam);\n        }\n        return(0,0);\n    }\n\n    /// @dev get curve paramaters from oracle\n    function getProviderCurve(\n        address provider,\n        bytes32 endpoint\n    )\n        public\n        view\n        returns (int[], uint[],uint[])\n    {\n\n        return stor.getCurve(provider, endpoint);\n    }\n\n    /// @dev get length of constants, parts and dividers arrays\n    function getProviderArgsLength(address provider, bytes32 endpoint)\n        public\n        view\n        returns (uint, uint,uint)\n    {\n        return stor.getProviderArgsLength(provider, endpoint);\n\n    }\n\n    /// @dev get provider info\n    /// @param index index of provider\n    /// @return nextIndex next provider index\n    /// @return oracleAddress provider address\n    /// @return publicKey provider public key\n    /// @return title provider title\n    function getNextProvider(uint256 index)\n        public\n        view\n        returns (uint256 nextIndex, address oracleAddress, uint256 publicKey, bytes32 title)\n    {\n        uint256 len = stor.getOracleIndexSize();\n        if (index < len) {\n            oracleAddress = stor.getOracleAddress(index);\n            if (index + 1 < len)\n                return (\n                    index + 1,\n                    oracleAddress,\n                    getProviderPublicKey(oracleAddress),\n                    getProviderTitle(oracleAddress)\n                );\n            return (\n                0,\n                oracleAddress,\n                getProviderPublicKey(oracleAddress),\n                getProviderTitle(oracleAddress)\n            );\n        }\n        return (0,0x0,0,\"\");\n    }\n}\n",
  "sourcePath": "/home/kim/Code/ZAP/FeedArbitration/ZapContracts/contracts/registry/Registry.sol",
  "compiler": {
    "name": "solc",
    "version": "0.4.24+commit.e67f0147.Emscripten.clang"
  },
  "schemaVersion": "2.0.0",
  "updatedAt": "2018-06-27T03:53:02.068Z"
}