{
  "contractName": "TestClient",
  "abi": [
    {
      "inputs": [
        {
          "name": "tokenAddress",
          "type": "address"
        },
        {
          "name": "dispatchAddress",
          "type": "address"
        },
        {
          "name": "bondageAddress",
          "type": "address"
        },
        {
          "name": "registryAddress",
          "type": "address"
        }
      ],
      "payable": false,
      "stateMutability": "nonpayable",
      "type": "constructor"
    },
    {
      "anonymous": false,
      "inputs": [
        {
          "indexed": false,
          "name": "id",
          "type": "uint256"
        },
        {
          "indexed": false,
          "name": "response1",
          "type": "string"
        }
      ],
      "name": "Result1",
      "type": "event"
    },
    {
      "anonymous": false,
      "inputs": [
        {
          "indexed": false,
          "name": "response1",
          "type": "string"
        },
        {
          "indexed": false,
          "name": "response2",
          "type": "string"
        }
      ],
      "name": "Result2",
      "type": "event"
    },
    {
      "anonymous": false,
      "inputs": [
        {
          "indexed": false,
          "name": "response1",
          "type": "string"
        },
        {
          "indexed": false,
          "name": "response2",
          "type": "string"
        },
        {
          "indexed": false,
          "name": "response3",
          "type": "string"
        }
      ],
      "name": "Result3",
      "type": "event"
    },
    {
      "anonymous": false,
      "inputs": [
        {
          "indexed": false,
          "name": "response1",
          "type": "string"
        },
        {
          "indexed": false,
          "name": "response2",
          "type": "string"
        },
        {
          "indexed": false,
          "name": "response3",
          "type": "string"
        },
        {
          "indexed": false,
          "name": "response4",
          "type": "string"
        }
      ],
      "name": "Result4",
      "type": "event"
    },
    {
      "constant": false,
      "inputs": [
        {
          "name": "id",
          "type": "uint256"
        },
        {
          "name": "response1",
          "type": "string"
        }
      ],
      "name": "callback",
      "outputs": [],
      "payable": false,
      "stateMutability": "nonpayable",
      "type": "function"
    },
    {
      "constant": false,
      "inputs": [
        {
          "name": "oracleAddr",
          "type": "address"
        },
        {
          "name": "query",
          "type": "string"
        },
        {
          "name": "specifier",
          "type": "bytes32"
        },
        {
          "name": "params",
          "type": "bytes32[]"
        }
      ],
      "name": "testQuery",
      "outputs": [],
      "payable": false,
      "stateMutability": "nonpayable",
      "type": "function"
    }
  ],
  "bytecode": "0x608060405234801561001057600080fd5b506040516080806104fc83398101806040528101908080519060200190929190805190602001909291908051906020019092919080519060200190929190505050836000806101000a81548173ffffffffffffffffffffffffffffffffffffffff021916908373ffffffffffffffffffffffffffffffffffffffff16021790555082600160006101000a81548173ffffffffffffffffffffffffffffffffffffffff021916908373ffffffffffffffffffffffffffffffffffffffff16021790555081600260006101000a81548173ffffffffffffffffffffffffffffffffffffffff021916908373ffffffffffffffffffffffffffffffffffffffff16021790555080600360006101000a81548173ffffffffffffffffffffffffffffffffffffffff021916908373ffffffffffffffffffffffffffffffffffffffff16021790555050505050610395806101676000396000f30060806040526004361061004c576000357c0100000000000000000000000000000000000000000000000000000000900463ffffffff168063b69a375d14610051578063d075f20f14610096575b600080fd5b34801561005d57600080fd5b5061009460048036038101908080359060200190929190803590602001908201803590602001919091929391929390505050610117565b005b3480156100a257600080fd5b50610115600480360381019080803573ffffffffffffffffffffffffffffffffffffffff16906020019092919080359060200190820180359060200191909192939192939080356000191690602001909291908035906020019082018035906020019190919293919293905050506101f8565b005b606082828080601f01602080910402602001604051908101604052809392919081815260200183838082843782019150505050505090507f5d599109d8427016e4c93bff9b5f27e4cd24a83316a010d9ef7e15b7105d30e784826040518083815260200180602001828103825283818151815260200191508051906020019080838360005b838110156101b757808201518184015260208101905061019c565b50505050905090810190601f1680156101e45780820380516001836020036101000a031916815260200191505b50935050505060405180910390a150505050565b600160009054906101000a900473ffffffffffffffffffffffffffffffffffffffff1673ffffffffffffffffffffffffffffffffffffffff16639f77d6008787878787876001806040518963ffffffff167c0100000000000000000000000000000000000000000000000000000000028152600401808973ffffffffffffffffffffffffffffffffffffffff1673ffffffffffffffffffffffffffffffffffffffff16815260200180602001876000191660001916815260200180602001851515151581526020018415151515815260200183810383528a8a828181526020019250808284378201915050838103825287878281815260200192506020028082843782019150509a5050505050505050505050602060405180830381600087803b15801561032557600080fd5b505af1158015610339573d6000803e3d6000fd5b505050506040513d602081101561034f57600080fd5b8101908080519060200190929190505050505050505050505600a165627a7a72305820ca9d88e038ae55737a1ec9372c4f14f270ff527f9c8d07df10e51d6741da25fb0029",
  "source": "pragma solidity ^0.4.24;\n\nimport \"./Client.sol\";\nimport \"../dispatch/DispatchInterface.sol\";\nimport \"../bondage/BondageInterface.sol\";\nimport \"../registry/RegistryInterface.sol\";\nimport \"./OnChainProvider.sol\";\nimport \"../lib/ERC20.sol\";\n\ncontract TestProvider is OnChainProvider {\n\tevent RecievedQuery(string query, bytes32 endpoint, bytes32[] params);\n\n    bytes32 public specifier = \"spec01\";\n\n    // curve 2x^2\n    int[] constants = [2, 2, 0];\n    uint[] parts = [0, 1000000000];\n    uint[] dividers = [1]; \n\n    RegistryInterface registry;\n\n\tfunction receive(uint256 id, string userQuery, bytes32 endpoint, bytes32[] endpointParams, bool onchainSubscriber) external {\n        emit RecievedQuery(userQuery, endpoint, endpointParams);\n        if(onchainSubscriber) Dispatch(msg.sender).respond1(id, \"Hello World\");\n\t}\n\n    constructor(address registryAddress) public{\n\n        registry = RegistryInterface(registryAddress);\n\n        // initialize in registry\n        bytes32 spec = \"spec01\";\n        bytes32 title = \"TestContract\";\n\n        bytes32[] memory params = new bytes32[](2);\n        params[0] = \"p1\";\n        params[1] = \"p2\";\n\n        registry.initiateProvider(12345, title, spec, params);\n        registry.initiateProviderCurve(specifier, constants, parts, dividers);\n    }\n}\n\n/* Test Subscriber Client */\ncontract TestClient is Client1{\n\n\tevent Result1(uint256 id, string response1);\n\tevent Result2(string response1, string response2);\n\tevent Result3(string response1, string response2, string response3);\n\tevent Result4(string response1, string response2, string response3, string response4);\n\n\tERC20 token;\n\tDispatchInterface dispatch;\n\tBondageInterface bondage;\n    RegistryInterface registry;\n\n\tconstructor(address tokenAddress, address dispatchAddress, address bondageAddress, address registryAddress) public {\n\t\ttoken = ERC20(tokenAddress);\n\t\tdispatch = DispatchInterface(dispatchAddress);\n\t\tbondage = BondageInterface(bondageAddress);\n        registry = RegistryInterface(registryAddress);\n\t}\n\n    /*\n    Implements callback function for Client1\n    */\n    function callback(uint256 id, string response1) external {\n    \tstring memory _response1 = response1;\n    \temit Result1(id, _response1);\n    }\n\n    function testQuery(address oracleAddr, string query, bytes32 specifier, bytes32[] params) external {\n    \tdispatch.query(oracleAddr, query, specifier, params, true, true);\n    }\n\n    function stringToBytes32(string memory source) internal pure returns (bytes32 result) {\n    \tbytes memory tempEmptyStringTest = bytes(source);\n\n    \tif (tempEmptyStringTest.length == 0) {\n    \t\treturn 0x0;\n    \t}\n    \tassembly {\n    \t\tresult := mload(add(source, 32))\n    \t}\n    }\n\n}\n",
  "sourcePath": "/home/kim/Code/ZAP/FeedArbitration/ZapContracts/contracts/lib/TestContracts.sol",
  "compiler": {
    "name": "solc",
    "version": "0.4.24+commit.e67f0147.Emscripten.clang"
  },
  "schemaVersion": "2.0.0",
  "updatedAt": "2018-06-27T03:52:59.613Z"
}